{"abi":[{"type":"constructor","inputs":[],"stateMutability":"nonpayable"},{"type":"receive","stateMutability":"payable"},{"type":"function","name":"_accountValidation","inputs":[{"name":"opIndex","type":"uint256","internalType":"uint256"},{"name":"userOp","type":"tuple","internalType":"struct PackedUserOperation","components":[{"name":"sender","type":"address","internalType":"address"},{"name":"nonce","type":"uint256","internalType":"uint256"},{"name":"initCode","type":"bytes","internalType":"bytes"},{"name":"callData","type":"bytes","internalType":"bytes"},{"name":"accountGasLimits","type":"bytes32","internalType":"bytes32"},{"name":"preVerificationGas","type":"uint256","internalType":"uint256"},{"name":"gasFees","type":"bytes32","internalType":"bytes32"},{"name":"paymasterAndData","type":"bytes","internalType":"bytes"},{"name":"signature","type":"bytes","internalType":"bytes"}]},{"name":"outOpInfo","type":"tuple","internalType":"struct EntryPoint.UserOpInfo","components":[{"name":"mUserOp","type":"tuple","internalType":"struct EntryPoint.MemoryUserOp","components":[{"name":"sender","type":"address","internalType":"address"},{"name":"nonce","type":"uint256","internalType":"uint256"},{"name":"verificationGasLimit","type":"uint256","internalType":"uint256"},{"name":"callGasLimit","type":"uint256","internalType":"uint256"},{"name":"paymasterVerificationGasLimit","type":"uint256","internalType":"uint256"},{"name":"paymasterPostOpGasLimit","type":"uint256","internalType":"uint256"},{"name":"preVerificationGas","type":"uint256","internalType":"uint256"},{"name":"paymaster","type":"address","internalType":"address"},{"name":"maxFeePerGas","type":"uint256","internalType":"uint256"},{"name":"maxPriorityFeePerGas","type":"uint256","internalType":"uint256"}]},{"name":"userOpHash","type":"bytes32","internalType":"bytes32"},{"name":"prefund","type":"uint256","internalType":"uint256"},{"name":"contextOffset","type":"uint256","internalType":"uint256"},{"name":"preOpGas","type":"uint256","internalType":"uint256"}]}],"outputs":[{"name":"validationData","type":"uint256","internalType":"uint256"},{"name":"paymasterValidationData","type":"uint256","internalType":"uint256"},{"name":"paymasterVerificationGasLimit","type":"uint256","internalType":"uint256"}],"stateMutability":"nonpayable"},{"type":"function","name":"_paymasterValidation","inputs":[{"name":"opIndex","type":"uint256","internalType":"uint256"},{"name":"userOp","type":"tuple","internalType":"struct PackedUserOperation","components":[{"name":"sender","type":"address","internalType":"address"},{"name":"nonce","type":"uint256","internalType":"uint256"},{"name":"initCode","type":"bytes","internalType":"bytes"},{"name":"callData","type":"bytes","internalType":"bytes"},{"name":"accountGasLimits","type":"bytes32","internalType":"bytes32"},{"name":"preVerificationGas","type":"uint256","internalType":"uint256"},{"name":"gasFees","type":"bytes32","internalType":"bytes32"},{"name":"paymasterAndData","type":"bytes","internalType":"bytes"},{"name":"signature","type":"bytes","internalType":"bytes"}]},{"name":"outOpInfo","type":"tuple","internalType":"struct EntryPoint.UserOpInfo","components":[{"name":"mUserOp","type":"tuple","internalType":"struct EntryPoint.MemoryUserOp","components":[{"name":"sender","type":"address","internalType":"address"},{"name":"nonce","type":"uint256","internalType":"uint256"},{"name":"verificationGasLimit","type":"uint256","internalType":"uint256"},{"name":"callGasLimit","type":"uint256","internalType":"uint256"},{"name":"paymasterVerificationGasLimit","type":"uint256","internalType":"uint256"},{"name":"paymasterPostOpGasLimit","type":"uint256","internalType":"uint256"},{"name":"preVerificationGas","type":"uint256","internalType":"uint256"},{"name":"paymaster","type":"address","internalType":"address"},{"name":"maxFeePerGas","type":"uint256","internalType":"uint256"},{"name":"maxPriorityFeePerGas","type":"uint256","internalType":"uint256"}]},{"name":"userOpHash","type":"bytes32","internalType":"bytes32"},{"name":"prefund","type":"uint256","internalType":"uint256"},{"name":"contextOffset","type":"uint256","internalType":"uint256"},{"name":"preOpGas","type":"uint256","internalType":"uint256"}]}],"outputs":[{"name":"validationData","type":"uint256","internalType":"uint256"},{"name":"paymasterValidationData","type":"uint256","internalType":"uint256"},{"name":"paymasterVerificationGasLimit","type":"uint256","internalType":"uint256"}],"stateMutability":"nonpayable"},{"type":"function","name":"_validatePrepayment","inputs":[{"name":"opIndex","type":"uint256","internalType":"uint256"},{"name":"userOp","type":"tuple","internalType":"struct PackedUserOperation","components":[{"name":"sender","type":"address","internalType":"address"},{"name":"nonce","type":"uint256","internalType":"uint256"},{"name":"initCode","type":"bytes","internalType":"bytes"},{"name":"callData","type":"bytes","internalType":"bytes"},{"name":"accountGasLimits","type":"bytes32","internalType":"bytes32"},{"name":"preVerificationGas","type":"uint256","internalType":"uint256"},{"name":"gasFees","type":"bytes32","internalType":"bytes32"},{"name":"paymasterAndData","type":"bytes","internalType":"bytes"},{"name":"signature","type":"bytes","internalType":"bytes"}]},{"name":"outOpInfo","type":"tuple","internalType":"struct EntryPoint.UserOpInfo","components":[{"name":"mUserOp","type":"tuple","internalType":"struct EntryPoint.MemoryUserOp","components":[{"name":"sender","type":"address","internalType":"address"},{"name":"nonce","type":"uint256","internalType":"uint256"},{"name":"verificationGasLimit","type":"uint256","internalType":"uint256"},{"name":"callGasLimit","type":"uint256","internalType":"uint256"},{"name":"paymasterVerificationGasLimit","type":"uint256","internalType":"uint256"},{"name":"paymasterPostOpGasLimit","type":"uint256","internalType":"uint256"},{"name":"preVerificationGas","type":"uint256","internalType":"uint256"},{"name":"paymaster","type":"address","internalType":"address"},{"name":"maxFeePerGas","type":"uint256","internalType":"uint256"},{"name":"maxPriorityFeePerGas","type":"uint256","internalType":"uint256"}]},{"name":"userOpHash","type":"bytes32","internalType":"bytes32"},{"name":"prefund","type":"uint256","internalType":"uint256"},{"name":"contextOffset","type":"uint256","internalType":"uint256"},{"name":"preOpGas","type":"uint256","internalType":"uint256"}]},{"name":"validatePaymasterPrepayment","type":"bool","internalType":"bool"}],"outputs":[{"name":"validationData","type":"uint256","internalType":"uint256"},{"name":"paymasterValidationData","type":"uint256","internalType":"uint256"},{"name":"paymasterVerificationGasLimit","type":"uint256","internalType":"uint256"}],"stateMutability":"nonpayable"},{"type":"function","name":"addStake","inputs":[{"name":"unstakeDelaySec","type":"uint32","internalType":"uint32"}],"outputs":[],"stateMutability":"payable"},{"type":"function","name":"balanceOf","inputs":[{"name":"account","type":"address","internalType":"address"}],"outputs":[{"name":"","type":"uint256","internalType":"uint256"}],"stateMutability":"view"},{"type":"function","name":"delegateAndRevert","inputs":[{"name":"target","type":"address","internalType":"address"},{"name":"data","type":"bytes","internalType":"bytes"}],"outputs":[],"stateMutability":"nonpayable"},{"type":"function","name":"depositTo","inputs":[{"name":"account","type":"address","internalType":"address"}],"outputs":[],"stateMutability":"payable"},{"type":"function","name":"eip712Domain","inputs":[],"outputs":[{"name":"fields","type":"bytes1","internalType":"bytes1"},{"name":"name","type":"string","internalType":"string"},{"name":"version","type":"string","internalType":"string"},{"name":"chainId","type":"uint256","internalType":"uint256"},{"name":"verifyingContract","type":"address","internalType":"address"},{"name":"salt","type":"bytes32","internalType":"bytes32"},{"name":"extensions","type":"uint256[]","internalType":"uint256[]"}],"stateMutability":"view"},{"type":"function","name":"getDepositInfo","inputs":[{"name":"account","type":"address","internalType":"address"}],"outputs":[{"name":"info","type":"tuple","internalType":"struct IStakeManager.DepositInfo","components":[{"name":"deposit","type":"uint256","internalType":"uint256"},{"name":"staked","type":"bool","internalType":"bool"},{"name":"stake","type":"uint112","internalType":"uint112"},{"name":"unstakeDelaySec","type":"uint32","internalType":"uint32"},{"name":"withdrawTime","type":"uint48","internalType":"uint48"}]}],"stateMutability":"view"},{"type":"function","name":"getDomainSeparatorV4","inputs":[],"outputs":[{"name":"","type":"bytes32","internalType":"bytes32"}],"stateMutability":"view"},{"type":"function","name":"getNonce","inputs":[{"name":"sender","type":"address","internalType":"address"},{"name":"key","type":"uint192","internalType":"uint192"}],"outputs":[{"name":"nonce","type":"uint256","internalType":"uint256"}],"stateMutability":"view"},{"type":"function","name":"getPackedUserOpTypeHash","inputs":[],"outputs":[{"name":"","type":"bytes32","internalType":"bytes32"}],"stateMutability":"pure"},{"type":"function","name":"getSenderAddress","inputs":[{"name":"initCode","type":"bytes","internalType":"bytes"}],"outputs":[],"stateMutability":"nonpayable"},{"type":"function","name":"getUserOpHash","inputs":[{"name":"userOp","type":"tuple","internalType":"struct PackedUserOperation","components":[{"name":"sender","type":"address","internalType":"address"},{"name":"nonce","type":"uint256","internalType":"uint256"},{"name":"initCode","type":"bytes","internalType":"bytes"},{"name":"callData","type":"bytes","internalType":"bytes"},{"name":"accountGasLimits","type":"bytes32","internalType":"bytes32"},{"name":"preVerificationGas","type":"uint256","internalType":"uint256"},{"name":"gasFees","type":"bytes32","internalType":"bytes32"},{"name":"paymasterAndData","type":"bytes","internalType":"bytes"},{"name":"signature","type":"bytes","internalType":"bytes"}]}],"outputs":[{"name":"","type":"bytes32","internalType":"bytes32"}],"stateMutability":"view"},{"type":"function","name":"handleAggregatedOps","inputs":[{"name":"","type":"tuple[]","internalType":"struct IEntryPoint.UserOpsPerAggregator[]","components":[{"name":"userOps","type":"tuple[]","internalType":"struct PackedUserOperation[]","components":[{"name":"sender","type":"address","internalType":"address"},{"name":"nonce","type":"uint256","internalType":"uint256"},{"name":"initCode","type":"bytes","internalType":"bytes"},{"name":"callData","type":"bytes","internalType":"bytes"},{"name":"accountGasLimits","type":"bytes32","internalType":"bytes32"},{"name":"preVerificationGas","type":"uint256","internalType":"uint256"},{"name":"gasFees","type":"bytes32","internalType":"bytes32"},{"name":"paymasterAndData","type":"bytes","internalType":"bytes"},{"name":"signature","type":"bytes","internalType":"bytes"}]},{"name":"aggregator","type":"address","internalType":"contract IAggregator"},{"name":"signature","type":"bytes","internalType":"bytes"}]},{"name":"","type":"address","internalType":"address payable"}],"outputs":[],"stateMutability":"nonpayable"},{"type":"function","name":"handleOps","inputs":[{"name":"","type":"tuple[]","internalType":"struct PackedUserOperation[]","components":[{"name":"sender","type":"address","internalType":"address"},{"name":"nonce","type":"uint256","internalType":"uint256"},{"name":"initCode","type":"bytes","internalType":"bytes"},{"name":"callData","type":"bytes","internalType":"bytes"},{"name":"accountGasLimits","type":"bytes32","internalType":"bytes32"},{"name":"preVerificationGas","type":"uint256","internalType":"uint256"},{"name":"gasFees","type":"bytes32","internalType":"bytes32"},{"name":"paymasterAndData","type":"bytes","internalType":"bytes"},{"name":"signature","type":"bytes","internalType":"bytes"}]},{"name":"","type":"address","internalType":"address payable"}],"outputs":[],"stateMutability":"nonpayable"},{"type":"function","name":"incrementNonce","inputs":[{"name":"key","type":"uint192","internalType":"uint192"}],"outputs":[],"stateMutability":"nonpayable"},{"type":"function","name":"innerHandleOp","inputs":[{"name":"callData","type":"bytes","internalType":"bytes"},{"name":"opInfo","type":"tuple","internalType":"struct EntryPoint.UserOpInfo","components":[{"name":"mUserOp","type":"tuple","internalType":"struct EntryPoint.MemoryUserOp","components":[{"name":"sender","type":"address","internalType":"address"},{"name":"nonce","type":"uint256","internalType":"uint256"},{"name":"verificationGasLimit","type":"uint256","internalType":"uint256"},{"name":"callGasLimit","type":"uint256","internalType":"uint256"},{"name":"paymasterVerificationGasLimit","type":"uint256","internalType":"uint256"},{"name":"paymasterPostOpGasLimit","type":"uint256","internalType":"uint256"},{"name":"preVerificationGas","type":"uint256","internalType":"uint256"},{"name":"paymaster","type":"address","internalType":"address"},{"name":"maxFeePerGas","type":"uint256","internalType":"uint256"},{"name":"maxPriorityFeePerGas","type":"uint256","internalType":"uint256"}]},{"name":"userOpHash","type":"bytes32","internalType":"bytes32"},{"name":"prefund","type":"uint256","internalType":"uint256"},{"name":"contextOffset","type":"uint256","internalType":"uint256"},{"name":"preOpGas","type":"uint256","internalType":"uint256"}]},{"name":"context","type":"bytes","internalType":"bytes"},{"name":"preGas","type":"uint256","internalType":"uint256"}],"outputs":[{"name":"actualGasCost","type":"uint256","internalType":"uint256"},{"name":"paymasterPostOpGasLimit","type":"uint256","internalType":"uint256"}],"stateMutability":"nonpayable"},{"type":"function","name":"nonceSequenceNumber","inputs":[{"name":"","type":"address","internalType":"address"},{"name":"","type":"uint192","internalType":"uint192"}],"outputs":[{"name":"","type":"uint256","internalType":"uint256"}],"stateMutability":"view"},{"type":"function","name":"senderCreator","inputs":[],"outputs":[{"name":"","type":"address","internalType":"contract ISenderCreator"}],"stateMutability":"view"},{"type":"function","name":"unlockStake","inputs":[],"outputs":[],"stateMutability":"nonpayable"},{"type":"function","name":"withdrawStake","inputs":[{"name":"withdrawAddress","type":"address","internalType":"address payable"}],"outputs":[],"stateMutability":"nonpayable"},{"type":"function","name":"withdrawTo","inputs":[{"name":"withdrawAddress","type":"address","internalType":"address payable"},{"name":"withdrawAmount","type":"uint256","internalType":"uint256"}],"outputs":[],"stateMutability":"nonpayable"},{"type":"event","name":"AccountDeployed","inputs":[{"name":"userOpHash","type":"bytes32","indexed":true,"internalType":"bytes32"},{"name":"sender","type":"address","indexed":true,"internalType":"address"},{"name":"factory","type":"address","indexed":false,"internalType":"address"},{"name":"paymaster","type":"address","indexed":false,"internalType":"address"}],"anonymous":false},{"type":"event","name":"BeforeExecution","inputs":[],"anonymous":false},{"type":"event","name":"Deposited","inputs":[{"name":"account","type":"address","indexed":true,"internalType":"address"},{"name":"totalDeposit","type":"uint256","indexed":false,"internalType":"uint256"}],"anonymous":false},{"type":"event","name":"EIP712DomainChanged","inputs":[],"anonymous":false},{"type":"event","name":"PostOpRevertReason","inputs":[{"name":"userOpHash","type":"bytes32","indexed":true,"internalType":"bytes32"},{"name":"sender","type":"address","indexed":true,"internalType":"address"},{"name":"nonce","type":"uint256","indexed":false,"internalType":"uint256"},{"name":"revertReason","type":"bytes","indexed":false,"internalType":"bytes"}],"anonymous":false},{"type":"event","name":"SignatureAggregatorChanged","inputs":[{"name":"aggregator","type":"address","indexed":true,"internalType":"address"}],"anonymous":false},{"type":"event","name":"StakeLocked","inputs":[{"name":"account","type":"address","indexed":true,"internalType":"address"},{"name":"totalStaked","type":"uint256","indexed":false,"internalType":"uint256"},{"name":"unstakeDelaySec","type":"uint256","indexed":false,"internalType":"uint256"}],"anonymous":false},{"type":"event","name":"StakeUnlocked","inputs":[{"name":"account","type":"address","indexed":true,"internalType":"address"},{"name":"withdrawTime","type":"uint256","indexed":false,"internalType":"uint256"}],"anonymous":false},{"type":"event","name":"StakeWithdrawn","inputs":[{"name":"account","type":"address","indexed":true,"internalType":"address"},{"name":"withdrawAddress","type":"address","indexed":false,"internalType":"address"},{"name":"amount","type":"uint256","indexed":false,"internalType":"uint256"}],"anonymous":false},{"type":"event","name":"UserOperationEvent","inputs":[{"name":"userOpHash","type":"bytes32","indexed":true,"internalType":"bytes32"},{"name":"sender","type":"address","indexed":true,"internalType":"address"},{"name":"paymaster","type":"address","indexed":true,"internalType":"address"},{"name":"nonce","type":"uint256","indexed":false,"internalType":"uint256"},{"name":"success","type":"bool","indexed":false,"internalType":"bool"},{"name":"actualGasCost","type":"uint256","indexed":false,"internalType":"uint256"},{"name":"actualGasUsed","type":"uint256","indexed":false,"internalType":"uint256"}],"anonymous":false},{"type":"event","name":"UserOperationPrefundTooLow","inputs":[{"name":"userOpHash","type":"bytes32","indexed":true,"internalType":"bytes32"},{"name":"sender","type":"address","indexed":true,"internalType":"address"},{"name":"nonce","type":"uint256","indexed":false,"internalType":"uint256"}],"anonymous":false},{"type":"event","name":"UserOperationRevertReason","inputs":[{"name":"userOpHash","type":"bytes32","indexed":true,"internalType":"bytes32"},{"name":"sender","type":"address","indexed":true,"internalType":"address"},{"name":"nonce","type":"uint256","indexed":false,"internalType":"uint256"},{"name":"revertReason","type":"bytes","indexed":false,"internalType":"bytes"}],"anonymous":false},{"type":"event","name":"Withdrawn","inputs":[{"name":"account","type":"address","indexed":true,"internalType":"address"},{"name":"withdrawAddress","type":"address","indexed":false,"internalType":"address"},{"name":"amount","type":"uint256","indexed":false,"internalType":"uint256"}],"anonymous":false},{"type":"error","name":"CallPhaseReverted","inputs":[{"name":"reason","type":"bytes","internalType":"bytes"}]},{"type":"error","name":"DelegateAndRevert","inputs":[{"name":"success","type":"bool","internalType":"bool"},{"name":"ret","type":"bytes","internalType":"bytes"}]},{"type":"error","name":"FailedOp","inputs":[{"name":"opIndex","type":"uint256","internalType":"uint256"},{"name":"reason","type":"string","internalType":"string"}]},{"type":"error","name":"FailedOpWithRevert","inputs":[{"name":"opIndex","type":"uint256","internalType":"uint256"},{"name":"reason","type":"string","internalType":"string"},{"name":"inner","type":"bytes","internalType":"bytes"}]},{"type":"error","name":"InvalidShortString","inputs":[]},{"type":"error","name":"PostOpReverted","inputs":[{"name":"returnData","type":"bytes","internalType":"bytes"}]},{"type":"error","name":"ReentrancyGuardReentrantCall","inputs":[]},{"type":"error","name":"SenderAddressResult","inputs":[{"name":"sender","type":"address","internalType":"address"}]},{"type":"error","name":"SignatureValidationFailed","inputs":[{"name":"aggregator","type":"address","internalType":"address"}]},{"type":"error","name":"StringTooLong","inputs":[{"name":"str","type":"string","internalType":"string"}]}],"bytecode":{"object":"0x610160604052346101275760405161001860408261012b565b600781526020810190664552433433333760c81b82526040519161003d60408461012b565b600183526020830191603160f81b835261005681610162565b61012052610063846102fd565b61014052519020918260e05251902080610100524660a0526040519060208201927f8b73c3c69bb8fe3d512ecc4cf759cc79239f7b179b0ffacaa9a75d522b39400f8452604083015260608201524660808201523060a082015260a081526100cc60c08261012b565b5190206080523060c052604051612e559081610436823960805181611e08015260a05181611ec5015260c05181611dd9015260e05181611e5701526101005181611e7d01526101205181610992015261014051816109bc0152f35b5f80fd5b601f909101601f19168101906001600160401b0382119082101761014e57604052565b634e487b7160e01b5f52604160045260245ffd5b908151602081105f146101dc575090601f81511161019c57602081519101516020821061018d571790565b5f198260200360031b1b161790565b604460209160405192839163305a27a960e01b83528160048401528051918291826024860152018484015e5f828201840152601f01601f19168101030190fd5b6001600160401b03811161014e57600254600181811c911680156102f3575b60208210146102df57601f81116102ac575b50602092601f821160011461024b57928192935f92610240575b50508160011b915f199060031b1c19161760025560ff90565b015190505f80610227565b601f1982169360025f52805f20915f5b868110610294575083600195961061027c575b505050811b0160025560ff90565b01515f1960f88460031b161c191690555f808061026e565b9192602060018192868501518155019401920161025b565b60025f52601f60205f20910160051c810190601f830160051c015b8181106102d4575061020d565b5f81556001016102c7565b634e487b7160e01b5f52602260045260245ffd5b90607f16906101fb565b908151602081105f14610328575090601f81511161019c57602081519101516020821061018d571790565b6001600160401b03811161014e57600354600181811c9116801561042b575b60208210146102df57601f81116103f8575b50602092601f821160011461039757928192935f9261038c575b50508160011b915f199060031b1c19161760035560ff90565b015190505f80610373565b601f1982169360035f52805f20915f5b8681106103e057508360019596106103c8575b505050811b0160035560ff90565b01515f1960f88460031b161c191690555f80806103ba565b919260206001819286850151815501940192016103a7565b60035f52601f60205f20910160051c810190601f830160051c015b8181106104205750610359565b5f8155600101610413565b90607f169061034756fe6080806040526004361015610025575b50361561001a575f80fd5b61002333611d76565b005b5f905f3560e01c9081630396cb60146114d55750806309ccb880146114aa5780630bd28e3b146114595780630da826611461103f57806313c65a6e14611024578063154e58dc14610fe95780631b2e01b814610f94578063205c287814610e6c57806321e60b3714610dcb57806322cdde4c14610d8157806335567e1a14610d1d5780635287ce1214610c4257806369683cfa14610ad657806370a0823114610a9f578063765e827f14610a9057806384b0196e14610978578063850aaf62146109385780639b249f6914610848578063b760faf914610828578063bb9fe6bf146106c9578063c23a5cea146104d9578063c579f76b146101415763dbed18e00361000f573461013e576101383661199e565b91611c58565b80fd5b503461013e5761022036600319011261013e576004359060243567ffffffffffffffff81116104d557806004019061012060031982360301126104d1573660431901936101c085126104cd576101406040519561019d8761179c565b126104cd576040516101ae816117cc565b6044356001600160a01b03811681036104c95781526064356020820152608435604082015260a435606082015260c435608082015260e43560a08201526101043560c0820152610124356001600160a01b03811681036104c95760e082015261014435610100820152610164356101208201528552602085019161018435835260408601916101a435835260608701966101c435885260808101936101e4358552610204359182151583036104c55788975a9482519361026e8584611f32565b6040519961027b84611b2c565b9052896040526040850151996effffffffffffffffffffffffffffff8b60c08801511760608801511760808801511760a08801511761010088015117610120880151171161047b5750610307906102f386610100604082015160608301510160808301510160a08301510160c0830151019101510290565b809152608489013560801c9085858561248a565b986103216001600160a01b038651166020870151906126c5565b15610426575a8703116103d4576060946001600160a01b0360e05a96015116151590816103cc575b506103b1575b50505061035d905a90611af0565b976073890298808a046073149015171561039d57606496949260609996949260a492525a9003910135019052604051945084526020840152046040820152f35b602488634e487b7160e01b81526011600452fd5b61035d99506103c19394506120aa565b969091905f8061034f565b90505f610349565b60408051631101335b60e11b815260048101929092526024820152601e60448201527f41413236206f76657220766572696669636174696f6e4761734c696d69740000606482015280608481015b0390fd5b61042282604051918291631101335b60e11b835260048301608091815260406020820152601a60408201527f4141323520696e76616c6964206163636f756e74206e6f6e636500000000000060608201520190565b631101335b60e11b81526004810183905260406024820152601860448201527f41413934206761732076616c756573206f766572666c6f7700000000000000006064820152608490fd5b8880fd5b8580fd5b8380fd5b8280fd5b5080fd5b503461013e57602036600319011261013e576104f361186d565b33825281602052600160408320018054906dffffffffffffffffffffffffffff8260081c169182156106855760981c65ffffffffffff1680156106415742106105fd5780547fffffffffffffff000000000000000000000000000000000000000000000000ff169055604080516001600160a01b0384811682526020820184905285948594859485949193929133917fb7c918e0e249f999e965cafeb6c664271b3f4317d296461500e71da39f0cbda391a2165af16105b0611afd565b50156105b95780f35b606460405162461bcd60e51b815260206004820152601860248201527f6661696c656420746f207769746864726177207374616b6500000000000000006044820152fd5b606460405162461bcd60e51b815260206004820152601b60248201527f5374616b65207769746864726177616c206973206e6f742064756500000000006044820152fd5b606460405162461bcd60e51b815260206004820152601d60248201527f6d7573742063616c6c20756e6c6f636b5374616b6528292066697273740000006044820152fd5b606460405162461bcd60e51b815260206004820152601460248201527f4e6f207374616b6520746f2077697468647261770000000000000000000000006044820152fd5b503461013e578060031936011261013e573381528060205260016040822001805463ffffffff8160781c169081156107e45760ff16156107a05765ffffffffffff4216019065ffffffffffff821161078c5780547fffffffffffffff000000000000ffffffffffffffffffffffffffffffffffff001665ffffffffffff60981b609884901b1617905560405165ffffffffffff909116815233907ffa9b3c14cc825c412c9ed81b3ba365a5b459439403f18829e572ed53a4180f0a90602090a280f35b602483634e487b7160e01b81526011600452fd5b606460405162461bcd60e51b815260206004820152601160248201527f616c726561647920756e7374616b696e670000000000000000000000000000006044820152fd5b606460405162461bcd60e51b815260206004820152600a60248201527f6e6f74207374616b6564000000000000000000000000000000000000000000006044820152fd5b50602036600319011261013e5761084561084061186d565b611d76565b80f35b503461013e57602036600319011261013e5760043567ffffffffffffffff81116104d557602061087f6108b5923690600401611a2a565b6001600160a01b0361088f611a58565b169085604051809681958294632b870d1b60e11b84528860048501526024840191611d56565b03925af190811561092d5782916001600160a01b0391602494916108fe575b507f6ca7b80600000000000000000000000000000000000000000000000000000000835216600452fd5b610920915060203d602011610926575b61091881836117e9565b810190611d37565b5f6108d4565b503d61090e565b6040513d84823e3d90fd5b503461013e57604036600319011261013e5761095261186d565b5060243567ffffffffffffffff81116104d557610973903690600401611a2a565b505080f35b503461013e578060031936011261013e57610a34906109b67f0000000000000000000000000000000000000000000000000000000000000000612c0d565b906109e07f0000000000000000000000000000000000000000000000000000000000000000612d4f565b906020610a42604051936109f483866117e9565b8385525f3681376040519687967f0f00000000000000000000000000000000000000000000000000000000000000885260e08589015260e0880190611a06565b908682036040880152611a06565b904660608601523060808601528260a086015284820360c08601528080855193848152019401925b828110610a7957505050500390f35b835185528695509381019392810192600101610a6a565b503461013e576101383661199e565b503461013e57602036600319011261013e5760406020916001600160a01b03610ac661186d565b1681528083522054604051908152f35b503461013e57610ae536611897565b9190915a92815193610af78583611f32565b610b0082611b2c565b60208401526040850151936effffffffffffffffffffffffffffff8560c08801511760608801511760808801511760a088015117610100880151176101208801511711610bfd57610b7286610100604082015160608301510160808301510160a08301510160c0830151019101510290565b94610b9a610b835a8888888761248a565b9760206001600160a01b03825116910151906126c5565b15610426575a8303116103d45750610bd193929160a06080925a9560408601526060808601525a9003910135019101525a90611af0565b60738102908082046073149015171561078c576064906060936040519384526020840152046040820152f35b60405162461bcd60e51b815260206004820152601860248201527f41413934206761732076616c756573206f766572666c6f7700000000000000006044820152606490fd5b503461013e57602036600319011261013e57604060a0916001600160a01b03610c6961186d565b8260808551610c778161179c565b82815282602082015282878201528260608201520152168152806020522065ffffffffffff604051610ca88161179c565b63ffffffff60018454948584520154916dffffffffffffffffffffffffffff6020820160ff8516151581526040830190828660081c1682528660806060860195878960781c168752019660981c1686526040519788525115156020880152511660408601525116606084015251166080820152f35b503461013e57604036600319011261013e576020906040610d3c61186d565b916001600160a01b03610d4d611786565b9316815260018452206001600160c01b0382165f52825260405f20546040519167ffffffffffffffff199060401b16178152f35b503461013e57602036600319011261013e576004359067ffffffffffffffff821161013e57610120600319833603011261013e576020610dc383600401611b2c565b604051908152f35b503461013e57606090610ddd36611897565b908392935082936001600160a01b0360e08451610dfa8186611f32565b610e0385611b2c565b6020870152610e3381610100604082015160608301510160808301510160a08301510160c0830151019101510290565b6040870152015116610e56575b5050506040519181835260208301526040820152f35b610e619394506120aa565b9050905f8080610e40565b503461013e57604036600319011261013e57610e8661186d565b60243590338352826020526040832090815491828411610f5057848080866001600160a01b0382968396610eba848b611af0565b9055604080516001600160a01b03831681526020810185905233917fd1c19fbcd4551a5edfb66d43d2e337c04837afda3482b42bdf569a8fccdae5fb91a2165af1610f03611afd565b5015610f0c5780f35b606460405162461bcd60e51b815260206004820152601260248201527f6661696c656420746f20776974686472617700000000000000000000000000006044820152fd5b606460405162461bcd60e51b815260206004820152601960248201527f576974686472617720616d6f756e7420746f6f206c61726765000000000000006044820152fd5b503461013e57604036600319011261013e576001600160c01b036040610fb861186d565b926001600160a01b03610fc9611786565b9416815260016020522091165f52602052602060405f2054604051908152f35b503461013e578060031936011261013e5760206040517f29a0bca4af4be3421398da00295e58e6d7de38cb492214754cb6a47507dd6f8e8152f35b503461013e578060031936011261013e576020610dc3611dcf565b50346113bb576102203660031901126113bb5760043567ffffffffffffffff81116113bb57611072903690600401611827565b3660231901906101c082126113bb57610140604051926110918461179c565b126113bb576040516110a2816117cc565b6024356001600160a01b03811681036113bb57815260443560208201526064356040820152608435606082015260a435608082015260c43560a082015260e43560c0820152610104356001600160a01b03811681036113bb5760e08201526101243561010082015261014435610120820152825261016435602083015260408201916101843583526101a435606082015260808101916101c43583526101e43567ffffffffffffffff81116113bb5761115f903690600401611827565b908251906060820151815190816113cd575b505050505a61020435039251809301905f935a93516101008101516101208201517f59e3bb5c9eacf8e7a9c3802366751badc68d4d97d3e35b1744045784c52f20dd54806113c7575048905b01808210156113bf5750935b6111e86001600160a01b0360e08401511693606084015190830361270c565b01925f928061126e575050516001600160a01b0316935b5a900301010292518381105f14611238576020857fdeadaa51000000000000000000000000000000000000000000000000000000008152fd5b6040945090836112619203906001600160a01b03165f525f60205260405f209081540180915590565b5082519182526020820152f35b90959181968051611282575b5050506111ff565b9197509192505a9660a05a930191825190823b156113bb575f916112e491836040519586809581947f7c627b21000000000000000000000000000000000000000000000000000000008352846004840152608060248401526084830190611a06565b8d8d0260448301528d60648301520393f190816113a6575b5061138a573d896108008211611380575b6040519160208184010160405280835281602084013e6104226040519283926365c8fd4d60e01b8452600484015260606024840152601460648401527f4141353020706f73744f70207265766572746564000000000000000000000000608484015260a0604484015260a4830190611a06565b610800915061130d565b61139d915a9003965a900390519061270c565b905f808061127a565b6113b3919a505f906117e9565b5f985f6112fc565b5f80fd5b9050936111c9565b906111bd565b5f80949360206001600160a01b0383965116910192f1156113f1575f808080611171565b3d6108008111611450575b61042290604051906020818301016040528082525f602083013e6040519182917f462c71b2000000000000000000000000000000000000000000000000000000008352602060048401526024830190611a06565b506108006113fc565b346113bb5760203660031901126113bb576004356001600160c01b03811681036113bb57335f5260016020526001600160c01b0360405f2091165f5260205260405f206114a68154611ae2565b9055005b346113bb575f3660031901126113bb5760206114c4611a58565b6001600160a01b0360405191168152f35b60203660031901126113bb5760043563ffffffff81168091036113bb57335f525f60205260405f209181156117445750600182015463ffffffff8160781c168210611700576dffffffffffffffffffffffffffff9060081c16913483018093116116ec5782156116a8576dffffffffffffffffffffffffffff83116116645754604051611631916115658261179c565b8152600160208083018281526dffffffffffffffffffffffffffff87166040808601918252606086018881525f6080880181815233825295819052919091209551865591519490930180549351915192517fffffffffffffff0000000000000000000000000000000000000000000000000090941660ff951515959095169490941760089190911b6effffffffffffffffffffffffffff00161760789190911b72ffffffff000000000000000000000000000000161760989190911b65ffffffffffff60981b16179055565b60405191825260208201527fa5ae833d0bb1dcd632d98a8b70973e8516812898e19bf27b70071ebc8dc52c0160403392a2005b606460405162461bcd60e51b815260206004820152600e60248201527f7374616b65206f766572666c6f770000000000000000000000000000000000006044820152fd5b606460405162461bcd60e51b815260206004820152601260248201527f6e6f207374616b652073706563696669656400000000000000000000000000006044820152fd5b634e487b7160e01b5f52601160045260245ffd5b606460405162461bcd60e51b815260206004820152601c60248201527f63616e6e6f7420646563726561736520756e7374616b652074696d65000000006044820152fd5b8062461bcd60e51b6064925260206004820152601a60248201527f6d757374207370656369667920756e7374616b652064656c61790000000000006044820152fd5b602435906001600160c01b03821682036113bb57565b60a0810190811067ffffffffffffffff8211176117b857604052565b634e487b7160e01b5f52604160045260245ffd5b610140810190811067ffffffffffffffff8211176117b857604052565b90601f8019910116810190811067ffffffffffffffff8211176117b857604052565b67ffffffffffffffff81116117b857601f01601f191660200190565b81601f820112156113bb5780359061183e8261180b565b9261184c60405194856117e9565b828452602083830101116113bb57815f926020809301838601378301015290565b600435906001600160a01b03821682036113bb57565b35906001600160a01b03821682036113bb57565b6102006003198201126113bb576004359160243567ffffffffffffffff81116113bb5761012081840360031901126113bb57600401916043190160446101c082126113bb57610140604051926118ec8461179c565b126113bb576101a090604051611901816117cc565b61190a82611883565b81526020820135602082015260408201356040820152606082013560608201526080820135608082015260a082013560a082015260c082013560c082015261195460e08301611883565b60e082015261010082013561010082015261012082013561012082015283526101408101356020840152610160810135604084015261018081013560608401520135608082015290565b9060406003198301126113bb5760043567ffffffffffffffff81116113bb5760040182601f820112156113bb5780359267ffffffffffffffff84116113bb576020808301928560051b0101116113bb5791906024356001600160a01b03811681036113bb5790565b805180835260209291819084018484015e5f828201840152601f01601f1916010190565b9181601f840112156113bb5782359167ffffffffffffffff83116113bb57602083818601950101116113bb57565b6040517f09ccb880000000000000000000000000000000000000000000000000000000008152602081600481305afa908115611ad7575f91611a98575090565b90506020813d602011611acf575b81611ab3602093836117e9565b810103126113bb57516001600160a01b03811681036113bb5790565b3d9150611aa6565b6040513d5f823e3d90fd5b5f1981146116ec5760010190565b919082039182116116ec57565b3d15611b27573d90611b0e8261180b565b91611b1c60405193846117e9565b82523d5f602084013e565b606090565b604290611b38816122f0565b611b40611dcf565b91611b4a81611eeb565b918015611c3b57905b60c0611b626060830183611eff565b90816040519182372091611b7960e0820182611eff565b90816040519182372092604051946001600160a01b0360208701977f29a0bca4af4be3421398da00295e58e6d7de38cb492214754cb6a47507dd6f8e895216604087015260208301356060870152608086015260a085015260808101358285015260a081013560e085015201356101008301526101208201526101208152611c03610140826117e9565b519020604051917f19010000000000000000000000000000000000000000000000000000000000008352600283015260228201522090565b50611c496040820182611eff565b90816040519182372090611b53565b5050507f9b779b17422d0df92223018b32b4d1fa46e071723d6817e2486d003becc55f005c611d0f5760017f9b779b17422d0df92223018b32b4d1fa46e071723d6817e2486d003becc55f005d608460405162461bcd60e51b815260206004820152602760248201527f53484f554c44204e4f542042452043414c4c454420445552494e472053494d5560448201527f4c4154494f4e53000000000000000000000000000000000000000000000000006064820152fd5b7f3ee5aeb5000000000000000000000000000000000000000000000000000000005f5260045ffd5b908160209103126113bb57516001600160a01b03811681036113bb5790565b908060209392818452848401375f828201840152601f01601f1916010190565b7f2da466a7b24304f47e87fa2e1e5a81b9831ce54fec19055ce277ca2f39ba42c460206001600160a01b03611dc334856001600160a01b03165f525f60205260405f209081540180915590565b936040519485521692a2565b6001600160a01b037f000000000000000000000000000000000000000000000000000000000000000016301480611ec2575b15611e2a577f000000000000000000000000000000000000000000000000000000000000000090565b60405160208101907f8b73c3c69bb8fe3d512ecc4cf759cc79239f7b179b0ffacaa9a75d522b39400f82527f000000000000000000000000000000000000000000000000000000000000000060408201527f000000000000000000000000000000000000000000000000000000000000000060608201524660808201523060a082015260a08152611ebc60c0826117e9565b51902090565b507f00000000000000000000000000000000000000000000000000000000000000004614611e01565b356001600160a01b03811681036113bb5790565b903590601e19813603018212156113bb570180359067ffffffffffffffff82116113bb576020019181360383136113bb57565b611fb6906001600160a01b03611f4782611eeb565b1683526020810135602084015260808101356fffffffffffffffffffffffffffffffff8160801c91166060850152604084015260a081013560c084015260c08101356fffffffffffffffffffffffffffffffff8160801c911661010085015261012084015260e0810190611eff565b919082611fc257505050565b6034831061206657826014116113bb57803560601c92602481106113bb576014820135906034116113bb576fffffffffffffffffffffffffffffffff60248193013560801c1660a084015260801c16608082015281156120225760e00152565b606460405162461bcd60e51b815260206004820152601660248201527f4141393820696e76616c6964207061796d6173746572000000000000000000006044820152fd5b606460405162461bcd60e51b815260206004820152601d60248201527f4141393320696e76616c6964207061796d6173746572416e64446174610000006044820152fd5b929091925a938051906001600160a01b0360e083015116916120d2604083019384519061272b565b156122a4575f6001600160a01b0360e07f52b7512c0000000000000000000000000000000000000000000000000000000096959461213f608085960151966121316040519c8d926020860151905191602085019d8e5260248501612782565b03601f1981018c528b6117e9565b51015116858289519286f1943d93845f833e51938151604083019788519015918215612298575b508115612286575b506121fd57601f801991011601928360405294955a90031161218e575050565b60a49250631101335b60e11b8252600482015260406024820152602760448201527f41413336206f766572207061796d6173746572566572696669636174696f6e4760648201527f61734c696d6974000000000000000000000000000000000000000000000000006084820152fd5b3d84610800821161227c575b604051916020818401016040528083525f602084013e6104226040519283926365c8fd4d60e01b8452600484015260606024840152600d60648401527f4141333320726576657274656400000000000000000000000000000000000000608484015260a0604484015260a4830190611a06565b6108009150612209565b9050601f605f1983019101105f61216e565b6040141591505f612166565b60848460405190631101335b60e11b8252600482015260406024820152601e60448201527f41413331207061796d6173746572206465706f73697420746f6f206c6f7700006064820152fd5b6122fd6040820182611eff565b90916123098284612864565b156124835761231790611eeb565b60175f80833c5f51907fef010000000000000000000000000000000000000000000000000000000000007fffffff00000000000000000000000000000000000000000000000000000000008316036123f5575060181b91601482116123a35750506040516bffffffffffffffffffffffff19909116602082019081526014825290611ebc6034826117e9565b816014116113bb576040516bffffffffffffffffffffffff199093166020848101918252909392611ebc92849190601319820190601401603484013781015f838201520301601f1981018352826117e9565b3b1561243f57606460405162461bcd60e51b815260206004820152601860248201527f6e6f7420616e204549502d373730322064656c656761746500000000000000006044820152fd5b606460405162461bcd60e51b815260206004820152601260248201527f73656e64657220686173206e6f20636f646500000000000000000000000000006044820152fd5b5050505f90565b92909194938551926001600160a01b0360e081865116956124b96124b16040860186611eff565b908c8b6128a6565b015116915f9215978861268b575b5f60209392612527836125196001600160a01b038896515116986040519889930151878401987f19822f7c000000000000000000000000000000000000000000000000000000008a5260248501612782565b03601f1981018752866117e9565b838287875193f1925f519360203d03612684575b83604052156125ae575050509461255157505050565b61255a9161272b565b156125625750565b60849060405190631101335b60e11b8252600482015260406024820152601760448201527f41413231206469646e2774207061792070726566756e640000000000000000006064820152fd5b8691903b6126025760848260405190631101335b60e11b8252600482015260406024820152601960448201527f41413230206163636f756e74206e6f74206465706c6f796564000000000000006064820152fd5b3d90610800821161267a575b5f906020838601016040528285523e6104226040519283926365c8fd4d60e01b8452600484015260606024840152600d60648401527f4141323320726576657274656400000000000000000000000000000000000000608484015260a0604484015260a4830190611a06565b610800915061260e565b505f61253b565b92509060205f8193878252818352604082205487811183146126ba5750612527825b96935050929350506124c7565b6125279088036126ad565b6001600160a01b03165f52600160205260405f206001600160c01b038260401c165f5260205267ffffffffffffffff60405f209182549261270584611ae2565b9055161490565b90619c40820181111561272557606491600a9103020490565b50505f90565b6001600160a01b03165f525f60205260405f2090815481811061248357039055600190565b9035601e19823603018112156113bb57016020813591019167ffffffffffffffff82116113bb5781360383136113bb57565b61285a60409295949395606083526001600160a01b036127a182611883565b1660608401526020810135608084015261284761283b6127fb6127dc6127c988860186612750565b61012060a08a0152610180890191611d56565b6127e96060860186612750565b888303605f190160c08a015290611d56565b608084013560e087015260a084013561010087015260c084013561012087015261282860e0850185612750565b878303605f190161014089015290611d56565b91610100810190612750565b848303605f190161016086015290611d56565b9460208201520152565b906002116128a157356bffffffffffffffffffffffff19167f77020000000000000000000000000000000000000000000000000000000000001490565b505f90565b929190915f90806128b9575b5050505050565b6001600160a01b0384515116946128d08285612864565b612b5b57853b612b0f5760148210612ac3578260206001600160a01b036128f5611a58565b1660408851015160405180948193632b870d1b60e11b8352856004840152826129238c8b6024840191611d56565b0393f1908115612ab8578491612a99575b506001600160a01b0381168015612a4d578703612a01573b156129b5575060141161013e577fd51a9c61267aa6196961883ecf5ff2da6619c37dac0fa92122513fb32c032d2d9160409150356001600160a01b0360e0602086015195510151166001600160a01b0383519260601c1682526020820152a35f808080806128b2565b60849060405190631101335b60e11b8252600482015260406024820152602060448201527f4141313520696e6974436f6465206d757374206372656174652073656e6465726064820152fd5b60848260405190631101335b60e11b8252600482015260406024820152602060448201527f4141313420696e6974436f6465206d7573742072657475726e2073656e6465726064820152fd5b60848360405190631101335b60e11b8252600482015260406024820152601b60448201527f4141313320696e6974436f6465206661696c6564206f72204f4f4700000000006064820152fd5b612ab2915060203d6020116109265761091881836117e9565b5f612934565b6040513d86823e3d90fd5b60849060405190631101335b60e11b8252600482015260406024820152601760448201527f4141393920696e6974436f646520746f6f20736d616c6c0000000000000000006064820152fd5b60849060405190631101335b60e11b8252600482015260406024820152601f60448201527f414131302073656e64657220616c726561647920636f6e7374727563746564006064820152fd5b5091905060148211612b6e575b50505050565b60406001600160a01b03612b80611a58565b169351015190826014116113bb57833b156113bb575f8094612be796604051978896879586937fc09ad0d900000000000000000000000000000000000000000000000000000000855260048501526040602485015260146044850192601319019101611d56565b0393f18015611ad757612bfd575b808080612b68565b5f612c07916117e9565b5f612bf5565b60ff8114612c6c5760ff811690601f8211612c445760405191612c316040846117e9565b6020808452838101919036833783525290565b7fb3512b0c000000000000000000000000000000000000000000000000000000005f5260045ffd5b506040515f6002548060011c9160018216918215612d45575b602084108314612d31578385528492908115612d125750600114612cb3575b612cb0925003826117e9565b90565b5060025f90815290917f405787fa12a823e0f2b7631cc41b3ba8828b3321ca811111fa75cd3aa3bb5ace5b818310612cf6575050906020612cb092820101612ca4565b6020919350806001915483858801015201910190918392612cde565b60209250612cb094915060ff191682840152151560051b820101612ca4565b634e487b7160e01b5f52602260045260245ffd5b92607f1692612c85565b60ff8114612d735760ff811690601f8211612c445760405191612c316040846117e9565b506040515f6003548060011c9160018216918215612e15575b602084108314612d31578385528492908115612d125750600114612db657612cb0925003826117e9565b5060035f90815290917fc2575a0e9e593c00f959f8c92f12db2869c3395a3b0502d05e2516446f71f85b5b818310612df9575050906020612cb092820101612ca4565b6020919350806001915483858801015201910190918392612de1565b92607f1692612d8c56fea2646970667358221220fe201baccdb83ee752b43a216b2442faa9d6c5ebd162a67571fa4fc1bb9f8fa264736f6c634300081c0033","linkReferences":{}},"methodIdentifiers":{"_accountValidation(uint256,(address,uint256,bytes,bytes,bytes32,uint256,bytes32,bytes,bytes),((address,uint256,uint256,uint256,uint256,uint256,uint256,address,uint256,uint256),bytes32,uint256,uint256,uint256))":"69683cfa","_paymasterValidation(uint256,(address,uint256,bytes,bytes,bytes32,uint256,bytes32,bytes,bytes),((address,uint256,uint256,uint256,uint256,uint256,uint256,address,uint256,uint256),bytes32,uint256,uint256,uint256))":"21e60b37","_validatePrepayment(uint256,(address,uint256,bytes,bytes,bytes32,uint256,bytes32,bytes,bytes),((address,uint256,uint256,uint256,uint256,uint256,uint256,address,uint256,uint256),bytes32,uint256,uint256,uint256),bool)":"c579f76b","addStake(uint32)":"0396cb60","balanceOf(address)":"70a08231","delegateAndRevert(address,bytes)":"850aaf62","depositTo(address)":"b760faf9","eip712Domain()":"84b0196e","getDepositInfo(address)":"5287ce12","getDomainSeparatorV4()":"13c65a6e","getNonce(address,uint192)":"35567e1a","getPackedUserOpTypeHash()":"154e58dc","getSenderAddress(bytes)":"9b249f69","getUserOpHash((address,uint256,bytes,bytes,bytes32,uint256,bytes32,bytes,bytes))":"22cdde4c","handleAggregatedOps(((address,uint256,bytes,bytes,bytes32,uint256,bytes32,bytes,bytes)[],address,bytes)[],address)":"dbed18e0","handleOps((address,uint256,bytes,bytes,bytes32,uint256,bytes32,bytes,bytes)[],address)":"765e827f","incrementNonce(uint192)":"0bd28e3b","innerHandleOp(bytes,((address,uint256,uint256,uint256,uint256,uint256,uint256,address,uint256,uint256),bytes32,uint256,uint256,uint256),bytes,uint256)":"0da82661","nonceSequenceNumber(address,uint192)":"1b2e01b8","senderCreator()":"09ccb880","unlockStake()":"bb9fe6bf","withdrawStake(address)":"c23a5cea","withdrawTo(address,uint256)":"205c2878"},"id":27}