{"abi":[{"type":"constructor","inputs":[],"stateMutability":"nonpayable"},{"type":"receive","stateMutability":"payable"},{"type":"function","name":"_paymasterValidation","inputs":[{"name":"opIndex","type":"uint256","internalType":"uint256"},{"name":"userOp","type":"tuple","internalType":"struct PackedUserOperation","components":[{"name":"sender","type":"address","internalType":"address"},{"name":"nonce","type":"uint256","internalType":"uint256"},{"name":"initCode","type":"bytes","internalType":"bytes"},{"name":"callData","type":"bytes","internalType":"bytes"},{"name":"accountGasLimits","type":"bytes32","internalType":"bytes32"},{"name":"preVerificationGas","type":"uint256","internalType":"uint256"},{"name":"gasFees","type":"bytes32","internalType":"bytes32"},{"name":"paymasterAndData","type":"bytes","internalType":"bytes"},{"name":"signature","type":"bytes","internalType":"bytes"}]},{"name":"outOpInfo","type":"tuple","internalType":"struct EntryPoint.UserOpInfo","components":[{"name":"mUserOp","type":"tuple","internalType":"struct EntryPoint.MemoryUserOp","components":[{"name":"sender","type":"address","internalType":"address"},{"name":"nonce","type":"uint256","internalType":"uint256"},{"name":"verificationGasLimit","type":"uint256","internalType":"uint256"},{"name":"callGasLimit","type":"uint256","internalType":"uint256"},{"name":"paymasterVerificationGasLimit","type":"uint256","internalType":"uint256"},{"name":"paymasterPostOpGasLimit","type":"uint256","internalType":"uint256"},{"name":"preVerificationGas","type":"uint256","internalType":"uint256"},{"name":"paymaster","type":"address","internalType":"address"},{"name":"maxFeePerGas","type":"uint256","internalType":"uint256"},{"name":"maxPriorityFeePerGas","type":"uint256","internalType":"uint256"}]},{"name":"userOpHash","type":"bytes32","internalType":"bytes32"},{"name":"prefund","type":"uint256","internalType":"uint256"},{"name":"contextOffset","type":"uint256","internalType":"uint256"},{"name":"preOpGas","type":"uint256","internalType":"uint256"}]}],"outputs":[{"name":"validationData","type":"uint256","internalType":"uint256"},{"name":"paymasterValidationData","type":"uint256","internalType":"uint256"},{"name":"paymasterVerificationGasLimit","type":"uint256","internalType":"uint256"}],"stateMutability":"nonpayable"},{"type":"function","name":"_validatePrepayment","inputs":[{"name":"opIndex","type":"uint256","internalType":"uint256"},{"name":"userOp","type":"tuple","internalType":"struct PackedUserOperation","components":[{"name":"sender","type":"address","internalType":"address"},{"name":"nonce","type":"uint256","internalType":"uint256"},{"name":"initCode","type":"bytes","internalType":"bytes"},{"name":"callData","type":"bytes","internalType":"bytes"},{"name":"accountGasLimits","type":"bytes32","internalType":"bytes32"},{"name":"preVerificationGas","type":"uint256","internalType":"uint256"},{"name":"gasFees","type":"bytes32","internalType":"bytes32"},{"name":"paymasterAndData","type":"bytes","internalType":"bytes"},{"name":"signature","type":"bytes","internalType":"bytes"}]},{"name":"outOpInfo","type":"tuple","internalType":"struct EntryPoint.UserOpInfo","components":[{"name":"mUserOp","type":"tuple","internalType":"struct EntryPoint.MemoryUserOp","components":[{"name":"sender","type":"address","internalType":"address"},{"name":"nonce","type":"uint256","internalType":"uint256"},{"name":"verificationGasLimit","type":"uint256","internalType":"uint256"},{"name":"callGasLimit","type":"uint256","internalType":"uint256"},{"name":"paymasterVerificationGasLimit","type":"uint256","internalType":"uint256"},{"name":"paymasterPostOpGasLimit","type":"uint256","internalType":"uint256"},{"name":"preVerificationGas","type":"uint256","internalType":"uint256"},{"name":"paymaster","type":"address","internalType":"address"},{"name":"maxFeePerGas","type":"uint256","internalType":"uint256"},{"name":"maxPriorityFeePerGas","type":"uint256","internalType":"uint256"}]},{"name":"userOpHash","type":"bytes32","internalType":"bytes32"},{"name":"prefund","type":"uint256","internalType":"uint256"},{"name":"contextOffset","type":"uint256","internalType":"uint256"},{"name":"preOpGas","type":"uint256","internalType":"uint256"}]},{"name":"validatePaymasterPrepayment","type":"bool","internalType":"bool"}],"outputs":[{"name":"validationData","type":"uint256","internalType":"uint256"},{"name":"paymasterValidationData","type":"uint256","internalType":"uint256"},{"name":"paymasterVerificationGasLimit","type":"uint256","internalType":"uint256"}],"stateMutability":"nonpayable"},{"type":"function","name":"addStake","inputs":[{"name":"unstakeDelaySec","type":"uint32","internalType":"uint32"}],"outputs":[],"stateMutability":"payable"},{"type":"function","name":"balanceOf","inputs":[{"name":"account","type":"address","internalType":"address"}],"outputs":[{"name":"","type":"uint256","internalType":"uint256"}],"stateMutability":"view"},{"type":"function","name":"binarySearchCallGas","inputs":[{"name":"queuedUserOps","type":"tuple[]","internalType":"struct PackedUserOperation[]","components":[{"name":"sender","type":"address","internalType":"address"},{"name":"nonce","type":"uint256","internalType":"uint256"},{"name":"initCode","type":"bytes","internalType":"bytes"},{"name":"callData","type":"bytes","internalType":"bytes"},{"name":"accountGasLimits","type":"bytes32","internalType":"bytes32"},{"name":"preVerificationGas","type":"uint256","internalType":"uint256"},{"name":"gasFees","type":"bytes32","internalType":"bytes32"},{"name":"paymasterAndData","type":"bytes","internalType":"bytes"},{"name":"signature","type":"bytes","internalType":"bytes"}]},{"name":"targetUserOp","type":"tuple","internalType":"struct PackedUserOperation","components":[{"name":"sender","type":"address","internalType":"address"},{"name":"nonce","type":"uint256","internalType":"uint256"},{"name":"initCode","type":"bytes","internalType":"bytes"},{"name":"callData","type":"bytes","internalType":"bytes"},{"name":"accountGasLimits","type":"bytes32","internalType":"bytes32"},{"name":"preVerificationGas","type":"uint256","internalType":"uint256"},{"name":"gasFees","type":"bytes32","internalType":"bytes32"},{"name":"paymasterAndData","type":"bytes","internalType":"bytes"},{"name":"signature","type":"bytes","internalType":"bytes"}]},{"name":"entryPoint","type":"address","internalType":"address"},{"name":"initialMinGas","type":"uint256","internalType":"uint256"},{"name":"toleranceDelta","type":"uint256","internalType":"uint256"},{"name":"gasAllowance","type":"uint256","internalType":"uint256"}],"outputs":[{"name":"","type":"tuple","internalType":"struct IEntryPointSimulations.BinarySearchResult","components":[{"name":"resultType","type":"uint8","internalType":"enum IEntryPointSimulations.BinarySearchResultType"},{"name":"successData","type":"tuple","internalType":"struct IEntryPointSimulations.BinarySearchSuccess","components":[{"name":"gasUsed","type":"uint256","internalType":"uint256"},{"name":"success","type":"bool","internalType":"bool"},{"name":"returnData","type":"bytes","internalType":"bytes"}]},{"name":"outOfGasData","type":"tuple","internalType":"struct IEntryPointSimulations.BinarySearchOutOfGas","components":[{"name":"optimalGas","type":"uint256","internalType":"uint256"},{"name":"minGas","type":"uint256","internalType":"uint256"},{"name":"maxGas","type":"uint256","internalType":"uint256"}]}]}],"stateMutability":"nonpayable"},{"type":"function","name":"binarySearchPaymasterVerificationGas","inputs":[{"name":"queuedUserOps","type":"tuple[]","internalType":"struct PackedUserOperation[]","components":[{"name":"sender","type":"address","internalType":"address"},{"name":"nonce","type":"uint256","internalType":"uint256"},{"name":"initCode","type":"bytes","internalType":"bytes"},{"name":"callData","type":"bytes","internalType":"bytes"},{"name":"accountGasLimits","type":"bytes32","internalType":"bytes32"},{"name":"preVerificationGas","type":"uint256","internalType":"uint256"},{"name":"gasFees","type":"bytes32","internalType":"bytes32"},{"name":"paymasterAndData","type":"bytes","internalType":"bytes"},{"name":"signature","type":"bytes","internalType":"bytes"}]},{"name":"targetUserOp","type":"tuple","internalType":"struct PackedUserOperation","components":[{"name":"sender","type":"address","internalType":"address"},{"name":"nonce","type":"uint256","internalType":"uint256"},{"name":"initCode","type":"bytes","internalType":"bytes"},{"name":"callData","type":"bytes","internalType":"bytes"},{"name":"accountGasLimits","type":"bytes32","internalType":"bytes32"},{"name":"preVerificationGas","type":"uint256","internalType":"uint256"},{"name":"gasFees","type":"bytes32","internalType":"bytes32"},{"name":"paymasterAndData","type":"bytes","internalType":"bytes"},{"name":"signature","type":"bytes","internalType":"bytes"}]},{"name":"entryPoint","type":"address","internalType":"address"},{"name":"initialMinGas","type":"uint256","internalType":"uint256"},{"name":"toleranceDelta","type":"uint256","internalType":"uint256"},{"name":"gasAllowance","type":"uint256","internalType":"uint256"}],"outputs":[{"name":"","type":"tuple","internalType":"struct IEntryPointSimulations.BinarySearchResult","components":[{"name":"resultType","type":"uint8","internalType":"enum IEntryPointSimulations.BinarySearchResultType"},{"name":"successData","type":"tuple","internalType":"struct IEntryPointSimulations.BinarySearchSuccess","components":[{"name":"gasUsed","type":"uint256","internalType":"uint256"},{"name":"success","type":"bool","internalType":"bool"},{"name":"returnData","type":"bytes","internalType":"bytes"}]},{"name":"outOfGasData","type":"tuple","internalType":"struct IEntryPointSimulations.BinarySearchOutOfGas","components":[{"name":"optimalGas","type":"uint256","internalType":"uint256"},{"name":"minGas","type":"uint256","internalType":"uint256"},{"name":"maxGas","type":"uint256","internalType":"uint256"}]}]}],"stateMutability":"nonpayable"},{"type":"function","name":"binarySearchVerificationGas","inputs":[{"name":"queuedUserOps","type":"tuple[]","internalType":"struct PackedUserOperation[]","components":[{"name":"sender","type":"address","internalType":"address"},{"name":"nonce","type":"uint256","internalType":"uint256"},{"name":"initCode","type":"bytes","internalType":"bytes"},{"name":"callData","type":"bytes","internalType":"bytes"},{"name":"accountGasLimits","type":"bytes32","internalType":"bytes32"},{"name":"preVerificationGas","type":"uint256","internalType":"uint256"},{"name":"gasFees","type":"bytes32","internalType":"bytes32"},{"name":"paymasterAndData","type":"bytes","internalType":"bytes"},{"name":"signature","type":"bytes","internalType":"bytes"}]},{"name":"targetUserOp","type":"tuple","internalType":"struct PackedUserOperation","components":[{"name":"sender","type":"address","internalType":"address"},{"name":"nonce","type":"uint256","internalType":"uint256"},{"name":"initCode","type":"bytes","internalType":"bytes"},{"name":"callData","type":"bytes","internalType":"bytes"},{"name":"accountGasLimits","type":"bytes32","internalType":"bytes32"},{"name":"preVerificationGas","type":"uint256","internalType":"uint256"},{"name":"gasFees","type":"bytes32","internalType":"bytes32"},{"name":"paymasterAndData","type":"bytes","internalType":"bytes"},{"name":"signature","type":"bytes","internalType":"bytes"}]},{"name":"entryPoint","type":"address","internalType":"address"},{"name":"initialMinGas","type":"uint256","internalType":"uint256"},{"name":"toleranceDelta","type":"uint256","internalType":"uint256"},{"name":"gasAllowance","type":"uint256","internalType":"uint256"}],"outputs":[{"name":"","type":"tuple","internalType":"struct IEntryPointSimulations.BinarySearchResult","components":[{"name":"resultType","type":"uint8","internalType":"enum IEntryPointSimulations.BinarySearchResultType"},{"name":"successData","type":"tuple","internalType":"struct IEntryPointSimulations.BinarySearchSuccess","components":[{"name":"gasUsed","type":"uint256","internalType":"uint256"},{"name":"success","type":"bool","internalType":"bool"},{"name":"returnData","type":"bytes","internalType":"bytes"}]},{"name":"outOfGasData","type":"tuple","internalType":"struct IEntryPointSimulations.BinarySearchOutOfGas","components":[{"name":"optimalGas","type":"uint256","internalType":"uint256"},{"name":"minGas","type":"uint256","internalType":"uint256"},{"name":"maxGas","type":"uint256","internalType":"uint256"}]}]}],"stateMutability":"nonpayable"},{"type":"function","name":"delegateAndRevert","inputs":[{"name":"target","type":"address","internalType":"address"},{"name":"data","type":"bytes","internalType":"bytes"}],"outputs":[],"stateMutability":"nonpayable"},{"type":"function","name":"depositTo","inputs":[{"name":"account","type":"address","internalType":"address"}],"outputs":[],"stateMutability":"payable"},{"type":"function","name":"eip712Domain","inputs":[],"outputs":[{"name":"fields","type":"bytes1","internalType":"bytes1"},{"name":"name","type":"string","internalType":"string"},{"name":"version","type":"string","internalType":"string"},{"name":"chainId","type":"uint256","internalType":"uint256"},{"name":"verifyingContract","type":"address","internalType":"address"},{"name":"salt","type":"bytes32","internalType":"bytes32"},{"name":"extensions","type":"uint256[]","internalType":"uint256[]"}],"stateMutability":"view"},{"type":"function","name":"getCurrentUserOpHash","inputs":[],"outputs":[{"name":"","type":"bytes32","internalType":"bytes32"}],"stateMutability":"view"},{"type":"function","name":"getDepositInfo","inputs":[{"name":"account","type":"address","internalType":"address"}],"outputs":[{"name":"info","type":"tuple","internalType":"struct IStakeManager.DepositInfo","components":[{"name":"deposit","type":"uint256","internalType":"uint256"},{"name":"staked","type":"bool","internalType":"bool"},{"name":"stake","type":"uint112","internalType":"uint112"},{"name":"unstakeDelaySec","type":"uint32","internalType":"uint32"},{"name":"withdrawTime","type":"uint48","internalType":"uint48"}]}],"stateMutability":"view"},{"type":"function","name":"getDomainSeparatorV4","inputs":[],"outputs":[{"name":"","type":"bytes32","internalType":"bytes32"}],"stateMutability":"view"},{"type":"function","name":"getNonce","inputs":[{"name":"sender","type":"address","internalType":"address"},{"name":"key","type":"uint192","internalType":"uint192"}],"outputs":[{"name":"nonce","type":"uint256","internalType":"uint256"}],"stateMutability":"view"},{"type":"function","name":"getPackedUserOpTypeHash","inputs":[],"outputs":[{"name":"","type":"bytes32","internalType":"bytes32"}],"stateMutability":"pure"},{"type":"function","name":"getSenderAddress","inputs":[{"name":"initCode","type":"bytes","internalType":"bytes"}],"outputs":[],"stateMutability":"nonpayable"},{"type":"function","name":"getUserOpHash","inputs":[{"name":"userOp","type":"tuple","internalType":"struct PackedUserOperation","components":[{"name":"sender","type":"address","internalType":"address"},{"name":"nonce","type":"uint256","internalType":"uint256"},{"name":"initCode","type":"bytes","internalType":"bytes"},{"name":"callData","type":"bytes","internalType":"bytes"},{"name":"accountGasLimits","type":"bytes32","internalType":"bytes32"},{"name":"preVerificationGas","type":"uint256","internalType":"uint256"},{"name":"gasFees","type":"bytes32","internalType":"bytes32"},{"name":"paymasterAndData","type":"bytes","internalType":"bytes"},{"name":"signature","type":"bytes","internalType":"bytes"}]}],"outputs":[{"name":"","type":"bytes32","internalType":"bytes32"}],"stateMutability":"view"},{"type":"function","name":"handleAggregatedOps","inputs":[{"name":"opsPerAggregator","type":"tuple[]","internalType":"struct IEntryPoint.UserOpsPerAggregator[]","components":[{"name":"userOps","type":"tuple[]","internalType":"struct PackedUserOperation[]","components":[{"name":"sender","type":"address","internalType":"address"},{"name":"nonce","type":"uint256","internalType":"uint256"},{"name":"initCode","type":"bytes","internalType":"bytes"},{"name":"callData","type":"bytes","internalType":"bytes"},{"name":"accountGasLimits","type":"bytes32","internalType":"bytes32"},{"name":"preVerificationGas","type":"uint256","internalType":"uint256"},{"name":"gasFees","type":"bytes32","internalType":"bytes32"},{"name":"paymasterAndData","type":"bytes","internalType":"bytes"},{"name":"signature","type":"bytes","internalType":"bytes"}]},{"name":"aggregator","type":"address","internalType":"contract IAggregator"},{"name":"signature","type":"bytes","internalType":"bytes"}]},{"name":"beneficiary","type":"address","internalType":"address payable"}],"outputs":[],"stateMutability":"nonpayable"},{"type":"function","name":"handleOps","inputs":[{"name":"ops","type":"tuple[]","internalType":"struct PackedUserOperation[]","components":[{"name":"sender","type":"address","internalType":"address"},{"name":"nonce","type":"uint256","internalType":"uint256"},{"name":"initCode","type":"bytes","internalType":"bytes"},{"name":"callData","type":"bytes","internalType":"bytes"},{"name":"accountGasLimits","type":"bytes32","internalType":"bytes32"},{"name":"preVerificationGas","type":"uint256","internalType":"uint256"},{"name":"gasFees","type":"bytes32","internalType":"bytes32"},{"name":"paymasterAndData","type":"bytes","internalType":"bytes"},{"name":"signature","type":"bytes","internalType":"bytes"}]},{"name":"beneficiary","type":"address","internalType":"address payable"}],"outputs":[],"stateMutability":"nonpayable"},{"type":"function","name":"incrementNonce","inputs":[{"name":"key","type":"uint192","internalType":"uint192"}],"outputs":[],"stateMutability":"nonpayable"},{"type":"function","name":"innerHandleOp","inputs":[{"name":"callData","type":"bytes","internalType":"bytes"},{"name":"opInfo","type":"tuple","internalType":"struct EntryPoint.UserOpInfo","components":[{"name":"mUserOp","type":"tuple","internalType":"struct EntryPoint.MemoryUserOp","components":[{"name":"sender","type":"address","internalType":"address"},{"name":"nonce","type":"uint256","internalType":"uint256"},{"name":"verificationGasLimit","type":"uint256","internalType":"uint256"},{"name":"callGasLimit","type":"uint256","internalType":"uint256"},{"name":"paymasterVerificationGasLimit","type":"uint256","internalType":"uint256"},{"name":"paymasterPostOpGasLimit","type":"uint256","internalType":"uint256"},{"name":"preVerificationGas","type":"uint256","internalType":"uint256"},{"name":"paymaster","type":"address","internalType":"address"},{"name":"maxFeePerGas","type":"uint256","internalType":"uint256"},{"name":"maxPriorityFeePerGas","type":"uint256","internalType":"uint256"}]},{"name":"userOpHash","type":"bytes32","internalType":"bytes32"},{"name":"prefund","type":"uint256","internalType":"uint256"},{"name":"contextOffset","type":"uint256","internalType":"uint256"},{"name":"preOpGas","type":"uint256","internalType":"uint256"}]},{"name":"context","type":"bytes","internalType":"bytes"},{"name":"preGas","type":"uint256","internalType":"uint256"}],"outputs":[{"name":"actualGasCost","type":"uint256","internalType":"uint256"},{"name":"paymasterPostOpGasLimit","type":"uint256","internalType":"uint256"}],"stateMutability":"nonpayable"},{"type":"function","name":"nonceSequenceNumber","inputs":[{"name":"","type":"address","internalType":"address"},{"name":"","type":"uint192","internalType":"uint192"}],"outputs":[{"name":"","type":"uint256","internalType":"uint256"}],"stateMutability":"view"},{"type":"function","name":"senderCreator","inputs":[],"outputs":[{"name":"","type":"address","internalType":"contract ISenderCreator"}],"stateMutability":"view"},{"type":"function","name":"simulateCall","inputs":[{"name":"entryPoint","type":"address","internalType":"address"},{"name":"payload","type":"bytes","internalType":"bytes"},{"name":"gas","type":"uint256","internalType":"uint256"}],"outputs":[{"name":"success","type":"bool","internalType":"bool"},{"name":"result","type":"bytes","internalType":"bytes"}],"stateMutability":"nonpayable"},{"type":"function","name":"simulateCallAndRevert","inputs":[{"name":"target","type":"address","internalType":"address"},{"name":"data","type":"bytes","internalType":"bytes"},{"name":"gas","type":"uint256","internalType":"uint256"}],"outputs":[],"stateMutability":"nonpayable"},{"type":"function","name":"simulateHandleOp","inputs":[{"name":"queuedUserOps","type":"tuple[]","internalType":"struct PackedUserOperation[]","components":[{"name":"sender","type":"address","internalType":"address"},{"name":"nonce","type":"uint256","internalType":"uint256"},{"name":"initCode","type":"bytes","internalType":"bytes"},{"name":"callData","type":"bytes","internalType":"bytes"},{"name":"accountGasLimits","type":"bytes32","internalType":"bytes32"},{"name":"preVerificationGas","type":"uint256","internalType":"uint256"},{"name":"gasFees","type":"bytes32","internalType":"bytes32"},{"name":"paymasterAndData","type":"bytes","internalType":"bytes"},{"name":"signature","type":"bytes","internalType":"bytes"}]},{"name":"targetUserOp","type":"tuple","internalType":"struct PackedUserOperation","components":[{"name":"sender","type":"address","internalType":"address"},{"name":"nonce","type":"uint256","internalType":"uint256"},{"name":"initCode","type":"bytes","internalType":"bytes"},{"name":"callData","type":"bytes","internalType":"bytes"},{"name":"accountGasLimits","type":"bytes32","internalType":"bytes32"},{"name":"preVerificationGas","type":"uint256","internalType":"uint256"},{"name":"gasFees","type":"bytes32","internalType":"bytes32"},{"name":"paymasterAndData","type":"bytes","internalType":"bytes"},{"name":"signature","type":"bytes","internalType":"bytes"}]}],"outputs":[{"name":"","type":"tuple","internalType":"struct IEntryPointSimulations.ExecutionResult","components":[{"name":"preOpGas","type":"uint256","internalType":"uint256"},{"name":"paid","type":"uint256","internalType":"uint256"},{"name":"accountValidationData","type":"uint256","internalType":"uint256"},{"name":"paymasterValidationData","type":"uint256","internalType":"uint256"},{"name":"paymasterVerificationGasLimit","type":"uint256","internalType":"uint256"},{"name":"paymasterPostOpGasLimit","type":"uint256","internalType":"uint256"},{"name":"targetSuccess","type":"bool","internalType":"bool"},{"name":"targetResult","type":"bytes","internalType":"bytes"}]}],"stateMutability":"nonpayable"},{"type":"function","name":"simulateHandleOpSingle","inputs":[{"name":"op","type":"tuple","internalType":"struct PackedUserOperation","components":[{"name":"sender","type":"address","internalType":"address"},{"name":"nonce","type":"uint256","internalType":"uint256"},{"name":"initCode","type":"bytes","internalType":"bytes"},{"name":"callData","type":"bytes","internalType":"bytes"},{"name":"accountGasLimits","type":"bytes32","internalType":"bytes32"},{"name":"preVerificationGas","type":"uint256","internalType":"uint256"},{"name":"gasFees","type":"bytes32","internalType":"bytes32"},{"name":"paymasterAndData","type":"bytes","internalType":"bytes"},{"name":"signature","type":"bytes","internalType":"bytes"}]},{"name":"target","type":"address","internalType":"address"},{"name":"targetCallData","type":"bytes","internalType":"bytes"}],"outputs":[{"name":"","type":"tuple","internalType":"struct IEntryPointSimulations.ExecutionResult","components":[{"name":"preOpGas","type":"uint256","internalType":"uint256"},{"name":"paid","type":"uint256","internalType":"uint256"},{"name":"accountValidationData","type":"uint256","internalType":"uint256"},{"name":"paymasterValidationData","type":"uint256","internalType":"uint256"},{"name":"paymasterVerificationGasLimit","type":"uint256","internalType":"uint256"},{"name":"paymasterPostOpGasLimit","type":"uint256","internalType":"uint256"},{"name":"targetSuccess","type":"bool","internalType":"bool"},{"name":"targetResult","type":"bytes","internalType":"bytes"}]}],"stateMutability":"nonpayable"},{"type":"function","name":"simulateValidation","inputs":[{"name":"queuedUserOps","type":"tuple[]","internalType":"struct PackedUserOperation[]","components":[{"name":"sender","type":"address","internalType":"address"},{"name":"nonce","type":"uint256","internalType":"uint256"},{"name":"initCode","type":"bytes","internalType":"bytes"},{"name":"callData","type":"bytes","internalType":"bytes"},{"name":"accountGasLimits","type":"bytes32","internalType":"bytes32"},{"name":"preVerificationGas","type":"uint256","internalType":"uint256"},{"name":"gasFees","type":"bytes32","internalType":"bytes32"},{"name":"paymasterAndData","type":"bytes","internalType":"bytes"},{"name":"signature","type":"bytes","internalType":"bytes"}]},{"name":"targetUserOp","type":"tuple","internalType":"struct PackedUserOperation","components":[{"name":"sender","type":"address","internalType":"address"},{"name":"nonce","type":"uint256","internalType":"uint256"},{"name":"initCode","type":"bytes","internalType":"bytes"},{"name":"callData","type":"bytes","internalType":"bytes"},{"name":"accountGasLimits","type":"bytes32","internalType":"bytes32"},{"name":"preVerificationGas","type":"uint256","internalType":"uint256"},{"name":"gasFees","type":"bytes32","internalType":"bytes32"},{"name":"paymasterAndData","type":"bytes","internalType":"bytes"},{"name":"signature","type":"bytes","internalType":"bytes"}]}],"outputs":[{"name":"","type":"tuple","internalType":"struct IEntryPointSimulations.ValidationResult","components":[{"name":"returnInfo","type":"tuple","internalType":"struct IEntryPoint.ReturnInfo","components":[{"name":"preOpGas","type":"uint256","internalType":"uint256"},{"name":"prefund","type":"uint256","internalType":"uint256"},{"name":"accountValidationData","type":"uint256","internalType":"uint256"},{"name":"paymasterValidationData","type":"uint256","internalType":"uint256"},{"name":"paymasterContext","type":"bytes","internalType":"bytes"}]},{"name":"senderInfo","type":"tuple","internalType":"struct IStakeManager.StakeInfo","components":[{"name":"stake","type":"uint256","internalType":"uint256"},{"name":"unstakeDelaySec","type":"uint256","internalType":"uint256"}]},{"name":"factoryInfo","type":"tuple","internalType":"struct IStakeManager.StakeInfo","components":[{"name":"stake","type":"uint256","internalType":"uint256"},{"name":"unstakeDelaySec","type":"uint256","internalType":"uint256"}]},{"name":"paymasterInfo","type":"tuple","internalType":"struct IStakeManager.StakeInfo","components":[{"name":"stake","type":"uint256","internalType":"uint256"},{"name":"unstakeDelaySec","type":"uint256","internalType":"uint256"}]},{"name":"aggregatorInfo","type":"tuple","internalType":"struct IEntryPoint.AggregatorStakeInfo","components":[{"name":"aggregator","type":"address","internalType":"address"},{"name":"stakeInfo","type":"tuple","internalType":"struct IStakeManager.StakeInfo","components":[{"name":"stake","type":"uint256","internalType":"uint256"},{"name":"unstakeDelaySec","type":"uint256","internalType":"uint256"}]}]}]}],"stateMutability":"nonpayable"},{"type":"function","name":"simulateValidation","inputs":[{"name":"userOp","type":"tuple","internalType":"struct PackedUserOperation","components":[{"name":"sender","type":"address","internalType":"address"},{"name":"nonce","type":"uint256","internalType":"uint256"},{"name":"initCode","type":"bytes","internalType":"bytes"},{"name":"callData","type":"bytes","internalType":"bytes"},{"name":"accountGasLimits","type":"bytes32","internalType":"bytes32"},{"name":"preVerificationGas","type":"uint256","internalType":"uint256"},{"name":"gasFees","type":"bytes32","internalType":"bytes32"},{"name":"paymasterAndData","type":"bytes","internalType":"bytes"},{"name":"signature","type":"bytes","internalType":"bytes"}]}],"outputs":[{"name":"","type":"tuple","internalType":"struct IEntryPointSimulations.ValidationResult","components":[{"name":"returnInfo","type":"tuple","internalType":"struct IEntryPoint.ReturnInfo","components":[{"name":"preOpGas","type":"uint256","internalType":"uint256"},{"name":"prefund","type":"uint256","internalType":"uint256"},{"name":"accountValidationData","type":"uint256","internalType":"uint256"},{"name":"paymasterValidationData","type":"uint256","internalType":"uint256"},{"name":"paymasterContext","type":"bytes","internalType":"bytes"}]},{"name":"senderInfo","type":"tuple","internalType":"struct IStakeManager.StakeInfo","components":[{"name":"stake","type":"uint256","internalType":"uint256"},{"name":"unstakeDelaySec","type":"uint256","internalType":"uint256"}]},{"name":"factoryInfo","type":"tuple","internalType":"struct IStakeManager.StakeInfo","components":[{"name":"stake","type":"uint256","internalType":"uint256"},{"name":"unstakeDelaySec","type":"uint256","internalType":"uint256"}]},{"name":"paymasterInfo","type":"tuple","internalType":"struct IStakeManager.StakeInfo","components":[{"name":"stake","type":"uint256","internalType":"uint256"},{"name":"unstakeDelaySec","type":"uint256","internalType":"uint256"}]},{"name":"aggregatorInfo","type":"tuple","internalType":"struct IEntryPoint.AggregatorStakeInfo","components":[{"name":"aggregator","type":"address","internalType":"address"},{"name":"stakeInfo","type":"tuple","internalType":"struct IStakeManager.StakeInfo","components":[{"name":"stake","type":"uint256","internalType":"uint256"},{"name":"unstakeDelaySec","type":"uint256","internalType":"uint256"}]}]}]}],"stateMutability":"nonpayable"},{"type":"function","name":"supportsInterface","inputs":[{"name":"interfaceId","type":"bytes4","internalType":"bytes4"}],"outputs":[{"name":"","type":"bool","internalType":"bool"}],"stateMutability":"view"},{"type":"function","name":"unlockStake","inputs":[],"outputs":[],"stateMutability":"nonpayable"},{"type":"function","name":"withdrawStake","inputs":[{"name":"withdrawAddress","type":"address","internalType":"address payable"}],"outputs":[],"stateMutability":"nonpayable"},{"type":"function","name":"withdrawTo","inputs":[{"name":"withdrawAddress","type":"address","internalType":"address payable"},{"name":"withdrawAmount","type":"uint256","internalType":"uint256"}],"outputs":[],"stateMutability":"nonpayable"},{"type":"event","name":"AccountDeployed","inputs":[{"name":"userOpHash","type":"bytes32","indexed":true,"internalType":"bytes32"},{"name":"sender","type":"address","indexed":true,"internalType":"address"},{"name":"factory","type":"address","indexed":false,"internalType":"address"},{"name":"paymaster","type":"address","indexed":false,"internalType":"address"}],"anonymous":false},{"type":"event","name":"BeforeExecution","inputs":[],"anonymous":false},{"type":"event","name":"Deposited","inputs":[{"name":"account","type":"address","indexed":true,"internalType":"address"},{"name":"totalDeposit","type":"uint256","indexed":false,"internalType":"uint256"}],"anonymous":false},{"type":"event","name":"EIP712DomainChanged","inputs":[],"anonymous":false},{"type":"event","name":"EIP7702AccountInitialized","inputs":[{"name":"userOpHash","type":"bytes32","indexed":true,"internalType":"bytes32"},{"name":"sender","type":"address","indexed":true,"internalType":"address"},{"name":"delegate","type":"address","indexed":true,"internalType":"address"}],"anonymous":false},{"type":"event","name":"IgnoredInitCode","inputs":[{"name":"userOpHash","type":"bytes32","indexed":true,"internalType":"bytes32"},{"name":"sender","type":"address","indexed":true,"internalType":"address"},{"name":"unusedFactory","type":"address","indexed":false,"internalType":"address"}],"anonymous":false},{"type":"event","name":"PostOpRevertReason","inputs":[{"name":"userOpHash","type":"bytes32","indexed":true,"internalType":"bytes32"},{"name":"sender","type":"address","indexed":true,"internalType":"address"},{"name":"nonce","type":"uint256","indexed":false,"internalType":"uint256"},{"name":"revertReason","type":"bytes","indexed":false,"internalType":"bytes"}],"anonymous":false},{"type":"event","name":"SignatureAggregatorChanged","inputs":[{"name":"aggregator","type":"address","indexed":true,"internalType":"address"}],"anonymous":false},{"type":"event","name":"StakeLocked","inputs":[{"name":"account","type":"address","indexed":true,"internalType":"address"},{"name":"totalStaked","type":"uint256","indexed":false,"internalType":"uint256"},{"name":"unstakeDelaySec","type":"uint256","indexed":false,"internalType":"uint256"}],"anonymous":false},{"type":"event","name":"StakeUnlocked","inputs":[{"name":"account","type":"address","indexed":true,"internalType":"address"},{"name":"withdrawTime","type":"uint256","indexed":false,"internalType":"uint256"}],"anonymous":false},{"type":"event","name":"StakeWithdrawn","inputs":[{"name":"account","type":"address","indexed":true,"internalType":"address"},{"name":"withdrawAddress","type":"address","indexed":false,"internalType":"address"},{"name":"amount","type":"uint256","indexed":false,"internalType":"uint256"}],"anonymous":false},{"type":"event","name":"UserOperationEvent","inputs":[{"name":"userOpHash","type":"bytes32","indexed":true,"internalType":"bytes32"},{"name":"sender","type":"address","indexed":true,"internalType":"address"},{"name":"paymaster","type":"address","indexed":true,"internalType":"address"},{"name":"nonce","type":"uint256","indexed":false,"internalType":"uint256"},{"name":"success","type":"bool","indexed":false,"internalType":"bool"},{"name":"actualGasCost","type":"uint256","indexed":false,"internalType":"uint256"},{"name":"actualGasUsed","type":"uint256","indexed":false,"internalType":"uint256"}],"anonymous":false},{"type":"event","name":"UserOperationPrefundTooLow","inputs":[{"name":"userOpHash","type":"bytes32","indexed":true,"internalType":"bytes32"},{"name":"sender","type":"address","indexed":true,"internalType":"address"},{"name":"nonce","type":"uint256","indexed":false,"internalType":"uint256"}],"anonymous":false},{"type":"event","name":"UserOperationRevertReason","inputs":[{"name":"userOpHash","type":"bytes32","indexed":true,"internalType":"bytes32"},{"name":"sender","type":"address","indexed":true,"internalType":"address"},{"name":"nonce","type":"uint256","indexed":false,"internalType":"uint256"},{"name":"revertReason","type":"bytes","indexed":false,"internalType":"bytes"}],"anonymous":false},{"type":"event","name":"Withdrawn","inputs":[{"name":"account","type":"address","indexed":true,"internalType":"address"},{"name":"withdrawAddress","type":"address","indexed":false,"internalType":"address"},{"name":"amount","type":"uint256","indexed":false,"internalType":"uint256"}],"anonymous":false},{"type":"error","name":"CallPhaseReverted","inputs":[{"name":"reason","type":"bytes","internalType":"bytes"}]},{"type":"error","name":"DelegateAndRevert","inputs":[{"name":"success","type":"bool","internalType":"bool"},{"name":"ret","type":"bytes","internalType":"bytes"}]},{"type":"error","name":"DepositWithdrawalFailed","inputs":[{"name":"account","type":"address","internalType":"address"},{"name":"withdrawAddress","type":"address","internalType":"address"},{"name":"amount","type":"uint256","internalType":"uint256"},{"name":"revertReason","type":"bytes","internalType":"bytes"}]},{"type":"error","name":"Eip7702SenderNotDelegate","inputs":[{"name":"sender","type":"address","internalType":"address"}]},{"type":"error","name":"Eip7702SenderWithoutCode","inputs":[{"name":"sender","type":"address","internalType":"address"}]},{"type":"error","name":"FailedOp","inputs":[{"name":"opIndex","type":"uint256","internalType":"uint256"},{"name":"reason","type":"string","internalType":"string"}]},{"type":"error","name":"FailedOpWithRevert","inputs":[{"name":"opIndex","type":"uint256","internalType":"uint256"},{"name":"reason","type":"string","internalType":"string"},{"name":"inner","type":"bytes","internalType":"bytes"}]},{"type":"error","name":"InsufficientDeposit","inputs":[{"name":"currentDeposit","type":"uint256","internalType":"uint256"},{"name":"withdrawAmount","type":"uint256","internalType":"uint256"}]},{"type":"error","name":"InvalidPaymaster","inputs":[{"name":"paymaster","type":"address","internalType":"address"}]},{"type":"error","name":"InvalidPaymasterData","inputs":[{"name":"paymasterAndDataLength","type":"uint256","internalType":"uint256"}]},{"type":"error","name":"InvalidPaymasterSignatureLength","inputs":[{"name":"dataLength","type":"uint256","internalType":"uint256"},{"name":"pmSignatureLength","type":"uint256","internalType":"uint256"}]},{"type":"error","name":"InvalidShortString","inputs":[]},{"type":"error","name":"InvalidStake","inputs":[{"name":"msgValue","type":"uint256","internalType":"uint256"},{"name":"currentStake","type":"uint256","internalType":"uint256"}]},{"type":"error","name":"InvalidUnstakeDelay","inputs":[{"name":"newUnstakeDelaySec","type":"uint256","internalType":"uint256"},{"name":"currentUnstakeDelaySec","type":"uint256","internalType":"uint256"}]},{"type":"error","name":"NotStaked","inputs":[{"name":"currentStake","type":"uint256","internalType":"uint256"},{"name":"unstakeDelaySec","type":"uint256","internalType":"uint256"},{"name":"staked","type":"bool","internalType":"bool"}]},{"type":"error","name":"PostOpReverted","inputs":[{"name":"returnData","type":"bytes","internalType":"bytes"}]},{"type":"error","name":"Reentrancy","inputs":[]},{"type":"error","name":"SenderAddressResult","inputs":[{"name":"sender","type":"address","internalType":"address"}]},{"type":"error","name":"SignatureValidationFailed","inputs":[{"name":"aggregator","type":"address","internalType":"address"}]},{"type":"error","name":"StakeNotUnlocked","inputs":[{"name":"withdrawTime","type":"uint256","internalType":"uint256"},{"name":"blockTimestamp","type":"uint256","internalType":"uint256"}]},{"type":"error","name":"StakeWithdrawalFailed","inputs":[{"name":"account","type":"address","internalType":"address"},{"name":"withdrawAddress","type":"address","internalType":"address"},{"name":"amount","type":"uint256","internalType":"uint256"},{"name":"revertReason","type":"bytes","internalType":"bytes"}]},{"type":"error","name":"StringTooLong","inputs":[{"name":"str","type":"string","internalType":"string"}]},{"type":"error","name":"WithdrawalNotDue","inputs":[{"name":"withdrawTime","type":"uint256","internalType":"uint256"},{"name":"blockTimestamp","type":"uint256","internalType":"uint256"}]},{"type":"error","name":"innerCallResult","inputs":[{"name":"remainingGas","type":"uint256","internalType":"uint256"}]}],"bytecode":{"object":"0x6101a06040523461020e5760405161001860408261022d565b600781526020810190664552433433333760c81b82526040519161003d60408461022d565b600183526020830191603160f81b835261005681610250565b61012052610063846103eb565b61014052519020918260e05251902080610100524660a0526040519060208201927f8b73c3c69bb8fe3d512ecc4cf759cc79239f7b179b0ffacaa9a75d522b39400f8452604083015260608201524660808201523060a082015260a081526100cc60c08261022d565b5190206080523060c0526040516103ee8082016001600160401b038111838210176101fa578291615abc833903905ff080156101ef5761016052306101805260405161011781610212565b5f815260208101905f825280602060405161013181610212565b5f81520152600480546001600160a01b031916905551600555516006556040516155989081610524823960805181612ee7015260a05181612fa4015260c05181612eb8015260e05181612f3601526101005181612f5c015261012051816111310152610140518161115a01526101605181505061018051818181612cf8015281816131410152818161319b015281816133830152818161343701528181613490015281816135a001528181613654015281816136ad01526137bd0152f35b6040513d5f823e3d90fd5b634e487b7160e01b5f52604160045260245ffd5b5f80fd5b604081019081106001600160401b038211176101fa57604052565b601f909101601f19168101906001600160401b038211908210176101fa57604052565b908151602081105f146102ca575090601f81511161028a57602081519101516020821061027b571790565b5f198260200360031b1b161790565b604460209160405192839163305a27a960e01b83528160048401528051918291826024860152018484015e5f828201840152601f01601f19168101030190fd5b6001600160401b0381116101fa57600254600181811c911680156103e1575b60208210146103cd57601f811161039a575b50602092601f821160011461033957928192935f9261032e575b50508160011b915f199060031b1c19161760025560ff90565b015190505f80610315565b601f1982169360025f52805f20915f5b868110610382575083600195961061036a575b505050811b0160025560ff90565b01515f1960f88460031b161c191690555f808061035c565b91926020600181928685015181550194019201610349565b60025f52601f60205f20910160051c810190601f830160051c015b8181106103c257506102fb565b5f81556001016103b5565b634e487b7160e01b5f52602260045260245ffd5b90607f16906102e9565b908151602081105f14610416575090601f81511161028a57602081519101516020821061027b571790565b6001600160401b0381116101fa57600354600181811c91168015610519575b60208210146103cd57601f81116104e6575b50602092601f821160011461048557928192935f9261047a575b50508160011b915f199060031b1c19161760035560ff90565b015190505f80610461565b601f1982169360035f52805f20915f5b8681106104ce57508360019596106104b6575b505050811b0160035560ff90565b01515f1960f88460031b161c191690555f80806104a8565b91926020600181928685015181550194019201610495565b60035f52601f60205f20910160051c810190601f830160051c015b81811061050e5750610447565b5f8155600101610501565b90607f169061043556fe60806040526004361015610022575b3615610018575f80fd5b610020612df1565b005b5f3560e01c806301ffc9a71461022c5780630396cb601461022757806309ccb880146102225780630bd28e3b1461021d5780630da826611461021857806313c65a6e14610213578063154e58dc1461020e5780631b2e01b814610209578063205c287814610204578063212eccc6146101ff57806321e60b37146101fa57806322cdde4c146101f557806335567e1a146101f057806344403473146101eb5780635287ce12146101e657806370a08231146101e1578063765e827f146101965780637da0c462146101dc57806384b0196e146101d7578063850aaf62146101d25780639b249f69146101cd578063acbe911e146101c8578063aec321fb146101c3578063af324943146101be578063b0a398d1146101b9578063b760faf9146101b4578063bb9fe6bf146101af578063c23a5cea146101aa578063c3bce009146101a5578063c579f76b146101a0578063d72f25931461019b578063dbed18e0146101965763f7e426e80361000e57611a54565b610f79565b611a34565b6117e6565b6117c8565b61168f565b611592565b611572565b611556565b6114e1565b61148a565b611356565b611275565b611232565b611119565b610fef565b610f05565b610df8565b610db3565b610cd7565b610cbf565b610bbe565b610b77565b610951565b6108f4565b6108ba565b610898565b61076c565b6104d8565b610497565b61029b565b34610297576020366003190112610297576004357fffffffff000000000000000000000000000000000000000000000000000000008116809103610297576020907f01ffc9a70000000000000000000000000000000000000000000000000000000060405191148152f35b5f80fd5b60203660031901126102975760043563ffffffff811690818103610297576104887fa5ae833d0bb1dcd632d98a8b70973e8516812898e19bf27b70071ebc8dc52c019161046a6103456102fe336001600160a01b03165f525f60205260405f2090565b956103366001880154918561031a8463ffffffff9060781c1690565b916103288383831515611a8d565b63ffffffff83161115611a8d565b60081c6001600160701b031690565b9461037b61035c346001600160701b038916611b04565b9661036a81348a1515611b11565b346001600160701b03891115611b11565b546103846105dc565b908152600160208201526001600160701b038616604082015263ffffffff831660608201525f60808201526103c9336001600160a01b03165f525f60205260405f2090565b81518155602082015160019091018054604084015160608501516080909501517fffffffffffffff0000000000000000000000000000000000000000000000000090921660ff941515949094169390931760089390931b6effffffffffffffffffffffffffff00169290921760789390931b72ffffffff000000000000000000000000000000169290921760989190911b65ffffffffffff60981b16179055565b6040805194855263ffffffff90911660208501523393918291820190565b0390a2005b5f91031261029757565b34610297575f3660031901126102975760206104b1611b5e565b6001600160a01b0360405191168152f35b602435906001600160c01b038216820361029757565b34610297576020366003190112610297576004356001600160c01b03811681036102975761052290335f52600160205260405f20906001600160c01b03165f5260205260405f2090565b61052c8154611bd3565b9055005b634e487b7160e01b5f52604160045260245ffd5b60a0810190811067ffffffffffffffff82111761056057604052565b610530565b6060810190811067ffffffffffffffff82111761056057604052565b610140810190811067ffffffffffffffff82111761056057604052565b6040810190811067ffffffffffffffff82111761056057604052565b90601f8019910116810190811067ffffffffffffffff82111761056057604052565b604051906105eb60a0836105ba565b565b604051906105eb610140836105ba565b604051906105eb6040836105ba565b604051906105eb6060836105ba565b604051906105eb610120836105ba565b67ffffffffffffffff811161056057601f01601f191660200190565b9291926106538261062b565b9161066160405193846105ba565b829481845281830111610297578281602093845f960137010152565b9080601f830112156102975781602061069893359101610647565b90565b6001600160a01b0381160361029757565b35906105eb8261069b565b60431901906101c08212610297576040516106d181610544565b610140819312610297576106e36105ed565b6106ed60446106ac565b81526064356020820152608435604082015260a435606082015260c435608082015260e43560a08201526101043560c082015261072b6101246106ac565b60e0820152610144356101008201526101643561012082015281526101843560208201526101a43560408201526101c435606082015260806101e435910152565b34610297576102203660031901126102975760043567ffffffffffffffff81116102975761079e90369060040161067d565b3660231901906101c0821261029757610140604051926107bd84610544565b12610297576107ca6105ed565b6107d460246106ac565b815260443560208201526064356040820152608435606082015260a435608082015260c43560a082015260e43560c08201526108116101046106ac565b60e0820152610124356101008201526101443561012082015282526101643560208301526101843560408301526101a43560608301526101c43560808301526101e4359167ffffffffffffffff83116102975761087561088093369060040161067d565b906102043592611be1565b604080519283526020830191909152819081015b0390f35b34610297575f3660031901126102975760206108b2612eae565b604051908152f35b34610297575f3660031901126102975760206040517f29a0bca4af4be3421398da00295e58e6d7de38cb492214754cb6a47507dd6f8e8152f35b346102975760403660031901126102975760206109486004356109168161069b565b6001600160a01b036109266104c2565b91165f526001835260405f20906001600160c01b03165f5260205260405f2090565b54604051908152f35b346102975760403660031901126102975760043561096e8161069b565b60243590335f525f60205260405f20918254928382116109f5576109958261002095611e4b565b9055604080516001600160a01b03841681526020810183905233917fd1c19fbcd4551a5edfb66d43d2e337c04837afda3482b42bdf569a8fccdae5fb91a25f808080846001600160a01b0387165af1916109ed611e6c565b923390611ec9565b50827f25c3f46e000000000000000000000000000000000000000000000000000000005f5260045260245260445ffd5b9181601f840112156102975782359167ffffffffffffffff8311610297576020808501948460051b01011161029757565b90816101209103126102975790565b60c06003198201126102975760043567ffffffffffffffff81116102975781610a9091600401610a25565b929092916024359067ffffffffffffffff821161029757610ab391600401610a56565b90604435610ac08161069b565b90606435906084359060a43590565b634e487b7160e01b5f52602160045260245ffd5b805180835260209291819084018484015e5f828201840152601f01601f1916010190565b6020815281516002811015610b7257602082015260a0604080610b568160208701518582880152805160c08801526020810151151560e088015201516060610100870152610120860190610ae3565b9401518051606085015260208101516080850152015191015290565b610acf565b3461029757610894610bb2610ba4610b8e36610a65565b9691949095610b9e949394611f2f565b50612fca565b610bad81613057565b6130e9565b60405191829182610b07565b34610297576102003660031901126102975760243560043567ffffffffffffffff821161029757610bf6610894923690600401610a56565b610bff366106b7565b905f926001600160a01b0360e08451610c1881866138a7565b610c2185611f70565b6020870152610c5181610100604082015160608301510160808301510160a08301510160c0830151019101510290565b6040870152015116610c80575b5050506040519182918260405f91939293606081019483825260208201520152565b610c8a9350613997565b90505f8080610c5e565b6020600319820112610297576004359067ffffffffffffffff82116102975761069891600401610a56565b346102975760206108b2610cd236610c94565b611f70565b34610297576040366003190112610297576020600435610cf68161069b565b6001600160a01b03610d066104c2565b91165f5260018252610d2c8160405f20906001600160c01b03165f5260205260405f2090565b546040805192901b67ffffffffffffffff1916178152f35b9181601f840112156102975782359167ffffffffffffffff8311610297576020838186019501011161029757565b90606060031983011261029757600435610d8b8161069b565b916024359067ffffffffffffffff821161029757610dab91600401610d44565b909160443590565b34610297575f8080610dc436610d72565b939181604094929451948592833781018381520393f1610de2611e6c565b9015610dea57005b805190811561029757602001fd5b34610297576020366003190112610297576001600160a01b03600435610e1d8161069b565b5f6080604051610e2c81610544565b8281528260208201528260408201528260608201520152165f525f60205261089460405f20610eb165ffffffffffff600160405193610e6a85610544565b80548552015460ff8116151560208501526001600160701b038160081c16604085015263ffffffff8160781c16606085015260981c16608083019065ffffffffffff169052565b60405191829182919091608065ffffffffffff8160a0840195805185526020810151151560208601526001600160701b03604082015116604086015263ffffffff6060820151166060860152015116910152565b34610297576020366003190112610297576001600160a01b03600435610f2a8161069b565b165f525f602052602060405f2054604051908152f35b6040600319820112610297576004359067ffffffffffffffff821161029757610f6b91600401610a25565b90916024356106988161069b565b3461029757610f8736610f40565b916120c3565b61012060e0610698936020845280516020850152602081015160408501526040810151606085015260608101516080850152608081015160a085015260a081015160c085015260c0810151151582850152015191610100808201520190610ae3565b346102975760603660031901126102975760043567ffffffffffffffff811161029757611020903690600401610a56565b60243561102c8161069b565b6044359167ffffffffffffffff83116102975761105061089493369060040161067d565b9161105961216f565b506110626121bd565b928261106e8594613057565b61108561107b858361297e565b9291969093613c42565b9290965f946060966001600160a01b0381166110ee575b50509560806110dd9697015197604051986110b96101008b6105ba565b8952602089015260408801526060870152608086015260a0850152151560c0840152565b60e082015260405191829182610f8d565b6110dd97505f92965090829182602083519301915af195608061110f611e6c565b979591979661109c565b34610297575f366003190112610297576111d96111557f0000000000000000000000000000000000000000000000000000000000000000614b80565b61117e7f0000000000000000000000000000000000000000000000000000000000000000614c66565b602060405161118d82826105ba565b5f8152816111e781830194601f1983013687376040519788977f0f00000000000000000000000000000000000000000000000000000000000000895260e0858a015260e0890190610ae3565b908782036040890152610ae3565b914660608701523060808701525f60a087015285830360c087015251918281520192915f5b82811061121b57505050500390f35b83518552869550938101939281019260010161120c565b346102975760403660031901126102975761124e60043561069b565b60243567ffffffffffffffff81116102975761126e903690600401610d44565b5050612104565b346102975760203660031901126102975760043567ffffffffffffffff81116102975760206112ab6112db923690600401610d44565b906001600160a01b036112bc611b5e565b16905f604051809681958294632b870d1b60e11b8452600484016122d9565b03925af18015611351576001600160a01b03915f91611322575b507f6ca7b806000000000000000000000000000000000000000000000000000000005f521660045260245ffd5b611344915060203d60201161134a575b61133c81836105ba565b8101906122a4565b5f6112f5565b503d611332565b611b53565b3461029757610894610bb261136a36610a65565b9594909493919361236a565b60406003198201126102975760043567ffffffffffffffff811161029757816113a191600401610a25565b929092916024359067ffffffffffffffff82116102975761069891600401610a56565b6106989060208152610100608061141d81865161014060208701528051610160870152602081015161018087015260408101516101a087015260608101516101c0870152015160a06101e0860152610200850190610ae3565b60208087015180516040870152015160608501529461144d60408201518386019060208091805184520151910152565b6060810151805160c08601526020015160e0850152015191019080516001600160a01b031682526020908101518051828401520151604090910152565b346102975761149836611376565b91906114a2612437565b505f5b8181106114c4576108946114b88561275c565b604051918291826113c4565b806114da6114d560019385876124cd565b61275c565b50016114a5565b34610297576114ef36611376565b91906114f961216f565b506020905f5b81811061153057610894611524866040519061151c6020836105ba565b5f825261222c565b60405191829182610f8d565b8061154f61154160019385886124cd565b6040519061151c87836105ba565b50016114ff565b34610297575f3660031901126102975760205f5c604051908152f35b60203660031901126102975761002060043561158d8161069b565b6124f5565b34610297575f36600319011261029757335f525f602052600160405f200161165261161861160a6115fb61160163ffffffff86546001600160701b038160081c166115e48263ffffffff9060781c1690565b948592838360ff831696879360781c16151561254e565b8261254e565b63ffffffff1690565b65ffffffffffff421661259c565b82547fffffffffffffff000000000000ffffffffffffffffffffffffffffffffffff001665ffffffffffff60981b609883901b1617909255565b60405165ffffffffffff909116815233907ffa9b3c14cc825c412c9ed81b3ba365a5b459439403f18829e572ed53a4180f0a908060208101610488565b34610297576020366003190112610297576100206004356116af8161069b565b60016116cb336001600160a01b03165f525f60205260405f2090565b0161176a8154916117426117216116ec856001600160701b039060081c1690565b946117136001600160701b03871696607883901c63ffffffff1660ff84169189151561254e565b60981c65ffffffffffff1690565b65ffffffffffff81169061173842828415156125ba565b42914210156125fa565b80547fffffffffffffff000000000000000000000000000000000000000000000000ff169055565b604080516001600160a01b03841681526020810183905233917fb7c918e0e249f999e965cafeb6c664271b3f4317d296461500e71da39f0cbda391a25f808080846001600160a01b0387165af1916117c0611e6c565b92339061263a565b34610297576108946114b86114d536610c94565b8015150361029757565b34610297576102203660031901126102975760043560243567ffffffffffffffff81116102975761181b903690600401610a56565b90611825366106b7565b9061020435611833816117dc565b5f925a815161184281886138a7565b61185b60405161185189611f70565b6020860152604052565b6040810151946118a3816effffffffffffffffffffffffffffff8860c08601511760608601511760808601511760a086015117610100860151176101208601511711156128c0565b6118ee6118d183610100604082015160608301510160808301510160a08301510160c0830151019101510290565b8060408701526118e560808b013560801c90565b90868b85614063565b956119178261191261190786516001600160a01b031690565b602087015190614146565b612914565b5a8403116119e2576060946001600160a01b0361193f60e05a9501516001600160a01b031690565b16151590816119da575b506119a5575b509560a060809261197861197161196c610894999a9b5a90611e4b565b612968565b6064900490565b9560608601525a900391013501910152604051938493846040919493926060820195825260208201520152565b610894959650879194506080926119786119716119c88761196c9c60a096613997565b9b9098959b9a9950505050925061194f565b90505f611949565b60408051631101335b60e11b815260048101929092526024820152601e60448201527f41413236206f76657220766572696669636174696f6e4761734c696d69740000606482015280608481015b0390fd5b3461029757610894610bb2611a4836610a65565b95949094939193612b4a565b3461029757611a6e611a6536610d72565b92919091612ca3565b9061089460405192839215158352604060208401526040830190610ae3565b15611a96575050565b9063ffffffff80927fe1823bce000000000000000000000000000000000000000000000000000000005f52166004521660245260445ffd5b634e487b7160e01b5f52601160045260245ffd5b906113888201809211611af157565b611ace565b9060018201809211611af157565b91908201809211611af157565b15611b1a575050565b6001600160701b0392507f0e10009c000000000000000000000000000000000000000000000000000000005f526004521660245260445ffd5b6040513d5f823e3d90fd5b6040517f09ccb880000000000000000000000000000000000000000000000000000000008152602081600481305afa908115611351575f91611b9e575090565b90506020813d602011611bcb575b81611bb9602093836105ba565b8101031261029757516106988161069b565b3d9150611bac565b5f198114611af15760010190565b9392909193825190606082015181519081611dc5575b505050505a9003608082015101925f935a91835191611c1583614194565b92611c2a60e08201516001600160a01b031690565b91611c40608088015182036060840151906141b4565b01925f926001600160a01b0381169081611cdc5750505090611c6d6040949392516001600160a01b031690565b945b5a9003010102920151908282105f14611cb357611c8b5f612e27565b7fdeadaa51000000000000000000000000000000000000000000000000000000005f5260205ffd5b82611cd79203906001600160a01b03165f525f60205260405f209081540180915590565b509190565b96928251611cf3575b505050906040939291611c6f565b919950949392505a98611d055f612e27565b60a05a920195865191813b15610297578692835f809489611d58604051988997889687947f7c627b2100000000000000000000000000000000000000000000000000000000865202908660048601612e31565b0393f19081611dab575b50611d8b57611a30611d72612dfa565b6040519182916365c8fd4d60e01b835260048301612e63565b604094611da1915a9003995a90039051906141b4565b9192935f80611ce5565b80611db95f611dbf936105ba565b8061048d565b5f611d62565b5f80949360206001600160a01b0383965116910192f115611de9575f808080611bf7565b611a30611df4612dfa565b6040519182917f462c71b2000000000000000000000000000000000000000000000000000000008352602060048401526024830190610ae3565b600319810191908211611af157565b5f19810191908211611af157565b91908203918211611af157565b60405190611e676020836105ba565b5f8252565b3d15611e96573d90611e7d8261062b565b91611e8b60405193846105ba565b82523d5f602084013e565b606090565b90926001600160a01b0360809381610698979616845216602083015260408201528160608201520190610ae3565b93919392909215611eda5750505050565b90611a30916040519485947f9f3d693300000000000000000000000000000000000000000000000000000000865260048601611e9b565b60405190611f1e82610565565b5f6040838281528260208201520152565b60405190611f3c82610565565b815f8152604051611f4c81610565565b5f81525f60208201526060604082015260208201526040611f6b611f11565b910152565b61069890611f7d81613a9f565b611f85612eae565b91612067813592611f958461069b565b60208301359080156120a35761205990935b611fbd611fb760608301836122ea565b9061531e565b90608081013560a082013590611fe5611fdf60c08501359460e08101906122ea565b90615329565b93604051988997602089019b8c94919261010096939998979491996001600160a01b0361012088019b7f29a0bca4af4be3421398da00295e58e6d7de38cb492214754cb6a47507dd6f8e895216602088015260408701526060860152608085015260a084015260c083015260e08201520152565b03601f1981018352826105ba565b51902090604291604051917f19010000000000000000000000000000000000000000000000000000000000008352600283015260228201522090565b506120596120b460408501856122ea565b90816040519182372093611fa7565b505050333214806120fb575b612104577fab143c06000000000000000000000000000000000000000000000000000000005f5260045ffd5b50333b156120cf565b60405162461bcd60e51b815260206004820152602760248201527f53484f554c44204e4f542042452043414c4c454420445552494e472053494d5560448201527f4c4154494f4e53000000000000000000000000000000000000000000000000006064820152608490fd5b60405190610100820182811067ffffffffffffffff82111761056057604052606060e0835f81525f60208201525f60408201525f838201525f60808201525f60a08201525f60c08201520152565b604051906121ca82610544565b5f6080836040516121da81610581565b83815283602082015283604082015283606082015283838201528360a08201528360c08201528360e0820152836101008201528361012082015281528260208201528260408201528260608201520152565b905061223661216f565b5060806122636122446121bd565b9261224e81613057565b83612259818361297e565b9491929093613c42565b94909501519460405195612279610100886105ba565b8652602086015260408501526060840152608083015260a08201525f60c0820152606060e082015290565b9081602091031261029757516106988161069b565b908060209392818452848401375f828201840152601f01601f1916010190565b9160206106989381815201916122b9565b903590601e1981360301821215610297570180359067ffffffffffffffff82116102975760200191813603831361029757565b6040519061232c6020836105ba565b5f808352366020840137565b906123428261062b565b61234f60405191826105ba565b8281528092612360601f199161062b565b0190602036910137565b95949392919095612379611f2f565b5061238760608301836122ea565b9050156123bd576106989661239b91612fca565b6123b56123a66121bd565b6123af83613057565b8261297e565b5050506133fd565b505050505050506123cc61231d565b604051906123d982610565565b5f82525f602083015260408201526040516123f381610565565b5f81525f60208201525f60408201526040519161240f83610565565b5f83526020830152604082015290565b6040519061242c8261059e565b5f6020838281520152565b6040519061244482610544565b8160405161245181610544565b5f81525f60208201525f60408201525f606082015260606080820152815261247761241f565b602082015261248461241f565b604082015261249161241f565b60608201526080604051916124a58361059e565b5f83526124b061241f565b60208401520152565b634e487b7160e01b5f52603260045260245ffd5b91908110156124f05760051b8101359061011e1981360301821215610297570190565b6124b9565b7f2da466a7b24304f47e87fa2e1e5a81b9831ce54fec19055ce277ca2f39ba42c460206001600160a01b0361254234856001600160a01b03165f525f60205260405f209081540180915590565b936040519485521692a2565b1561255857505050565b906001600160701b0363ffffffff927f8421e8e5000000000000000000000000000000000000000000000000000000005f521660045216602452151560445260645ffd5b9065ffffffffffff8091169116019065ffffffffffff8211611af157565b156125c3575050565b65ffffffffffff907ffbd021d6000000000000000000000000000000000000000000000000000000005f521660045260245260445ffd5b15612603575050565b65ffffffffffff907f561d3312000000000000000000000000000000000000000000000000000000005f521660045260245260445ffd5b9391939290921561264b5750505050565b90611a30916040519485947f0dcf087c00000000000000000000000000000000000000000000000000000000865260048601611e9b565b906014116102975790601490565b909291928360141161029757831161029757601401916013190190565b909291928360341161029757831161029757603401916033190190565b90939293848311610297578411610297578101920390565b356bffffffffffffffffffffffff19811692919060148210612702575050565b6bffffffffffffffffffffffff1960149290920360031b82901b16169150565b6040519061272f8261059e565b6004546001600160a01b0316825260405160208361274c8361059e565b6005548352600654828401520152565b612764612437565b5061276d6121bd565b9061277781613057565b612781828261297e565b5091909261278f8385613ce2565b6127ac6127a760e0835101516001600160a01b031690565b613f40565b916127da6127c66127a784516001600160a01b0390511690565b916127cf61241f565b5060408101906122ea565b90601482106128b5576127fc6127f6612802936127a793612682565b906126e2565b60601c90565b916001600160a01b0386169460808201519660606040840151930151926128276105dc565b9889526020890152604088015260608701526080860152612846612722565b93801515806128aa575b612878575b5061285e6105dc565b948552602085015260408401526060830152608082015290565b90935061288481613f40565b61289e61288f6105fd565b6001600160a01b039093168352565b6020820152925f612855565b506001811415612850565b50506128025f613f40565b156128c85750565b60849060405190631101335b60e11b8252600482015260406024820152601860448201527f41413934206761732076616c756573206f766572666c6f7700000000000000006064820152fd5b1561291c5750565b60849060405190631101335b60e11b8252600482015260406024820152601a60448201527f4141323520696e76616c6964206163636f756e74206e6f6e63650000000000006064820152fd5b90607382029180830460731490151715611af157565b9190915f915a9380519261299284826138a7565b6129ab6040516129a183611f70565b6020850152604052565b6040840151956129f35f6effffffffffffffffffffffffffffff8960c08901511760608901511760808901511760a089015117610100890151176101208901511711156128c0565b612a3e612a2186610100604082015160608301510160808301510160a08301510160c0830151019101510290565b806040860152612a35608085013560801c90565b9085855f614063565b96612a625f611912612a5789516001600160a01b031690565b60208a015190614146565b5a820311612af7576060946001600160a01b03612a8a60e05a9301516001600160a01b031690565b16151580612aef575b612ac1575b60809291612aaf61197161196c60a0945a90611e4b565b9660608601525a900391013501910152565b945061196c95509060a0608092612aaf611971612adf87865f613997565b9a90999450505050919250612a98565b506001612a93565b604051631101335b60e11b815280611a305f60048301608091815260406020820152601e60408201527f41413236206f76657220766572696669636174696f6e4761734c696d6974000060608201520190565b95949392919095612b59611f2f565b506014612b6960e08401846122ea565b905010612ba45761069896612b9691610b9e612b836121bd565b612b8e8151876138a7565b5a9086613f80565b612b9f81613057565b61361a565b50505050505050612bb361231d565b60405190612bc082610565565b5f82525f60208301526040820152612bd661060c565b5f81525f60208201525f6040820152612bed61060c565b915f83526020830152604082015290565b6040906001600160a01b03610698959316815281602082015201916122b9565b9081518110156124f0570160200190565b9190604083820312610297578251612c46816117dc565b9260208101519067ffffffffffffffff8211610297570181601f8201121561029757805190612c748261062b565b92612c8260405194856105ba565b8284526020838301011161029757815f9260208093018386015e8301015290565b91925f936001600160a01b036060941691823b1561029757612d21935f80946040518097819682957f850aaf620000000000000000000000000000000000000000000000000000000084526001600160a01b037f00000000000000000000000000000000000000000000000000000000000000001660048501612bfe565b0393f19081612ddd575b50612dcb575050612d3a611e6c565b906004825110612dcf57612d56612d518351611e2e565b612338565b60045b8351811015612db55780612d98612d7260019387612c1e565b517fff000000000000000000000000000000000000000000000000000000000000001690565b612dae612da483611e2e565b915f1a9185612c1e565b5301612d59565b50612dcb91925060208082518301019101612c2f565b9091565b9050612dd961231d565b5f91565b80611db95f612deb936105ba565b5f612d2b565b6105eb336124f5565b3d6108008111612e1e575b604051906020818301016040528082525f602083013e90565b50610800612e05565b60031115610b7257565b90949392946003811015610b7257606092612e59918352608060208401526080830190610ae3565b9460408201520152565b9060a0610698925f815260606020820152601460608201527f4141353020706f73744f7020726576657274656400000000000000000000000060808201528160408201520190610ae3565b6001600160a01b037f000000000000000000000000000000000000000000000000000000000000000016301480612fa1575b15612f09577f000000000000000000000000000000000000000000000000000000000000000090565b60405160208101907f8b73c3c69bb8fe3d512ecc4cf759cc79239f7b179b0ffacaa9a75d522b39400f82527f000000000000000000000000000000000000000000000000000000000000000060408201527f000000000000000000000000000000000000000000000000000000000000000060608201524660808201523060a082015260a08152612f9b60c0826105ba565b51902090565b507f00000000000000000000000000000000000000000000000000000000000000004614612ee0565b5f5b828110612fd857505050565b600190612fe36121bd565b612fee8286866124cd565b612ff781613057565b613001828261297e565b50505061301160608201826122ea565b9050156130465761302a5f9291602084930151906141d3565b9082602083519301915af15061303e611e6c565b505b01612fcc565b5050613040565b356106988161069b565b61308a9061306860408201826122ea565b916130828135916130788361069b565b60e08101906122ea565b93909261426c565b80516130935750565b611a3090604051918291631101335b60e11b83525f6004840152604060248401526044830190610ae3565b9392916130e4906001600160a01b03604093168652606060208701526060860190610ae3565b930152565b9390946130f4611f2f565b5082156133635761313492613107611e58565b50915f6131165a8860036145fd565b5a906040519687928392631efc84dd60e31b84528c600485016130be565b0381836001600160a01b037f0000000000000000000000000000000000000000000000000000000000000000165af1908115611351575f945f92613344575b508194809281156133225750506131909095929394955b85611b04565b806001600160a01b037f000000000000000000000000000000000000000000000000000000000000000016965b846131c88885611e4b565b106132f3575a6131d788611ae2565b1161329a5791889391879695935f8c8b6132096132006131fa886132299f611b04565b60011c90565b809a60036145fd565b835a936040519e8f9586948593631efc84dd60e31b8552600485016130be565b03925af1988915611351575f905f9a613273575b501561325e5750505061324f83611e3d565b95915b939495919290926131bd565b9396509361326d919750611af6565b94613252565b90506132929199503d805f833e61328a81836105ba565b810190612c2f565b98905f61323d565b509550939550505093506132ac61231d565b926132b561060c565b935f85525f602086015260408501526132cc61060c565b928352602083015260408201526132e161060c565b60018152916020830152604082015290565b965096505091955050613315915061330961060c565b93845215156020840152565b6040820152612bd661060c565b9650965050509450505061331561333761060c565b5f81529215156020840152565b90945061335b91503d805f833e61328a81836105ba565b90935f613173565b61337692505a5f6131165a8860036145fd565b0381836001600160a01b037f0000000000000000000000000000000000000000000000000000000000000000165af1928315611351575f945f946133db575b5083946133c481935a90611e4b565b94811561332257505061319090959293949561318a565b9093506133f39194503d805f833e61328a81836105ba565b939093925f6133b5565b939094613408611f2f565b5082156135805761342a9261341b611e58565b50915f6131165a8860016145fd565b0381836001600160a01b037f0000000000000000000000000000000000000000000000000000000000000000165af1908115611351575f945f92613561575b5081948092811561332257505061348590959293949585611b04565b806001600160a01b037f000000000000000000000000000000000000000000000000000000000000000016965b846134bd8885611e4b565b106132f3575a6134cc88611ae2565b1161329a5791889391879695935f8c8b6132096134ef6131fa886134f89f611b04565b809a60016145fd565b03925af1988915611351575f905f9a613542575b501561352d5750505061351e83611e3d565b95915b939495919290926134b2565b9396509361353c919750611af6565b94613521565b90506135599199503d805f833e61328a81836105ba565b98905f61350c565b90945061357891503d805f833e61328a81836105ba565b90935f613469565b61359392505a5f6131165a8860016145fd565b0381836001600160a01b037f0000000000000000000000000000000000000000000000000000000000000000165af1928315611351575f945f946135f8575b5083946135e181935a90611e4b565b94811561332257505061348590959293949561318a565b9093506136109194503d805f833e61328a81836105ba565b939093925f6135d2565b939094613625611f2f565b50821561379d5761364792613638611e58565b50915f6131165a8860026145fd565b0381836001600160a01b037f0000000000000000000000000000000000000000000000000000000000000000165af1908115611351575f945f9261377e575b508194809281156133225750506136a290959293949585611b04565b806001600160a01b037f000000000000000000000000000000000000000000000000000000000000000016965b846136da8885611e4b565b106132f3575a6136e988611ae2565b1161329a5791889391879695935f8c8b61320961370c6131fa886137159f611b04565b809a60026145fd565b03925af1988915611351575f905f9a61375f575b501561374a5750505061373b83611e3d565b95915b939495919290926136cf565b93965093613759919750611af6565b9461373e565b90506137769199503d805f833e61328a81836105ba565b98905f613729565b90945061379591503d805f833e61328a81836105ba565b90935f613686565b6137b092505a5f6131165a8860026145fd565b0381836001600160a01b037f0000000000000000000000000000000000000000000000000000000000000000165af1928315611351575f945f94613815575b5083946137fe81935a90611e4b565b9481156133225750506136a290959293949561318a565b90935061382d9194503d805f833e61328a81836105ba565b939093925f6137ef565b1561383f5750565b7f120aaab5000000000000000000000000000000000000000000000000000000005f5260045260245ffd5b156138725750565b6001600160a01b03907fd8ccb292000000000000000000000000000000000000000000000000000000005f521660045260245ffd5b61393e906138c46138b78261304d565b6001600160a01b03168452565b602081013560208401526138f16080820135906fffffffffffffffffffffffffffffffff8260801c921690565b6060850152604084015260a081013560c084015261392860c0820135906fffffffffffffffffffffffffffffffff8260801c921690565b61010085015261012084015260e08101906122ea565b8092919261394b57505050565b613968816105eb9461396382603460e0961015613837565b61483e565b60a0850152608084015291613988836001600160a01b038116151561386a565b01906001600160a01b03169052565b929091925a9380516139bb6001600160a01b0360e083015116604084015190614876565b15613a2b579060806139d09201519483614953565b9390945a9003116139de5750565b60408051631101335b60e11b815260048101929092526024820152602060448201527f41413336206f76657220706d566572696669636174696f6e4761734c696d69746064820152608490fd5b60848360405190631101335b60e11b8252600482015260406024820152601e60448201527f41413331207061796d6173746572206465706f73697420746f6f206c6f7700006064820152fd5b909280926014946bffffffffffffffffffffffff199060601b1683528483013701015f815290565b613aac60408201826122ea565b9091613abf613abb8385614a6b565b1590565b613b2f57613acf613ad49161304d565b614aad565b9160148211613b0b575050604051612f9b816120596020820194856014916bffffffffffffffffffffffff199060601b1681520190565b81612f9b92613b1992612690565b9190612059604051938492602084019687613a77565b5050505f90565b9035601e198236030181121561029757016020813591019167ffffffffffffffff821161029757813603831361029757565b61069891613b8681613b79846106ac565b6001600160a01b03169052565b60208201356020820152613c1c613c10613bd7613bbc613ba96040870187613b36565b61012060408801526101208701916122b9565b613bc96060870187613b36565b9086830360608801526122b9565b6080850135608085015260a085013560a085015260c085013560c0850152613c0260e0860186613b36565b9085830360e08701526122b9565b92610100810190613b36565b916101008185039101526122b9565b9291906130e4602091604086526040860190613b68565b90602081019182515f5d5a91606081015191613c6160608201826122ea565b5f60038211613cda575b7fffffffff0000000000000000000000000000000000000000000000000000000016638dd7712f60e01b03613cc9575050613cc4612dcb955191612059604051938492638dd7712f60e01b602085015260248401613c2b565b611be1565b612dcb9650613cc492503691610647565b508135613c6b565b613cf36001600160a01b0391614d1e565b92909116613eed57613e435750613d116001600160a01b0391614d1e565b92909116613df057613d205750565b613d9d57604051631101335b60e11b815280611a305f6004830160a091815260406020820152602160408201527f41413332207061796d61737465722065787069726564206f72206e6f7420647560608201527f650000000000000000000000000000000000000000000000000000000000000060808201520190565b604051631101335b60e11b815280611a305f60048301608091815260406020820152602060408201527f41413337207061796d617374657220696e76616c20626c6f636b2072616e676560608201520190565b604051631101335b60e11b815280611a305f60048301608091815260406020820152601460408201527f41413334207369676e6174757265206572726f7200000000000000000000000060608201520190565b613e9a57604051631101335b60e11b815280611a305f60048301608091815260406020820152601760408201527f414132322065787069726564206f72206e6f742064756500000000000000000060608201520190565b604051631101335b60e11b815280611a305f60048301608091815260406020820152601e60408201527f41413237206f7574736964652076616c696420626c6f636b2072616e6765000060608201520190565b604051631101335b60e11b815280611a305f60048301608091815260406020820152601460408201527f41413234207369676e6174757265206572726f7200000000000000000000000060608201520190565b906001600160a01b03613f5161241f565b92165f525f60205263ffffffff600160405f2001546001600160701b038160081c16845260781c166020830152565b9291613fc4908251926001600160a01b0360e08186511695613fb0613fa860408b018b6122ea565b90865f614e18565b015116905f91159687614030575b5f615217565b92613fcc5750565b5f613fd691614876565b15613fdd57565b604051631101335b60e11b815280611a305f60048301608091815260406020820152601760408201527f41413231206469646e2774207061792070726566756e6400000000000000000060608201520190565b915061404c856001600160a01b03165f525f60205260405f2090565b54801561405c57505f5b91613fbe565b5f03614056565b929094936140a9908351936001600160a01b0360e0818751169661409561408d60408d018d6122ea565b90868c614e18565b015116905f91159889614111575b87615217565b946140b357505050565b6140bc91614876565b156140c45750565b60408051631101335b60e11b815260048101929092526024820152601760448201527f41413231206469646e2774207061792070726566756e640000000000000000006064820152608490fd5b915061412d866001600160a01b03165f525f60205260405f2090565b548581111561413f57505f5b916140a3565b8503614139565b6001600160a01b03165f52600160205267ffffffffffffffff6141808260401c60405f20906001600160c01b03165f5260205260405f2090565b9182549261418d84611bd3565b9055161490565b61012061010082015191015148018082105f146141af575090565b905090565b90619c4082018111156141cd57606491600a9103020490565b50505f90565b919082356141e08161069b565b9260608101638dd7712f60e01b7fffffffff0000000000000000000000000000000000000000000000000000000061421883856122ea565b9060035f9211614263575b50160361424e575061069890612059604051938492638dd7712f60e01b602085015260248401613c2b565b610698925061425c916122ea565b3691610647565b9050355f614223565b50929192159081614321575b506142e4576014811015614291575b5050610698611e58565b601411610297573560601c3b156142a9575f80614287565b6040516142b76040826105ba565b601b81527f41413330207061796d6173746572206e6f74206465706c6f7965640000000000602082015290565b50506040516142f46040826105ba565b601981527f41413230206163636f756e74206e6f74206465706c6f79656400000000000000602082015290565b90503b155f614278565b919091610120818403126102975761434161061b565b9261434b826106ac565b845260208201356020850152604082013567ffffffffffffffff8111610297578161437791840161067d565b6040850152606082013567ffffffffffffffff8111610297578161439c91840161067d565b60608501526080820135608085015260a082013560a085015260c082013560c085015260e082013567ffffffffffffffff811161029757816143df91840161067d565b60e085015261010082013567ffffffffffffffff811161029757614403920161067d565b610100830152565b60041115610b7257565b916020936fffffffffffffffffffffffffffffffff198092603497946bffffffffffffffffffffffff199060601b1686521660148501521660248301528051928391018483015e01015f815290565b80516001600160a01b0316825261069891602082015160208201526101006144e56144b56144a360408601516101206040870152610120860190610ae3565b60608601518582036060870152610ae3565b6080850151608085015260a085015160a085015260c085015160c085015260e085015184820360e0860152610ae3565b92015190610100818403910152610ae3565b60806101a09161012081516145158682516001600160a01b03169052565b602081015160208701526040810151604087015260608101516060870152838101518487015260a081015160a087015260c081015160c087015261456960e082015160e08801906001600160a01b03169052565b61010081015161010087015201516101208501526020810151610140850152604081015161016085015260608101516101808501520151910152565b6145d46145c961020093969594965f84526102206020850152610220840190614464565b9560408301906144f7565b0152565b610200906145d46145c95f949695968584526102206020850152610220840190614464565b6146056121bd565b61460f368461432b565b6146188361440b565b60028314614759576146298361440b565b600383146146db5750508061463f60019261440b565b146146895760405162461bcd60e51b815260206004820152600c60248201527f496e76616c6964206d6f646500000000000000000000000000000000000000006044820152606490fd5b612059916146a38261469d61069894611f70565b906141d3565b9390916040519485937f44403473000000000000000000000000000000000000000000000000000000006020860152602485016130be565b9150926fffffffffffffffffffffffffffffffff61471961471260806106989601356fffffffffffffffffffffffffffffffff1690565b9260801b90565b91161760808201526120596040519384927fc579f76b000000000000000000000000000000000000000000000000000000006020850152602484016145d8565b915092612059906fffffffffffffffffffffffffffffffff19846147e660e061069897016147d861479361478d83866122ea565b9061483e565b9391905060609160e08b019660348851511161481c575b505060405196879460801b16906fffffffffffffffffffffffffffffffff198960801b169060208601614415565b03601f1981018452836105ba565b526040519485937f21e60b37000000000000000000000000000000000000000000000000000000006020860152602485016145a5565b61483692935061425c9161482f916122ea565b80916126ad565b905f806147aa565b9091826014116102975781359183602411610297576014810135936034116102975760609290921c92608090811c9260240135901c90565b6001600160a01b03165f525f60205260405f20908154818110613b2f57039055600190565b6148b360409295949395606083526060830190613b68565b9460208201520152565b60a0906106989392815260606020820152600d60608201527f414133332072657665727465640000000000000000000000000000000000000060808201528160408201520190610ae3565b60a0906106989392815260606020820152601d60608201527f41413335206d616c666f726d6564207061796d6173746572206461746100000060808201528160408201520190610ae3565b9192905f80604051956149ad8761499f602084015160408501519060208401987f52b7512c000000000000000000000000000000000000000000000000000000008a526024850161489b565b03601f1981018952886105ba565b51838260806149c660e08501516001600160a01b031690565b93015192895193f1933d91825f833e51938151604083019687519015614a4557604090601f0160051c60051b606001911490811591614a3a575b50614a155750601f909101601f191601604052565b614a1d612dfa565b90611a306040519283926365c8fd4d60e01b845260048401614908565b90508314155f614a00565b82614a4e612dfa565b90611a306040519283926365c8fd4d60e01b8452600484016148bd565b90600211614aa857356bffffffffffffffffffffffff19167f77020000000000000000000000000000000000000000000000000000000000001490565b505f90565b60175f80833c5f51907fef010000000000000000000000000000000000000000000000000000000000007fffffff0000000000000000000000000000000000000000000000000000000000831603614b18575060181b6bffffffffffffffffffffffff191660601c90565b806001600160a01b03913b15614b54577f9f4e4cc9000000000000000000000000000000000000000000000000000000005f521660045260245ffd5b7fe5819b95000000000000000000000000000000000000000000000000000000005f521660045260245ffd5b60ff8114614b91576106989061536f565b506040515f6002548060011c91600182168015614c5c575b602084108114614c485783855284926020840191908115614c2f5750600114614bda575b50610698925003826105ba565b60025f90815291507f405787fa12a823e0f2b7631cc41b3ba8828b3321ca811111fa75cd3aa3bb5ace5b848310614c1857506106989350015f614bcd565b805482840152859350602090920191600101614c04565b60ff191682525061069893151560051b0190505f614bcd565b634e487b7160e01b5f52602260045260245ffd5b92607f1692614ba9565b60ff8114614c77576106989061536f565b506040515f6003548060011c91600182168015614d14575b602084108114614c485783855284926020840191908115614c2f5750600114614cbf5750610698925003826105ba565b60035f90815291507fc2575a0e9e593c00f959f8c92f12db2869c3395a3b0502d05e2516446f71f85b5b848310614cfd57506106989350015f614bcd565b805482840152859350602090920191600101614ce9565b92607f1692614c8f565b8015614e0f57614d2d906153c6565b602081015165ffffffffffff166580000000000081101580614dea575b15614da057657fffffffffff614d69604084015165ffffffffffff1690565b164311908115614d8d575b5090614d8a6001915b516001600160a01b031690565b92565b657fffffffffff9150164311155f614d74565b614dc1614db6604084015165ffffffffffff1690565b65ffffffffffff1690565b4211908115614dd7575b5090614d8a5f91614d7d565b65ffffffffffff1690504211155f614dcb565b5065800000000000614e08614db6604085015165ffffffffffff1690565b1015614d4a565b505f905f905f90565b91909183614e27575b50505050565b8251516001600160a01b031693614e3e8184614a6b565b6150ee576014811061509957614e5a6127fc6127f68386612682565b92853b61505457614ea491602091614e7f614e73611b5e565b6001600160a01b031690565b905f60408951015192604051809781968295632b870d1b60e11b8452600484016122d9565b0393f1908115611351575f91615035575b506001600160a01b038116948515614fe0576001600160a01b0316809503614f8b573b15614f3e57507fd51a9c61267aa6196961883ecf5ff2da6619c37dac0fa92122513fb32c032d2d90614f1a60e06020850151945101516001600160a01b031690565b604080516001600160a01b039384168152919092166020820152a35f808080614e21565b60408051631101335b60e11b815260048101929092526024820152602060448201527f4141313520696e6974436f6465206d757374206372656174652073656e6465726064820152608490fd5b611a3082604051918291631101335b60e11b835260048301608091815260406020820152602060408201527f4141313420696e6974436f6465206d7573742072657475726e2073656e64657260608201520190565b611a3083604051918291631101335b60e11b835260048301608091815260406020820152601b60408201527f4141313320696e6974436f6465206661696c6564206f72204f4f47000000000060608201520190565b61504e915060203d60201161134a5761133c81836105ba565b5f614eb5565b5050506020918201516040516001600160a01b039283168152939091169290917fa39bcda08ffd11bafb11c4f170ef24fc6dc1a9d1b0394d90dbd19e0b919050e991a3565b611a3082604051918291631101335b60e11b835260048301608091815260406020820152601760408201527f4141393920696e6974436f646520746f6f20736d616c6c00000000000000000060608201520190565b9050601481116150fe5750505050565b61511a61510c614e73611b5e565b918060408651015194612690565b9092823b1561029757615160935f80946040518097819682957fc09ad0d90000000000000000000000000000000000000000000000000000000084528c60048501612bfe565b0393f18015611351576151b8575b506001600160a01b0380602061518385614aad565b93015192169216907f7c9f9ade6a03a0bba484e52df872467a270e798ffc1adab9dfaa8d0e627f05445f80a45f808080614e21565b80611db95f6151c6936105ba565b5f61516e565b60a0906106989392815260606020820152600d60608201527f414132332072657665727465640000000000000000000000000000000000000060808201528160408201520190610ae3565b92916020959486926152815f9361527361523a82516001600160a01b0390511690565b976040519b8c930151888401957f19822f7c0000000000000000000000000000000000000000000000000000000087526024850161489b565b03601f1981018a52896105ba565b8285895193f15f519460203d03615316575b6040521561529f575050565b3b6152f15760408051631101335b60e11b815260048101929092526024820152601960448201527f41413230206163636f756e74206e6f74206465706c6f796564000000000000006064820152608490fd5b6152f9612dfa565b90611a306040519283926365c8fd4d60e01b8452600484016151cc565b5f9150615293565b816040519182372090565b6153338282615487565b806153445750816040519182372090565b604051920390600919820190833767117192d14ba1cb2b60c11b828201600919015260011901902090565b60ff811690601f821161539e576040519161538b6040846105ba565b6020808452838101919036833783525290565b7fb3512b0c000000000000000000000000000000000000000000000000000000005f5260045ffd5b6153ce611f11565b5065ffffffffffff8160a01c168015615414575b65ffffffffffff90604051926153f784610565565b6001600160a01b038116845260d01c602084015216604082015290565b5065ffffffffffff6153e2565b919091357fffff00000000000000000000000000000000000000000000000000000000000081169260028110615455575050565b7fffff000000000000000000000000000000000000000000000000000000000000929350829060020360031b1b161690565b603e82106141cd5767117192d14ba1cb2b60c11b7fffffffffffffffff0000000000000000000000000000000000000000000000006154cc84600719810181866126ca565b9035828116916008811061554d575b505016036141cd576155086155026154fc8461550f9481600a8103916126ca565b90615421565b60f01c90565b61ffff1690565b90603d198101821161551f575090565b7f07b9a191000000000000000000000000000000000000000000000000000000005f5260045260245260445ffd5b839250829060080360031b1b16165f806154db56fea2646970667358221220e7c04d5e6de8816cae64feba5c6464ae3c1b05ee35ce6a1ddeb3bff280a05bc364736f6c634300081c003360a08060405234602f57336080526103ba908161003482396080518181816098015281816101b701526102310152f35b5f80fdfe60806040526004361015610011575f80fd5b5f3560e01c8063570e1a36146101db578063b0d691fe146101985763c09ad0d91461003a575f80fd5b34610194576040366003190112610194576004356001600160a01b03811681036101945760243567ffffffffffffffff81116101945736602382011215610194575f91610092839236906024816004013591016102b4565b906100ca7f000000000000000000000000000000000000000000000000000000000000000030336001600160a01b0383163314610339565b82602083519301915af1156100db57005b3d610800811161018b575b60c460405160208382010160405282815260208101925f843e6040519283917f65c8fd4d0000000000000000000000000000000000000000000000000000000083525f600484015260606024840152601f60648401527f4141313320454950373730322073656e64657220696e6974206661696c656400608484015260a060448401525180918160a48501528484015e5f828201840152601f01601f19168101030190fd5b506108006100e6565b5f80fd5b34610194575f3660031901126101945760206040516001600160a01b037f0000000000000000000000000000000000000000000000000000000000000000168152f35b346101945760203660031901126101945760043567ffffffffffffffff811161019457366023820112156101945780600401359067ffffffffffffffff8211610194573660248383010111610194575f916102637f000000000000000000000000000000000000000000000000000000000000000030336001600160a01b0383163314610339565b80601411610194576020916102825f92369060131901603884016102b4565b90826024858451940192013560601c5af16102ac575b6020906001600160a01b0360405191168152f35b505f51610298565b92919267ffffffffffffffff821161030c5760405191601f8101601f19908116603f0116830167ffffffffffffffff81118482101761030c57604052829481845281830111610194578281602093845f960137010152565b7f4e487b71000000000000000000000000000000000000000000000000000000005f52604160045260245ffd5b1561034357505050565b6001600160a01b0392918380927ffe34a6d3000000000000000000000000000000000000000000000000000000005f5216600452166024521660445260645ffdfea2646970667358221220609c245b7ad0600ab28ca9e5b576771821ccac7702741ae3a66a45a908201d0c64736f6c634300081c0033","linkReferences":{}},"methodIdentifiers":{"_paymasterValidation(uint256,(address,uint256,bytes,bytes,bytes32,uint256,bytes32,bytes,bytes),((address,uint256,uint256,uint256,uint256,uint256,uint256,address,uint256,uint256),bytes32,uint256,uint256,uint256))":"21e60b37","_validatePrepayment(uint256,(address,uint256,bytes,bytes,bytes32,uint256,bytes32,bytes,bytes),((address,uint256,uint256,uint256,uint256,uint256,uint256,address,uint256,uint256),bytes32,uint256,uint256,uint256),bool)":"c579f76b","addStake(uint32)":"0396cb60","balanceOf(address)":"70a08231","binarySearchCallGas((address,uint256,bytes,bytes,bytes32,uint256,bytes32,bytes,bytes)[],(address,uint256,bytes,bytes,bytes32,uint256,bytes32,bytes,bytes),address,uint256,uint256,uint256)":"acbe911e","binarySearchPaymasterVerificationGas((address,uint256,bytes,bytes,bytes32,uint256,bytes32,bytes,bytes)[],(address,uint256,bytes,bytes,bytes32,uint256,bytes32,bytes,bytes),address,uint256,uint256,uint256)":"d72f2593","binarySearchVerificationGas((address,uint256,bytes,bytes,bytes32,uint256,bytes32,bytes,bytes)[],(address,uint256,bytes,bytes,bytes32,uint256,bytes32,bytes,bytes),address,uint256,uint256,uint256)":"212eccc6","delegateAndRevert(address,bytes)":"850aaf62","depositTo(address)":"b760faf9","eip712Domain()":"84b0196e","getCurrentUserOpHash()":"b0a398d1","getDepositInfo(address)":"5287ce12","getDomainSeparatorV4()":"13c65a6e","getNonce(address,uint192)":"35567e1a","getPackedUserOpTypeHash()":"154e58dc","getSenderAddress(bytes)":"9b249f69","getUserOpHash((address,uint256,bytes,bytes,bytes32,uint256,bytes32,bytes,bytes))":"22cdde4c","handleAggregatedOps(((address,uint256,bytes,bytes,bytes32,uint256,bytes32,bytes,bytes)[],address,bytes)[],address)":"dbed18e0","handleOps((address,uint256,bytes,bytes,bytes32,uint256,bytes32,bytes,bytes)[],address)":"765e827f","incrementNonce(uint192)":"0bd28e3b","innerHandleOp(bytes,((address,uint256,uint256,uint256,uint256,uint256,uint256,address,uint256,uint256),bytes32,uint256,uint256,uint256),bytes,uint256)":"0da82661","nonceSequenceNumber(address,uint192)":"1b2e01b8","senderCreator()":"09ccb880","simulateCall(address,bytes,uint256)":"f7e426e8","simulateCallAndRevert(address,bytes,uint256)":"44403473","simulateHandleOp((address,uint256,bytes,bytes,bytes32,uint256,bytes32,bytes,bytes)[],(address,uint256,bytes,bytes,bytes32,uint256,bytes32,bytes,bytes))":"af324943","simulateHandleOpSingle((address,uint256,bytes,bytes,bytes32,uint256,bytes32,bytes,bytes),address,bytes)":"7da0c462","simulateValidation((address,uint256,bytes,bytes,bytes32,uint256,bytes32,bytes,bytes))":"c3bce009","simulateValidation((address,uint256,bytes,bytes,bytes32,uint256,bytes32,bytes,bytes)[],(address,uint256,bytes,bytes,bytes32,uint256,bytes32,bytes,bytes))":"aec321fb","supportsInterface(bytes4)":"01ffc9a7","unlockStake()":"bb9fe6bf","withdrawStake(address)":"c23a5cea","withdrawTo(address,uint256)":"205c2878"},"id":31}