{"abi":[{"type":"function","name":"PAYMASTER_DATA_OFFSET","inputs":[],"outputs":[{"name":"","type":"uint256","internalType":"uint256"}],"stateMutability":"view"},{"type":"function","name":"PAYMASTER_POSTOP_GAS_OFFSET","inputs":[],"outputs":[{"name":"","type":"uint256","internalType":"uint256"}],"stateMutability":"view"},{"type":"function","name":"PAYMASTER_VALIDATION_GAS_OFFSET","inputs":[],"outputs":[{"name":"","type":"uint256","internalType":"uint256"}],"stateMutability":"view"},{"type":"error","name":"InvalidPaymasterSignatureLength","inputs":[{"name":"dataLength","type":"uint256","internalType":"uint256"},{"name":"pmSignatureLength","type":"uint256","internalType":"uint256"}]}],"bytecode":{"object":"0x6080806040523460175760b09081601c823930815050f35b5f80fdfe60808060405260043610156011575f80fd5b5f3560e01c90816325093e1b14606757508063b29a8ff41460525763ede31502146039575f80fd5b5f366003190112604e57602060405160348152f35b5f80fd5b5f366003190112604e57602060405160148152f35b5f366003190112604e5780602460209252f3fea264697066735822122092b279d3222339ec41b469db7665c83f49a64380125f11f08b4403f2a025096c64736f6c634300081c0033","linkReferences":{}},"methodIdentifiers":{"PAYMASTER_DATA_OFFSET()":"ede31502","PAYMASTER_POSTOP_GAS_OFFSET()":"25093e1b","PAYMASTER_VALIDATION_GAS_OFFSET()":"b29a8ff4"},"id":36}