{"abi":[{"type":"constructor","inputs":[],"stateMutability":"nonpayable"},{"type":"receive","stateMutability":"payable"},{"type":"function","name":"addStake","inputs":[{"name":"unstakeDelaySec","type":"uint32","internalType":"uint32"}],"outputs":[],"stateMutability":"payable"},{"type":"function","name":"balanceOf","inputs":[{"name":"account","type":"address","internalType":"address"}],"outputs":[{"name":"","type":"uint256","internalType":"uint256"}],"stateMutability":"view"},{"type":"function","name":"delegateAndRevert","inputs":[{"name":"target","type":"address","internalType":"address"},{"name":"data","type":"bytes","internalType":"bytes"}],"outputs":[],"stateMutability":"nonpayable"},{"type":"function","name":"depositTo","inputs":[{"name":"account","type":"address","internalType":"address"}],"outputs":[],"stateMutability":"payable"},{"type":"function","name":"getCurrentUserOpHash","inputs":[],"outputs":[{"name":"","type":"bytes32","internalType":"bytes32"}],"stateMutability":"view"},{"type":"function","name":"getDepositInfo","inputs":[{"name":"account","type":"address","internalType":"address"}],"outputs":[{"name":"info","type":"tuple","internalType":"struct IStakeManager.DepositInfo","components":[{"name":"deposit","type":"uint256","internalType":"uint256"},{"name":"staked","type":"bool","internalType":"bool"},{"name":"stake","type":"uint112","internalType":"uint112"},{"name":"unstakeDelaySec","type":"uint32","internalType":"uint32"},{"name":"withdrawTime","type":"uint48","internalType":"uint48"}]}],"stateMutability":"view"},{"type":"function","name":"getDomainSeparatorV4","inputs":[],"outputs":[{"name":"","type":"bytes32","internalType":"bytes32"}],"stateMutability":"view"},{"type":"function","name":"getNonce","inputs":[{"name":"sender","type":"address","internalType":"address"},{"name":"key","type":"uint192","internalType":"uint192"}],"outputs":[{"name":"nonce","type":"uint256","internalType":"uint256"}],"stateMutability":"view"},{"type":"function","name":"getPackedUserOpTypeHash","inputs":[],"outputs":[{"name":"","type":"bytes32","internalType":"bytes32"}],"stateMutability":"pure"},{"type":"function","name":"getSenderAddress","inputs":[{"name":"initCode","type":"bytes","internalType":"bytes"}],"outputs":[],"stateMutability":"nonpayable"},{"type":"function","name":"getUserOpHash","inputs":[{"name":"userOp","type":"tuple","internalType":"struct PackedUserOperation","components":[{"name":"sender","type":"address","internalType":"address"},{"name":"nonce","type":"uint256","internalType":"uint256"},{"name":"initCode","type":"bytes","internalType":"bytes"},{"name":"callData","type":"bytes","internalType":"bytes"},{"name":"accountGasLimits","type":"bytes32","internalType":"bytes32"},{"name":"preVerificationGas","type":"uint256","internalType":"uint256"},{"name":"gasFees","type":"bytes32","internalType":"bytes32"},{"name":"paymasterAndData","type":"bytes","internalType":"bytes"},{"name":"signature","type":"bytes","internalType":"bytes"}]}],"outputs":[{"name":"","type":"bytes32","internalType":"bytes32"}],"stateMutability":"view"},{"type":"function","name":"handleAggregatedOps","inputs":[{"name":"opsPerAggregator","type":"tuple[]","internalType":"struct IEntryPoint.UserOpsPerAggregator[]","components":[{"name":"userOps","type":"tuple[]","internalType":"struct PackedUserOperation[]","components":[{"name":"sender","type":"address","internalType":"address"},{"name":"nonce","type":"uint256","internalType":"uint256"},{"name":"initCode","type":"bytes","internalType":"bytes"},{"name":"callData","type":"bytes","internalType":"bytes"},{"name":"accountGasLimits","type":"bytes32","internalType":"bytes32"},{"name":"preVerificationGas","type":"uint256","internalType":"uint256"},{"name":"gasFees","type":"bytes32","internalType":"bytes32"},{"name":"paymasterAndData","type":"bytes","internalType":"bytes"},{"name":"signature","type":"bytes","internalType":"bytes"}]},{"name":"aggregator","type":"address","internalType":"contract IAggregator"},{"name":"signature","type":"bytes","internalType":"bytes"}]},{"name":"beneficiary","type":"address","internalType":"address payable"}],"outputs":[],"stateMutability":"nonpayable"},{"type":"function","name":"handleOps","inputs":[{"name":"ops","type":"tuple[]","internalType":"struct PackedUserOperation[]","components":[{"name":"sender","type":"address","internalType":"address"},{"name":"nonce","type":"uint256","internalType":"uint256"},{"name":"initCode","type":"bytes","internalType":"bytes"},{"name":"callData","type":"bytes","internalType":"bytes"},{"name":"accountGasLimits","type":"bytes32","internalType":"bytes32"},{"name":"preVerificationGas","type":"uint256","internalType":"uint256"},{"name":"gasFees","type":"bytes32","internalType":"bytes32"},{"name":"paymasterAndData","type":"bytes","internalType":"bytes"},{"name":"signature","type":"bytes","internalType":"bytes"}]},{"name":"beneficiary","type":"address","internalType":"address payable"}],"outputs":[],"stateMutability":"nonpayable"},{"type":"function","name":"incrementNonce","inputs":[{"name":"key","type":"uint192","internalType":"uint192"}],"outputs":[],"stateMutability":"nonpayable"},{"type":"function","name":"initDomainSeparator","inputs":[],"outputs":[],"stateMutability":"nonpayable"},{"type":"function","name":"innerHandleOp","inputs":[{"name":"callData","type":"bytes","internalType":"bytes"},{"name":"opInfo","type":"tuple","internalType":"struct EntryPointFilterOpsOverride09.UserOpInfo","components":[{"name":"mUserOp","type":"tuple","internalType":"struct EntryPointFilterOpsOverride09.MemoryUserOp","components":[{"name":"sender","type":"address","internalType":"address"},{"name":"nonce","type":"uint256","internalType":"uint256"},{"name":"verificationGasLimit","type":"uint256","internalType":"uint256"},{"name":"callGasLimit","type":"uint256","internalType":"uint256"},{"name":"paymasterVerificationGasLimit","type":"uint256","internalType":"uint256"},{"name":"paymasterPostOpGasLimit","type":"uint256","internalType":"uint256"},{"name":"preVerificationGas","type":"uint256","internalType":"uint256"},{"name":"paymaster","type":"address","internalType":"address"},{"name":"maxFeePerGas","type":"uint256","internalType":"uint256"},{"name":"maxPriorityFeePerGas","type":"uint256","internalType":"uint256"}]},{"name":"userOpHash","type":"bytes32","internalType":"bytes32"},{"name":"prefund","type":"uint256","internalType":"uint256"},{"name":"contextOffset","type":"uint256","internalType":"uint256"},{"name":"preOpGas","type":"uint256","internalType":"uint256"}]},{"name":"context","type":"bytes","internalType":"bytes"}],"outputs":[{"name":"actualGasCost","type":"uint256","internalType":"uint256"}],"stateMutability":"nonpayable"},{"type":"function","name":"nonceSequenceNumber","inputs":[{"name":"","type":"address","internalType":"address"},{"name":"","type":"uint192","internalType":"uint192"}],"outputs":[{"name":"","type":"uint256","internalType":"uint256"}],"stateMutability":"view"},{"type":"function","name":"senderCreator","inputs":[],"outputs":[{"name":"","type":"address","internalType":"contract ISenderCreator"}],"stateMutability":"view"},{"type":"function","name":"supportsInterface","inputs":[{"name":"interfaceId","type":"bytes4","internalType":"bytes4"}],"outputs":[{"name":"","type":"bool","internalType":"bool"}],"stateMutability":"view"},{"type":"function","name":"unlockStake","inputs":[],"outputs":[],"stateMutability":"nonpayable"},{"type":"function","name":"withdrawStake","inputs":[{"name":"withdrawAddress","type":"address","internalType":"address payable"}],"outputs":[],"stateMutability":"nonpayable"},{"type":"function","name":"withdrawTo","inputs":[{"name":"withdrawAddress","type":"address","internalType":"address payable"},{"name":"withdrawAmount","type":"uint256","internalType":"uint256"}],"outputs":[],"stateMutability":"nonpayable"},{"type":"event","name":"AccountDeployed","inputs":[{"name":"userOpHash","type":"bytes32","indexed":true,"internalType":"bytes32"},{"name":"sender","type":"address","indexed":true,"internalType":"address"},{"name":"factory","type":"address","indexed":false,"internalType":"address"},{"name":"paymaster","type":"address","indexed":false,"internalType":"address"}],"anonymous":false},{"type":"event","name":"BeforeExecution","inputs":[],"anonymous":false},{"type":"event","name":"Deposited","inputs":[{"name":"account","type":"address","indexed":true,"internalType":"address"},{"name":"totalDeposit","type":"uint256","indexed":false,"internalType":"uint256"}],"anonymous":false},{"type":"event","name":"EIP7702AccountInitialized","inputs":[{"name":"userOpHash","type":"bytes32","indexed":true,"internalType":"bytes32"},{"name":"sender","type":"address","indexed":true,"internalType":"address"},{"name":"delegate","type":"address","indexed":true,"internalType":"address"}],"anonymous":false},{"type":"event","name":"IgnoredInitCode","inputs":[{"name":"userOpHash","type":"bytes32","indexed":true,"internalType":"bytes32"},{"name":"sender","type":"address","indexed":true,"internalType":"address"},{"name":"unusedFactory","type":"address","indexed":false,"internalType":"address"}],"anonymous":false},{"type":"event","name":"PostOpRevertReason","inputs":[{"name":"userOpHash","type":"bytes32","indexed":true,"internalType":"bytes32"},{"name":"sender","type":"address","indexed":true,"internalType":"address"},{"name":"nonce","type":"uint256","indexed":false,"internalType":"uint256"},{"name":"revertReason","type":"bytes","indexed":false,"internalType":"bytes"}],"anonymous":false},{"type":"event","name":"SignatureAggregatorChanged","inputs":[{"name":"aggregator","type":"address","indexed":true,"internalType":"address"}],"anonymous":false},{"type":"event","name":"StakeLocked","inputs":[{"name":"account","type":"address","indexed":true,"internalType":"address"},{"name":"totalStaked","type":"uint256","indexed":false,"internalType":"uint256"},{"name":"unstakeDelaySec","type":"uint256","indexed":false,"internalType":"uint256"}],"anonymous":false},{"type":"event","name":"StakeUnlocked","inputs":[{"name":"account","type":"address","indexed":true,"internalType":"address"},{"name":"withdrawTime","type":"uint256","indexed":false,"internalType":"uint256"}],"anonymous":false},{"type":"event","name":"StakeWithdrawn","inputs":[{"name":"account","type":"address","indexed":true,"internalType":"address"},{"name":"withdrawAddress","type":"address","indexed":false,"internalType":"address"},{"name":"amount","type":"uint256","indexed":false,"internalType":"uint256"}],"anonymous":false},{"type":"event","name":"UserOperationEvent","inputs":[{"name":"userOpHash","type":"bytes32","indexed":true,"internalType":"bytes32"},{"name":"sender","type":"address","indexed":true,"internalType":"address"},{"name":"paymaster","type":"address","indexed":true,"internalType":"address"},{"name":"nonce","type":"uint256","indexed":false,"internalType":"uint256"},{"name":"success","type":"bool","indexed":false,"internalType":"bool"},{"name":"actualGasCost","type":"uint256","indexed":false,"internalType":"uint256"},{"name":"actualGasUsed","type":"uint256","indexed":false,"internalType":"uint256"}],"anonymous":false},{"type":"event","name":"UserOperationPrefundTooLow","inputs":[{"name":"userOpHash","type":"bytes32","indexed":true,"internalType":"bytes32"},{"name":"sender","type":"address","indexed":true,"internalType":"address"},{"name":"nonce","type":"uint256","indexed":false,"internalType":"uint256"}],"anonymous":false},{"type":"event","name":"UserOperationRevertReason","inputs":[{"name":"userOpHash","type":"bytes32","indexed":true,"internalType":"bytes32"},{"name":"sender","type":"address","indexed":true,"internalType":"address"},{"name":"nonce","type":"uint256","indexed":false,"internalType":"uint256"},{"name":"revertReason","type":"bytes","indexed":false,"internalType":"bytes"}],"anonymous":false},{"type":"event","name":"Withdrawn","inputs":[{"name":"account","type":"address","indexed":true,"internalType":"address"},{"name":"withdrawAddress","type":"address","indexed":false,"internalType":"address"},{"name":"amount","type":"uint256","indexed":false,"internalType":"uint256"}],"anonymous":false},{"type":"error","name":"DelegateAndRevert","inputs":[{"name":"success","type":"bool","internalType":"bool"},{"name":"ret","type":"bytes","internalType":"bytes"}]},{"type":"error","name":"DepositWithdrawalFailed","inputs":[{"name":"account","type":"address","internalType":"address"},{"name":"withdrawAddress","type":"address","internalType":"address"},{"name":"amount","type":"uint256","internalType":"uint256"},{"name":"revertReason","type":"bytes","internalType":"bytes"}]},{"type":"error","name":"Eip7702SenderNotDelegate","inputs":[{"name":"sender","type":"address","internalType":"address"}]},{"type":"error","name":"Eip7702SenderWithoutCode","inputs":[{"name":"sender","type":"address","internalType":"address"}]},{"type":"error","name":"FailedOp","inputs":[{"name":"opIndex","type":"uint256","internalType":"uint256"},{"name":"reason","type":"string","internalType":"string"}]},{"type":"error","name":"FailedOpWithRevert","inputs":[{"name":"opIndex","type":"uint256","internalType":"uint256"},{"name":"reason","type":"string","internalType":"string"},{"name":"inner","type":"bytes","internalType":"bytes"}]},{"type":"error","name":"FailedSendToBeneficiary","inputs":[{"name":"beneficiary","type":"address","internalType":"address"},{"name":"amount","type":"uint256","internalType":"uint256"},{"name":"revertData","type":"bytes","internalType":"bytes"}]},{"type":"error","name":"InsufficientDeposit","inputs":[{"name":"currentDeposit","type":"uint256","internalType":"uint256"},{"name":"withdrawAmount","type":"uint256","internalType":"uint256"}]},{"type":"error","name":"InternalFunction","inputs":[]},{"type":"error","name":"InvalidBeneficiary","inputs":[{"name":"beneficiary","type":"address","internalType":"address"}]},{"type":"error","name":"InvalidPaymaster","inputs":[{"name":"paymaster","type":"address","internalType":"address"}]},{"type":"error","name":"InvalidPaymasterData","inputs":[{"name":"paymasterAndDataLength","type":"uint256","internalType":"uint256"}]},{"type":"error","name":"InvalidPaymasterSignatureLength","inputs":[{"name":"dataLength","type":"uint256","internalType":"uint256"},{"name":"pmSignatureLength","type":"uint256","internalType":"uint256"}]},{"type":"error","name":"InvalidStake","inputs":[{"name":"msgValue","type":"uint256","internalType":"uint256"},{"name":"currentStake","type":"uint256","internalType":"uint256"}]},{"type":"error","name":"InvalidUnstakeDelay","inputs":[{"name":"newUnstakeDelaySec","type":"uint256","internalType":"uint256"},{"name":"currentUnstakeDelaySec","type":"uint256","internalType":"uint256"}]},{"type":"error","name":"NotStaked","inputs":[{"name":"currentStake","type":"uint256","internalType":"uint256"},{"name":"unstakeDelaySec","type":"uint256","internalType":"uint256"},{"name":"staked","type":"bool","internalType":"bool"}]},{"type":"error","name":"PostOpReverted","inputs":[{"name":"returnData","type":"bytes","internalType":"bytes"}]},{"type":"error","name":"Reentrancy","inputs":[]},{"type":"error","name":"SenderAddressResult","inputs":[{"name":"sender","type":"address","internalType":"address"}]},{"type":"error","name":"SignatureValidationFailed","inputs":[{"name":"aggregator","type":"address","internalType":"address"}]},{"type":"error","name":"StakeNotUnlocked","inputs":[{"name":"withdrawTime","type":"uint256","internalType":"uint256"},{"name":"blockTimestamp","type":"uint256","internalType":"uint256"}]},{"type":"error","name":"StakeWithdrawalFailed","inputs":[{"name":"account","type":"address","internalType":"address"},{"name":"withdrawAddress","type":"address","internalType":"address"},{"name":"amount","type":"uint256","internalType":"uint256"},{"name":"revertReason","type":"bytes","internalType":"bytes"}]},{"type":"error","name":"WithdrawalNotDue","inputs":[{"name":"withdrawTime","type":"uint256","internalType":"uint256"},{"name":"blockTimestamp","type":"uint256","internalType":"uint256"}]}],"bytecode":{"object":"0x60a080604052346067576104ee8181016001600160401b03811183821017605357829161548b833903905ff0801560485760805260405161541f908161006c8239608051815050f35b6040513d5f823e3d90fd5b634e487b7160e01b5f52604160045260245ffd5b5f80fdfe6101606040526004361015610024575b3615610019575f80fd5b6100223361303e565b005b5f610140525f3560e01c806242dc531461236757806301ffc9a7146122155780630396cb6014611fb657806309ccb88014611f5d5780630bd28e3b14611ec157806313c65a6e14611e83578063154e58dc14611e285780631b2e01b814611d92578063205c287814611c4357806322cdde4c14611bbf57806335567e1a14611b055780635287ce12146119e557806370a082311461197a578063765e827f146118e5578063850aaf62146118205780639b249f69146116d2578063b0a398d114611692578063b760faf914611658578063bb9fe6bf14611502578063c23a5cea14611322578063d12e825d1461121e5763dbed18e00361000f5734610fc45761012c36612ae0565b6101005260e0526101405190815b60e0518110610ffd575061014d82612e84565b61012052610140516080526101405160c0525b60e05160c05110610278577fbb47ee3e183a558b1a2ff0874b079f3fc5478b7454eacf2bfc5af2ff5878f9726101405161014051a161014051608081905290815b60e05181106101be576101b78361010051614837565b6101405180f35b6102206101ce8260e05185613106565b73ffffffffffffffffffffffffffffffffffffffff6101ef6020830161319a565b167f575ff3acadd5ab348fe1855e217e0f3678f8d767d7494c9f9fefbee2e17cca4d6101405161014051a280613146565b9061014051915b808310610239575050506001016101a1565b90919460019061026661024d888587612f53565b61025c60805161012051612fc0565b519060805161415c565b01958160805101608052019190610227565b61028760c05160e05183613106565b73ffffffffffffffffffffffffffffffffffffffff6102b560206102ab8480613146565b60a052930161319a565b61014051911691905b60a05181106102e25750505060a05160805101608052600160c0510160c052610160565b6102f3816080510161012051612fc0565b516103018260a05185612f53565b61014051915a81519273ffffffffffffffffffffffffffffffffffffffff6103288261319a565b168452602081810135908501526fffffffffffffffffffffffffffffffff6080808301358281166060880152811c604087015260a083013560c0808801919091528301359182166101008701521c61012085015261038960e08201826131bb565b9081610f23575b50506040519361039f82612d38565b6020850152846040526040810151946effffffffffffffffffffffffffffff8660c08401511760608401511760808401511760a084015117610100840151176101208401511711610ebd5750604081015160608201510160808201510160a08201510160c0820151016101008201510294856040860152845173ffffffffffffffffffffffffffffffffffffffff60e08183511692610452898d61044660408b018b6131bb565b92909160805101614f08565b0151169661014051978015610e8c575b87516040810151905173ffffffffffffffffffffffffffffffffffffffff169061014051506040519a8b8960208d01519260208301937f19822f7c00000000000000000000000000000000000000000000000000000000855260248401926104c993615395565b037fffffffffffffffffffffffffffffffffffffffffffffffffffffffffffffffe081018d526104f9908d6129b7565b61014051908c5190846101405190602095f161014051519a3d602003610e81575b60405215610d8e575015610d10575b505073ffffffffffffffffffffffffffffffffffffffff825116602083015190610140515260016020526040610140512077ffffffffffffffffffffffffffffffffffffffffffffffff8260401c165f5260205267ffffffffffffffff60405f209182549261059784612c94565b90551603610ca7575a840311610c3e5760e0015160609073ffffffffffffffffffffffffffffffffffffffff166108e2575b73ffffffffffffffffffffffffffffffffffffffff949260a0859360809360606105fe9801520135905a900301910152614c44565b929091168603610879576107a5575061062b73ffffffffffffffffffffffffffffffffffffffff91614c44565b9290911661073c5761064057506001016102be565b6106d35760a490604051907f220266b600000000000000000000000000000000000000000000000000000000825260805101600482015260406024820152602160448201527f41413332207061796d61737465722065787069726564206f72206e6f7420647560648201527f65000000000000000000000000000000000000000000000000000000000000006084820152fd5b608490604051907f220266b600000000000000000000000000000000000000000000000000000000825260805101600482015260406024820152602060448201527f41413337207061796d617374657220696e76616c20626c6f636b2072616e67656064820152fd5b608483604051907f220266b600000000000000000000000000000000000000000000000000000000825260805101600482015260406024820152601460448201527f41413334207369676e6174757265206572726f720000000000000000000000006064820152fd5b8260849161081357604051907f220266b600000000000000000000000000000000000000000000000000000000825260805101600482015260406024820152601760448201527f414132322065787069726564206f72206e6f74206475650000000000000000006064820152fd5b604051907f220266b600000000000000000000000000000000000000000000000000000000825260805101600482015260406024820152601e60448201527f41413237206f7574736964652076616c696420626c6f636b2072616e676500006064820152fd5b608484604051907f220266b600000000000000000000000000000000000000000000000000000000825260805101600482015260406024820152601460448201527f41413234207369676e6174757265206572726f720000000000000000000000006064820152fd5b9897969594505a9883519961091673ffffffffffffffffffffffffffffffffffffffff60e08d0151166040870151906153b7565b15610bd55760807f52b7512c000000000000000000000000000000000000000000000000000000009798999a9b01516040516109978161096b60208a015160408b015190602084019d8e528960248501615395565b037fffffffffffffffffffffffffffffffffffffffffffffffffffffffffffffffe081018352826129b7565b8651608073ffffffffffffffffffffffffffffffffffffffff60e08301511691015161014051918b61014051928551926101405191f1983d908161014051843e519482519a604084019b8c519115610b535760401490811591610b21575b50610a9c5750601f7fffffffffffffffffffffffffffffffffffffffffffffffffffffffffffffffe09101160191826040525a900311610a365750946105c9565b80887f220266b6000000000000000000000000000000000000000000000000000000006084935260805101600482015260406024820152602060448201527f41413336206f76657220706d566572696669636174696f6e4761734c696d69746064820152fd5b8b610b1d610aa861333d565b6040519384937f65c8fd4d0000000000000000000000000000000000000000000000000000000085526080510160048501526024840152601d60648401527f41413335206d616c666f726d6564207061796d61737465722064617461000000608484015260a0604484015260a4830190612b73565b0390fd5b7fffffffffffffffffffffffffffffffffffffffffffffffffffffffffffffffe09150601f011681018214155f6109f5565b828e610b1d610b6061333d565b6040519384937f65c8fd4d0000000000000000000000000000000000000000000000000000000085526080510160048501526024840152600d60648401527f4141333320726576657274656400000000000000000000000000000000000000608484015260a0604484015260a4830190612b73565b608487604051907f220266b600000000000000000000000000000000000000000000000000000000825260805101600482015260406024820152601e60448201527f41413331207061796d6173746572206465706f73697420746f6f206c6f7700006064820152fd5b608487604051907f220266b600000000000000000000000000000000000000000000000000000000825260805101600482015260406024820152601e60448201527f41413236206f76657220766572696669636174696f6e4761734c696d697400006064820152fd5b608488604051907f220266b600000000000000000000000000000000000000000000000000000000825260805101600482015260406024820152601a60448201527f4141323520696e76616c6964206163636f756e74206e6f6e63650000000000006064820152fd5b610d19916153b7565b15610d25578b80610529565b608488604051907f220266b600000000000000000000000000000000000000000000000000000000825260805101600482015260406024820152601760448201527f41413231206469646e2774207061792070726566756e640000000000000000006064820152fd5b8b903b610dfe57608490604051907f220266b600000000000000000000000000000000000000000000000000000000825260805101600482015260406024820152601960448201527f41413230206163636f756e74206e6f74206465706c6f796564000000000000006064820152fd5b610e0661333d565b90610b1d6040519283927f65c8fd4d00000000000000000000000000000000000000000000000000000000845260805101600484015260606024840152600d60648401527f4141323320726576657274656400000000000000000000000000000000000000608484015260a0604484015260a4830190612b73565b61014051915061051a565b6101408051849052516020819052604090205490985081811115610eb65750610140515b97610462565b8103610eb0565b80887f220266b6000000000000000000000000000000000000000000000000000000006084935260805101600482015260406024820152601860448201527f41413934206761732076616c756573206f766572666c6f7700000000000000006064820152fd5b60348210610fcb5781601411610fc45780359160248110610fc457603411610fc4576024810135608090811c60a0880152601490910135811c90860152606081901c15610f795760601c60e08501528980610390565b73ffffffffffffffffffffffffffffffffffffffff907fd8ccb29200000000000000000000000000000000000000000000000000000000610140515260601c16600452602461014051fd5b6101405180fd5b507f120aaab5000000000000000000000000000000000000000000000000000000006101405152600452602461014051fd5b61100a8160e05184613106565b926110158480613146565b919073ffffffffffffffffffffffffffffffffffffffff6110386020880161319a565b1695600187146111ec5786611055575b505001925060010161013a565b8060406110639201906131bb565b91873b15610fc457916040519283917f2dd8113300000000000000000000000000000000000000000000000000000000835286604484016040600486015252606483019160648860051b8501019281610140517ffffffffffffffffffffffffffffffffffffffffffffffffffffffffffffffee182360301915b8b821061119257505050505081611123917ffffffffffffffffffffffffffffffffffffffffffffffffffffffffffffffffc858095030160248501526101405195613000565b0381610140518a5af19081611177575b5061116a57847f86a9f750000000000000000000000000000000000000000000000000000000006101405152600452602461014051fd5b929350839260015f611048565b61014051611184916129b7565b61014051610fc4575f611133565b9193967fffffffffffffffffffffffffffffffffffffffffffffffffffffffffffffff9c90879294969703018552863584811215610fc45760206111db6001938583940161325c565b9801950192018896959493916110dd565b867f86a9f750000000000000000000000000000000000000000000000000000000006101405152600452602461014051fd5b34610fc457610140517ffffffffffffffffffffffffffffffffffffffffffffffffffffffffffffffffc360112610fc4576040805160079060209061126384826129b7565b8281527f4552433433333700000000000000000000000000000000000000000000000000910190815220815160019060209061129f85826129b7565b828152017f310000000000000000000000000000000000000000000000000000000000000081522082519160208301937f8b73c3c69bb8fe3d512ecc4cf759cc79239f7b179b0ffacaa9a75d522b39400f855283015260608201524660808201523060a082015260a0815261131560c0826129b7565b5190206002556101405180f35b34610fc45760207ffffffffffffffffffffffffffffffffffffffffffffffffffffffffffffffffc360112610fc457611359612a68565b33610140515261014051602052600160406101405120019081549165ffffffffffff6dffffffffffffffffffffffffffff8460081c16936113aa60ff821663ffffffff8360781c16878015156130b1565b60981c1680156114cd57428111611498575080547fffffffffffffff000000000000000000000000000000000000000000000000ff1690556040805173ffffffffffffffffffffffffffffffffffffffff831681526020810184905233917fb7c918e0e249f999e965cafeb6c664271b3f4317d296461500e71da39f0cbda391a2610140518080808573ffffffffffffffffffffffffffffffffffffffff86165af1611454612cce565b9015611461576101405180f35b610b1d906040519384937f0dcf087c0000000000000000000000000000000000000000000000000000000085523360048601612cfd565b7f561d331200000000000000000000000000000000000000000000000000000000610140515260045242602452604461014051fd5b7ffbd021d600000000000000000000000000000000000000000000000000000000610140515260045242602452604461014051fd5b34610fc457610140517ffffffffffffffffffffffffffffffffffffffffffffffffffffffffffffffffc360112610fc4573361014051526101405160205260016040610140512001805461158863ffffffff8260781c16918260ff6dffffffffffffffffffffffffffff8360081c169216916115828383838115156130b1565b826130b1565b65ffffffffffff4216019065ffffffffffff82116116255780547fffffffffffffff000000000000ffffffffffffffffffffffffffffffffffff001678ffffffffffff00000000000000000000000000000000000000609884901b1617905560405165ffffffffffff909116815233907ffa9b3c14cc825c412c9ed81b3ba365a5b459439403f18829e572ed53a4180f0a90602090a26101405180f35b7f4e487b710000000000000000000000000000000000000000000000000000000061014051526011600452602461014051fd5b60207ffffffffffffffffffffffffffffffffffffffffffffffffffffffffffffffffc360112610fc4576101b761168d612a68565b61303e565b34610fc457610140517ffffffffffffffffffffffffffffffffffffffffffffffffffffffffffffffffc360112610fc4576020610140515c604051908152f35b34610fc45760207ffffffffffffffffffffffffffffffffffffffffffffffffffffffffffffffffc360112610fc45760043567ffffffffffffffff8111610fc4576020611726611781923690600401612a8b565b73ffffffffffffffffffffffffffffffffffffffff61174361336a565b16906040518095819482937f570e1a360000000000000000000000000000000000000000000000000000000084528760048501526024840191613000565b039161014051905af180156118125773ffffffffffffffffffffffffffffffffffffffff9161014051916117e3575b507f6ca7b80600000000000000000000000000000000000000000000000000000000610140515216600452602461014051fd5b611805915060203d60201161180b575b6117fd81836129b7565b810190612fd4565b826117b0565b503d6117f3565b6040513d61014051823e3d90fd5b34610fc45760407ffffffffffffffffffffffffffffffffffffffffffffffffffffffffffffffffc360112610fc457611857612a68565b60243567ffffffffffffffff8111610fc457611877903690600401612a8b565b604051929181908437820190610140518252610140519280610140519303915af46118a0612cce565b90610b1d6040519283927f9941055400000000000000000000000000000000000000000000000000000000845215156004840152604060248401526044830190612b73565b34610fc4576118f336612ae0565b6118fe829392612e84565b6119098185856134fc565b5061014051927fbb47ee3e183a558b1a2ff0874b079f3fc5478b7454eacf2bfc5af2ff5878f9728480a161014051915b85831061194a576101b78585614837565b90919360019061197061195e878987612f53565b6119688886612fc0565b51908861415c565b0194019190611939565b34610fc45760207ffffffffffffffffffffffffffffffffffffffffffffffffffffffffffffffffc360112610fc45773ffffffffffffffffffffffffffffffffffffffff6119c6612a68565b1661014051526101405160205260206040610140512054604051908152f35b34610fc45760207ffffffffffffffffffffffffffffffffffffffffffffffffffffffffffffffffc360112610fc45773ffffffffffffffffffffffffffffffffffffffff611a31612a68565b604051611a3d81612935565b6101405181526101405160208201526101405160408201526101405160608201526080610140519101521661014051526101405160205260a06040610140512065ffffffffffff604051611a9081612935565b63ffffffff60018454948584520154916dffffffffffffffffffffffffffff6020820160ff8516151581526040830190828660081c1682528660806060860195878960781c168752019660981c1686526040519788525115156020880152511660408601525116606084015251166080820152f35b34610fc45760407ffffffffffffffffffffffffffffffffffffffffffffffffffffffffffffffffc360112610fc4576020611b3e612a68565b73ffffffffffffffffffffffffffffffffffffffff611b5b612ab9565b91166101405152600182526040610140512077ffffffffffffffffffffffffffffffffffffffffffffffff82165f52825260405f20547fffffffffffffffffffffffffffffffffffffffffffffffff00000000000000006040519260401b16178152f35b34610fc45760207ffffffffffffffffffffffffffffffffffffffffffffffffffffffffffffffffc360112610fc45760043567ffffffffffffffff8111610fc4576101207ffffffffffffffffffffffffffffffffffffffffffffffffffffffffffffffffc8236030112610fc457611c3b602091600401612d38565b604051908152f35b34610fc45760407ffffffffffffffffffffffffffffffffffffffffffffffffffffffffffffffffc360112610fc457611c7a612a68565b602435903361014051526101405160205260406101405120828154808211611d5e5790611ca691612cc1565b90556040805173ffffffffffffffffffffffffffffffffffffffff831681526020810184905233917fd1c19fbcd4551a5edfb66d43d2e337c04837afda3482b42bdf569a8fccdae5fb91a2610140518080808573ffffffffffffffffffffffffffffffffffffffff86165af1611d1a612cce565b9015611d27576101405180f35b610b1d906040519384937f9f3d69330000000000000000000000000000000000000000000000000000000085523360048601612cfd565b7f25c3f46e000000000000000000000000000000000000000000000000000000006101405152600452602452604461014051fd5b34610fc45760407ffffffffffffffffffffffffffffffffffffffffffffffffffffffffffffffffc360112610fc457611dc9612a68565b73ffffffffffffffffffffffffffffffffffffffff611de6612ab9565b91166101405152600160205277ffffffffffffffffffffffffffffffffffffffffffffffff6040610140512091165f52602052602060405f2054604051908152f35b34610fc457610140517ffffffffffffffffffffffffffffffffffffffffffffffffffffffffffffffffc360112610fc45760206040517f29a0bca4af4be3421398da00295e58e6d7de38cb492214754cb6a47507dd6f8e8152f35b34610fc457610140517ffffffffffffffffffffffffffffffffffffffffffffffffffffffffffffffffc360112610fc4576020600254604051908152f35b34610fc45760207ffffffffffffffffffffffffffffffffffffffffffffffffffffffffffffffffc360112610fc45760043577ffffffffffffffffffffffffffffffffffffffffffffffff81168103610fc457336101405152600160205277ffffffffffffffffffffffffffffffffffffffffffffffff6040610140512091165f5260205260405f20611f548154612c94565b90556101405180f35b34610fc457610140517ffffffffffffffffffffffffffffffffffffffffffffffffffffffffffffffffc360112610fc457602073ffffffffffffffffffffffffffffffffffffffff611fad61336a565b16604051908152f35b60207ffffffffffffffffffffffffffffffffffffffffffffffffffffffffffffffffc360112610fc45760043563ffffffff8116808203610fc457336101405152610140516020526121dd6dffffffffffffffffffffffffffff604061014051209361204260018601549163ffffffff8360781c16906120398282891515612bd0565b81871015612bd0565b60081c169261207a6120543486612c11565b946120628134881515612c4b565b346dffffffffffffffffffffffffffff871115612c4b565b546040519061208882612935565b815265ffffffffffff602082019160018352604081016dffffffffffffffffffffffffffff87168152606082019086825260016080840193610140518552336101405152610140516020526040610140512090518155019451151560ff7fffffffffffffffffffffffffffffffffffffffffffffffffffffffffffffff008754169116178555517fffffffffffffffffffffffffffffffffff0000000000000000000000000000ff6effffffffffffffffffffffffffff008087549360081b16169116178455517fffffffffffffffffffffffffff00000000ffffffffffffffffffffffffffffff72ffffffff0000000000000000000000000000008086549360781b1616911617835551167fffffffffffffff000000000000ffffffffffffffffffffffffffffffffffffff78ffffffffffff0000000000000000000000000000000000000083549260981b169116179055565b60405191825260208201527fa5ae833d0bb1dcd632d98a8b70973e8516812898e19bf27b70071ebc8dc52c0160403392a26101405180f35b34610fc45760207ffffffffffffffffffffffffffffffffffffffffffffffffffffffffffffffffc360112610fc4576004357fffffffff000000000000000000000000000000000000000000000000000000008116809103610fc457807fd9934b3f000000000000000000000000000000000000000000000000000000006020921490811561233d575b8115612313575b81156122e9575b81156122bf575b506040519015158152f35b7f01ffc9a700000000000000000000000000000000000000000000000000000000915014826122b4565b7f3e84f02100000000000000000000000000000000000000000000000000000000811491506122ad565b7fcf28ef9700000000000000000000000000000000000000000000000000000000811491506122a6565b7f283f5489000000000000000000000000000000000000000000000000000000008114915061229f565b346127ec576102007ffffffffffffffffffffffffffffffffffffffffffffffffffffffffffffffffc3601126127ec5760043567ffffffffffffffff81116127ec57366023820112156127ec576123c8903690602481600401359101612a32565b7fffffffffffffffffffffffffffffffffffffffffffffffffffffffffffffffdc36016101c081126127ec576101406040519161240483612935565b126127ec576040516124158161297e565b60243573ffffffffffffffffffffffffffffffffffffffff811681036127ec57815260443560208201526064356040820152608435606082015260a435608082015260c43560a082015260e43560c08201526101043573ffffffffffffffffffffffffffffffffffffffff811681036127ec5760e082015261012435610100820152610144356101208201528152602081019161016435835260408201906101843582526101a435606084015260808301916101c43583526101e43567ffffffffffffffff81116127ec576124ee903690600401612a8b565b955a9030330361290d578651606081015195603f5a0260061c61271060a0840151890101116128e5575f968151918261282b575b50505050509061253a915a9003855101963691612a32565b925a9385516101008101516101208201517f59e3bb5c9eacf8e7a9c3802366751badc68d4d97d3e35b1744045784c52f20dd5480155f14612825575048905b018082101561281d5750975b6125b273ffffffffffffffffffffffffffffffffffffffff60e084015116945182036060840151906148e4565b01925f92816126c85750505173ffffffffffffffffffffffffffffffffffffffff16945b5a900301019485029051928184105f146126745750506003811015612641576002036126135760209281611c3b929361260e81614a05565b614903565b7fdeadaa51000000000000000000000000000000000000000000000000000000006101405152602061014051fd5b7f4e487b710000000000000000000000000000000000000000000000000000000061014051526021600452602461014051fd5b816126aa929594969396039073ffffffffffffffffffffffffffffffffffffffff165f525f60205260405f209081540180915590565b50600384101561264157826126c3926020951590614984565b611c3b565b9096918782516126db575b5050506125d6565b90919293505a9260038810156127f05760028803612711575b505060a0612708925a9003910151906148e4565b908880806126d3565b60a083015191803b156127ec578b925f928361276d938c8b88604051998a98899788957f7c627b210000000000000000000000000000000000000000000000000000000087526004870152608060248701526084860190612b73565b9202604484015260648301520393f190816127d7575b506127cd57610b1d61279361333d565b6040519182917fad7954bc000000000000000000000000000000000000000000000000000000008352602060048401526024830190612b73565b60a06127086126f4565b5f6127e1916129b7565b5f610140528a612783565b5f80fd5b7f4e487b71000000000000000000000000000000000000000000000000000000005f52602160045260245ffd5b905097612585565b90612579565b915f9291838093602073ffffffffffffffffffffffffffffffffffffffff885116910192f11561285e575b808080612522565b61253a939295506040519161287161333d565b90815161288a575b505050604052600193909188612856565b7f1c4fada7374c0a9ee8841fc38afe82932dc0f8e69012e927f061a8bae611a201905191602073ffffffffffffffffffffffffffffffffffffffff8551169401516128da60405192839283612bb6565b0390a3888080612879565b7fdeaddead000000000000000000000000000000000000000000000000000000005f5260205ffd5b7f9fbdaa09000000000000000000000000000000000000000000000000000000005f5260045ffd5b60a0810190811067ffffffffffffffff82111761295157604052565b7f4e487b71000000000000000000000000000000000000000000000000000000005f52604160045260245ffd5b610140810190811067ffffffffffffffff82111761295157604052565b6060810190811067ffffffffffffffff82111761295157604052565b90601f7fffffffffffffffffffffffffffffffffffffffffffffffffffffffffffffffe0910116810190811067ffffffffffffffff82111761295157604052565b67ffffffffffffffff811161295157601f017fffffffffffffffffffffffffffffffffffffffffffffffffffffffffffffffe01660200190565b929192612a3e826129f8565b91612a4c60405193846129b7565b8294818452818301116127ec578281602093845f960137010152565b6004359073ffffffffffffffffffffffffffffffffffffffff821682036127ec57565b9181601f840112156127ec5782359167ffffffffffffffff83116127ec57602083818601950101116127ec57565b6024359077ffffffffffffffffffffffffffffffffffffffffffffffff821682036127ec57565b9060407ffffffffffffffffffffffffffffffffffffffffffffffffffffffffffffffffc8301126127ec5760043567ffffffffffffffff81116127ec5760040182601f820112156127ec5780359267ffffffffffffffff84116127ec576020808301928560051b0101116127ec57919060243573ffffffffffffffffffffffffffffffffffffffff811681036127ec5790565b907fffffffffffffffffffffffffffffffffffffffffffffffffffffffffffffffe0601f602080948051918291828752018686015e5f8582860101520116010190565b604090612bcd939281528160208201520190612b73565b90565b15612bd9575050565b9063ffffffff80927fe1823bce000000000000000000000000000000000000000000000000000000005f52166004521660245260445ffd5b91908201809211612c1e57565b7f4e487b71000000000000000000000000000000000000000000000000000000005f52601160045260245ffd5b15612c54575050565b6dffffffffffffffffffffffffffff92507f0e10009c000000000000000000000000000000000000000000000000000000005f526004521660245260445ffd5b7fffffffffffffffffffffffffffffffffffffffffffffffffffffffffffffffff8114612c1e5760010190565b91908203918211612c1e57565b3d15612cf8573d90612cdf826129f8565b91612ced60405193846129b7565b82523d5f602084013e565b606090565b909273ffffffffffffffffffffffffffffffffffffffff60809381612bcd979616845216602083015260408201528160608201520190612b73565b604290612d44816133d8565b60025491612d518161319a565b918015612e4f57905b60c0612d6960608301836131bb565b90816040519182372091612d89612d8360e08301836131bb565b90614b8e565b926040519473ffffffffffffffffffffffffffffffffffffffff60208701977f29a0bca4af4be3421398da00295e58e6d7de38cb492214754cb6a47507dd6f8e895216604087015260208301356060870152608086015260a085015260808101358285015260a081013560e085015201356101008301526101208201526101208152612e17610140826129b7565b519020604051917f19010000000000000000000000000000000000000000000000000000000000008352600283015260228201522090565b50612e5d60408201826131bb565b90816040519182372090612d5a565b67ffffffffffffffff81116129515760051b60200190565b90612e8e82612e6c565b612e9b60405191826129b7565b8281527fffffffffffffffffffffffffffffffffffffffffffffffffffffffffffffffe0612ec98294612e6c565b01905f5b828110612ed957505050565b602090604051612ee881612935565b604051612ef48161297e565b5f81525f848201525f60408201525f60608201525f60808201525f60a08201525f60c08201525f60e08201525f6101008201525f61012082015281525f838201525f60408201525f60608201525f608082015282828501015201612ecd565b9190811015612f935760051b810135907ffffffffffffffffffffffffffffffffffffffffffffffffffffffffffffffee1813603018212156127ec570190565b7f4e487b71000000000000000000000000000000000000000000000000000000005f52603260045260245ffd5b8051821015612f935760209160051b010190565b908160209103126127ec575173ffffffffffffffffffffffffffffffffffffffff811681036127ec5790565b601f82602094937fffffffffffffffffffffffffffffffffffffffffffffffffffffffffffffffe093818652868601375f8582860101520116010190565b7f2da466a7b24304f47e87fa2e1e5a81b9831ce54fec19055ce277ca2f39ba42c4602073ffffffffffffffffffffffffffffffffffffffff6130a5348573ffffffffffffffffffffffffffffffffffffffff165f525f60205260405f209081540180915590565b936040519485521692a2565b156130bb57505050565b906dffffffffffffffffffffffffffff63ffffffff927f8421e8e5000000000000000000000000000000000000000000000000000000005f521660045216602452151560445260645ffd5b9190811015612f935760051b810135907fffffffffffffffffffffffffffffffffffffffffffffffffffffffffffffffa1813603018212156127ec570190565b9035907fffffffffffffffffffffffffffffffffffffffffffffffffffffffffffffffe1813603018212156127ec570180359067ffffffffffffffff82116127ec57602001918160051b360383136127ec57565b3573ffffffffffffffffffffffffffffffffffffffff811681036127ec5790565b9035907fffffffffffffffffffffffffffffffffffffffffffffffffffffffffffffffe1813603018212156127ec570180359067ffffffffffffffff82116127ec576020019181360383136127ec57565b90357fffffffffffffffffffffffffffffffffffffffffffffffffffffffffffffffe1823603018112156127ec57016020813591019167ffffffffffffffff82116127ec5781360383136127ec57565b80359173ffffffffffffffffffffffffffffffffffffffff831683036127ec5773ffffffffffffffffffffffffffffffffffffffff612bcd931681526020820135602082015261332e6133226132e96132ce6132bb604087018761320c565b6101206040880152610120870191613000565b6132db606087018761320c565b908683036060880152613000565b6080850135608085015260a085013560a085015260c085013560c085015261331460e086018661320c565b9085830360e0870152613000565b9261010081019061320c565b91610100818503910152613000565b3d6108008111613361575b604051906020818301016040528082525f602083013e90565b50610800613348565b7fbc79d710c27c417daea28cbdc16e638da2309ea2f5542218b102827c395d15d45473ffffffffffffffffffffffffffffffffffffffff1680612bcd5750730a630a99df908a81115a3022927be82f9299987e90565b909392938483116127ec5784116127ec578101920390565b6133e560408201826131bb565b90916133f18284614a55565b156134f5576134026134079161319a565b614aaa565b91601482116134565750506040517fffffffffffffffffffffffffffffffffffffffff000000000000000000000000602082019260601b168252601481526134506034826129b7565b51902090565b816014116127ec576020613450916040519384917fffffffffffffffffffffffffffffffffffffffff0000000000000000000000008484019760601b16875260147fffffffffffffffffffffffffffffffffffffffffffffffffffffffffffffffec83019101603484013781015f8382015203017fffffffffffffffffffffffffffffffffffffffffffffffffffffffffffffffe081018352826129b7565b5050505f90565b92919092835f5b8181106135105750505050565b61351a8185612fc0565b51613526828486612f53565b5f915a81519273ffffffffffffffffffffffffffffffffffffffff61354a8261319a565b168452602081013560208501526080810135936fffffffffffffffffffffffffffffffff8560801c951694604082019060608301968752815260c0820160a0840135815260c0840135906fffffffffffffffffffffffffffffffff8260801c921691610120850190610100860193845281526135c960e08701876131bb565b908161409f575b50506040516135de87612d38565b9960208a019a8b528160405285519586855117825117926effffffffffffffffffffffffffffff60808a01948551179560a08b01968751178951179051171161403d5750519051019051019051019051019051029560408601918783528973ffffffffffffffffffffffffffffffffffffffff60e089516136738b848351169561366b60408d018d6131bb565b929091614f08565b015116985f998015614016575b89516040810151905173ffffffffffffffffffffffffffffffffffffffff1680916040519d8e808d8b519360208301947f19822f7c00000000000000000000000000000000000000000000000000000000865260248401926136e193615395565b037fffffffffffffffffffffffffffffffffffffffffffffffffffffffffffffffe08101825261371190826129b7565b51905f6020948194f15f519c3d60200361400e575b60405215613f23575015613ea9575b505073ffffffffffffffffffffffffffffffffffffffff8451166020850151905f52600160205260405f2077ffffffffffffffffffffffffffffffffffffffffffffffff8260401c165f5260205267ffffffffffffffff60405f209182549261379d84612c94565b90551603613e44575a860311613ddf5773ffffffffffffffffffffffffffffffffffffffff60e0606094015116613ad0575b505073ffffffffffffffffffffffffffffffffffffffff949260a0859360809360606138069801520135905a900301910152614c44565b92909116613a6b5761399f575061383173ffffffffffffffffffffffffffffffffffffffff91614c44565b9290911661393a576138465750600101613503565b6138d55760a490604051907f220266b6000000000000000000000000000000000000000000000000000000008252600482015260406024820152602160448201527f41413332207061796d61737465722065787069726564206f72206e6f7420647560648201527f65000000000000000000000000000000000000000000000000000000000000006084820152fd5b608490604051907f220266b6000000000000000000000000000000000000000000000000000000008252600482015260406024820152602060448201527f41413337207061796d617374657220696e76616c20626c6f636b2072616e67656064820152fd5b608483604051907f220266b6000000000000000000000000000000000000000000000000000000008252600482015260406024820152601460448201527f41413334207369676e6174757265206572726f720000000000000000000000006064820152fd5b82608491613a0957604051907f220266b6000000000000000000000000000000000000000000000000000000008252600482015260406024820152601760448201527f414132322065787069726564206f72206e6f74206475650000000000000000006064820152fd5b604051907f220266b6000000000000000000000000000000000000000000000000000000008252600482015260406024820152601e60448201527f41413237206f7574736964652076616c696420626c6f636b2072616e676500006064820152fd5b608484604051907f220266b6000000000000000000000000000000000000000000000000000000008252600482015260406024820152601460448201527f41413234207369676e6174757265206572726f720000000000000000000000006064820152fd5b909c9b9a99989796505a9085519d60e08f015173ffffffffffffffffffffffffffffffffffffffff168151613b04916153b7565b15613d7a57613b577f52b7512c00000000000000000000000000000000000000000000000000000000999a9b9c9d9e9f608001519261096b60405193849251905190602084019d8e528960248501615395565b5f8088518b82608073ffffffffffffffffffffffffffffffffffffffff60e08501511693015192865193f1983d90815f843e519482519a604084019b8c519115613cfc5760401490811591613cca575b50613c4d5750601f7fffffffffffffffffffffffffffffffffffffffffffffffffffffffffffffffe09101160191826040525a900311613beb5750948260a06137cf565b80887f220266b60000000000000000000000000000000000000000000000000000000060849352600482015260406024820152602060448201527f41413336206f76657220706d566572696669636174696f6e4761734c696d69746064820152fd5b8b610b1d613c5961333d565b6040519384937f65c8fd4d00000000000000000000000000000000000000000000000000000000855260048501526024840152601d60648401527f41413335206d616c666f726d6564207061796d61737465722064617461000000608484015260a0604484015260a4830190612b73565b7fffffffffffffffffffffffffffffffffffffffffffffffffffffffffffffffe09150601f011681018214155f613ba7565b828e610b1d613d0961333d565b6040519384937f65c8fd4d00000000000000000000000000000000000000000000000000000000855260048501526024840152600d60648401527f4141333320726576657274656400000000000000000000000000000000000000608484015260a0604484015260a4830190612b73565b608489604051907f220266b6000000000000000000000000000000000000000000000000000000008252600482015260406024820152601e60448201527f41413331207061796d6173746572206465706f73697420746f6f206c6f7700006064820152fd5b608489604051907f220266b6000000000000000000000000000000000000000000000000000000008252600482015260406024820152601e60448201527f41413236206f76657220766572696669636174696f6e4761734c696d697400006064820152fd5b60848a604051907f220266b6000000000000000000000000000000000000000000000000000000008252600482015260406024820152601a60448201527f4141323520696e76616c6964206163636f756e74206e6f6e63650000000000006064820152fd5b613eb2916153b7565b15613ebe575f80613735565b60848a604051907f220266b6000000000000000000000000000000000000000000000000000000008252600482015260406024820152601760448201527f41413231206469646e2774207061792070726566756e640000000000000000006064820152fd5b8d903b613f8f57608490604051907f220266b6000000000000000000000000000000000000000000000000000000008252600482015260406024820152601960448201527f41413230206163636f756e74206e6f74206465706c6f796564000000000000006064820152fd5b613f9761333d565b90610b1d6040519283927f65c8fd4d000000000000000000000000000000000000000000000000000000008452600484015260606024840152600d60648401527f4141323320726576657274656400000000000000000000000000000000000000608484015260a0604484015260a4830190612b73565b5f9150613726565b9950815f525f60205260405f20548181115f1461403657505f5b99613680565b8103614030565b808f7f220266b60000000000000000000000000000000000000000000000000000000060849352600482015260406024820152601860448201527f41413934206761732076616c756573206f766572666c6f7700000000000000006064820152fd5b6034821061413057816014116127ec57803560601c91602481106127ec576014820135906034116127ec576fffffffffffffffffffffffffffffffff60248193013560801c1660a089015260801c16608087015280156141055760e08601525f806135d0565b7fd8ccb292000000000000000000000000000000000000000000000000000000005f5260045260245ffd5b507f120aaab5000000000000000000000000000000000000000000000000000000005f5260045260245ffd5b9092915a6020820180515f5d606083015190604051968761418060608301836131bb565b5f6003821161482f575b7fffffffff00000000000000000000000000000000000000000000000000000000167f8dd7712f00000000000000000000000000000000000000000000000000000000036146c1575050505f61429561438961422361425560209587516040519384927f8dd7712f000000000000000000000000000000000000000000000000000000008a85015260406024850152606484019061325c565b906044830152037fffffffffffffffffffffffffffffffffffffffffffffffffffffffffffffffe081018352826129b7565b61096b6040519384927e42dc5300000000000000000000000000000000000000000000000000000000888501526102006024850152610224840190612b73565b614358604484018c60806101a091610120815173ffffffffffffffffffffffffffffffffffffffff8151168652602081015160208701526040810151604087015260608101516060870152838101518487015260a081015160a087015260c081015160c087015273ffffffffffffffffffffffffffffffffffffffff60e08201511660e087015261010081015161010087015201516101208501526020810151610140850152604081015161016085015260608101516101808501520151910152565b7fffffffffffffffffffffffffffffffffffffffffffffffffffffffffffffffdc8382030161020484015288612b73565b828151910182305af15f5197604052156143a5575b5050505050565b909192939495505f3d6020146146b4575b7fdeaddead00000000000000000000000000000000000000000000000000000000810361444257608486604051907f220266b6000000000000000000000000000000000000000000000000000000008252600482015260406024820152600f60448201527f41413935206f7574206f662067617300000000000000000000000000000000006064820152fd5b7fdeadaa5100000000000000000000000000000000000000000000000000000000919293949550145f146144aa57505061448e61448361449e925a90612cc1565b608084015190612c11565b60408301518361260e8295614a05565b905b5f8080808061439e565b9161451b919260405190518551907ff62676f440ff169a3a9afdbf812e89e7f95975ee8e5c31214ffdef631c5f4792602073ffffffffffffffffffffffffffffffffffffffff8451169301516144fe61333d565b9061450e60405192839283612bb6565b0390a36040525a90612cc1565b61452b6080840191825190612c11565b915f905a9285516101008101516101208201517f59e3bb5c9eacf8e7a9c3802366751badc68d4d97d3e35b1744045784c52f20dd5480155f146146ae575048905b01808210156146a65750955b6145a573ffffffffffffffffffffffffffffffffffffffff60e084015116935182036060840151906148e4565b01925f92806146775750505173ffffffffffffffffffffffffffffffffffffffff16935b5a900301019283026040850151928184105f1461462b575050806145fe575090816145f8929361260e81614a05565b906144a0565b807f4e487b7100000000000000000000000000000000000000000000000000000000602492526021600452fd5b614660908284939795039073ffffffffffffffffffffffffffffffffffffffff165f525f60205260405f209081540180915590565b506145fe575090825f61467293614984565b6145f8565b95919051614686575b506145c9565b9350905061469f5a9360a05f955a9003910151906148e4565b905f614680565b905095614578565b9061456c565b5060205f803e5f516143b6565b61482693506147fa91614706917e42dc530000000000000000000000000000000000000000000000000000000060208601526102006024860152610224850191613000565b6147c9604484018960806101a091610120815173ffffffffffffffffffffffffffffffffffffffff8151168652602081015160208701526040810151604087015260608101516060870152838101518487015260a081015160a087015260c081015160c087015273ffffffffffffffffffffffffffffffffffffffff60e08201511660e087015261010081015161010087015201516101208501526020810151610140850152604081015161016085015260608101516101808501520151910152565b7fffffffffffffffffffffffffffffffffffffffffffffffffffffffffffffffdc8382030161020484015285612b73565b037fffffffffffffffffffffffffffffffffffffffffffffffffffffffffffffffe081018952886129b7565b60205f88614389565b50813561418a565b73ffffffffffffffffffffffffffffffffffffffff1680156148b9575f805d5f80808085855af1614866612cce565b901561487157505050565b610b1d906040519384937f40848e6100000000000000000000000000000000000000000000000000000000855260048501526024840152606060448401526064830190612b73565b7f1a3b45fd000000000000000000000000000000000000000000000000000000005f5260045260245ffd5b90619c4082018111156148fd57606491600a9103020490565b50505f90565b9190917f49628fd1471006c1482da88028e9ce4dbb080b815c9b0344d39e5a8e6ec1419f6080602083015192519473ffffffffffffffffffffffffffffffffffffffff86511694602073ffffffffffffffffffffffffffffffffffffffff60e089015116970151916040519283525f602084015260408301526060820152a4565b9060807f49628fd1471006c1482da88028e9ce4dbb080b815c9b0344d39e5a8e6ec1419f91602084015193519573ffffffffffffffffffffffffffffffffffffffff87511695602073ffffffffffffffffffffffffffffffffffffffff60e08a015116980151926040519384521515602084015260408301526060820152a4565b60208101519051907f67b4fa9642f42120bf031f3051d1824b0fe25627945b27b8a6a65d5761d5482e60208073ffffffffffffffffffffffffffffffffffffffff855116940151604051908152a3565b90600211614aa557357fffffffffffffffffffffffffffffffffffffffff000000000000000000000000167f77020000000000000000000000000000000000000000000000000000000000001490565b505f90565b60175f80833c5f51907fef010000000000000000000000000000000000000000000000000000000000007fffffff0000000000000000000000000000000000000000000000000000000000831603614b19575060481c73ffffffffffffffffffffffffffffffffffffffff1690565b8073ffffffffffffffffffffffffffffffffffffffff913b15614b62577f9f4e4cc9000000000000000000000000000000000000000000000000000000005f521660045260245ffd5b7fe5819b95000000000000000000000000000000000000000000000000000000005f521660045260245ffd5b614b988282614d70565b80614ba95750816040519182372090565b7ffffffffffffffffffffffffffffffffffffffffffffffffffffffffffffffffe919203604051927ffffffffffffffffffffffffffffffffffffffffffffffffffffffffffffffff682019084377f22e325a2974396560000000000000000000000000000000000000000000000007ffffffffffffffffffffffffffffffffffffffffffffffffffffffffffffffff6828501015201902090565b8015614d67575f60408051614c588161299b565b8281528260208201520152604073ffffffffffffffffffffffffffffffffffffffff82169165ffffffffffff8160a01c16908115614d59575b60d01c908251614ca08161299b565b84815282602082015265ffffffffffff821693849101526580000000000082101580614d49575b15614cfa57657fffffffffff16431191508115614ce7575b509060019092565b657fffffffffff9150164311155f614cdf565b507f182d361d27e8fee91541f8630840b9272bdb770c7bb6239b09cd74563c4053415480614d43575042915b8211918215614d38575b5050905f9092565b111590505f80614d30565b91614d26565b5065800000000000831015614cc7565b65ffffffffffff9150614c91565b505f905f905f90565b603e82106148fd577f22e325a2974396560000000000000000000000000000000000000000000000007fffffffffffffffff000000000000000000000000000000000000000000000000614de8847ffffffffffffffffffffffffffffffffffffffffffffffffffffffffffffffff8810181866133c0565b90358281169160088110614ef3575b505016036148fd5781614e2e91817ffffffffffffffffffffffffffffffffffffffffffffffffffffffffffffffff68101916133c0565b90357fffff00000000000000000000000000000000000000000000000000000000000081169160028110614ebe575b505060f01c907fffffffffffffffffffffffffffffffffffffffffffffffffffffffffffffffc281018211614e90575090565b7f07b9a191000000000000000000000000000000000000000000000000000000005f5260045260245260445ffd5b7fffff0000000000000000000000000000000000000000000000000000000000009250829060020360031b1b16165f80614e5d565b839250829060080360031b1b16165f80614df7565b929091925f82614f19575050505050565b83519473ffffffffffffffffffffffffffffffffffffffff86511695614f3f8583614a55565b6152585750601484106151f357836014116151ef57803560601c93863b6151b957614fca9160209173ffffffffffffffffffffffffffffffffffffffff614f8461336a565b16908560408a510151926040518097819682957f570e1a360000000000000000000000000000000000000000000000000000000084528960048501526024840191613000565b0393f19182156151ad579161518e575b5073ffffffffffffffffffffffffffffffffffffffff811680156151295785036150c4573b1561505f575060407fd51a9c61267aa6196961883ecf5ff2da6619c37dac0fa92122513fb32c032d2d9173ffffffffffffffffffffffffffffffffffffffff60e06020860151955101511682519182526020820152a35f8080808061439e565b608490604051907f220266b6000000000000000000000000000000000000000000000000000000008252600482015260406024820152602060448201527f4141313520696e6974436f6465206d757374206372656174652073656e6465726064820152fd5b608482604051907f220266b6000000000000000000000000000000000000000000000000000000008252600482015260406024820152602060448201527f4141313420696e6974436f6465206d7573742072657475726e2073656e6465726064820152fd5b608483604051907f220266b6000000000000000000000000000000000000000000000000000000008252600482015260406024820152601b60448201527f4141313320696e6974436f6465206661696c6564206f72204f4f4700000000006064820152fd5b6151a7915060203d60201161180b576117fd81836129b7565b5f614fda565b604051903d90823e3d90fd5b50505050906020807fa39bcda08ffd11bafb11c4f170ef24fc6dc1a9d1b0394d90dbd19e0b919050e992015192604051908152a3565b5080fd5b608483604051907f220266b6000000000000000000000000000000000000000000000000000000008252600482015260406024820152601760448201527f4141393920696e6974436f646520746f6f20736d616c6c0000000000000000006064820152fd5b9195949390925060148111615270575b505050505050565b604073ffffffffffffffffffffffffffffffffffffffff61528f61336a565b16920151816014116127ec57823b156127ec57615312935f80946040518097819682957fc09ad0d90000000000000000000000000000000000000000000000000000000084528c60048501526040602485015260147fffffffffffffffffffffffffffffffffffffffffffffffffffffffffffffffec6044860193019101613000565b0393f1801561538a57615375575b507f7c9f9ade6a03a0bba484e52df872467a270e798ffc1adab9dfaa8d0e627f054473ffffffffffffffffffffffffffffffffffffffff602061536285614aaa565b93015192169380a45f8080808080615268565b6153829193505f906129b7565b5f915f615320565b6040513d5f823e3d90fd5b6153ad6040929594939560608352606083019061325c565b9460208201520152565b73ffffffffffffffffffffffffffffffffffffffff165f525f60205260405f209081548181106134f55703905560019056fea2646970667358221220e3c97fad07ea6550b07d0ed38eee12263e6fda5e1775f61a77f7586bcb1901bd64736f6c634300081c003360a08060405234602f57336080526104ba9081610034823960805181818160c30152818161023701526102cf0152f35b5f80fdfe60806040526004361015610011575f80fd5b5f3560e01c8063570e1a361461025b578063b0d691fe146101ed5763c09ad0d91461003a575f80fd5b346101e95760407ffffffffffffffffffffffffffffffffffffffffffffffffffffffffffffffffc3601126101e95760043573ffffffffffffffffffffffffffffffffffffffff811681036101e95760243567ffffffffffffffff81116101e957366023820112156101e9575f916100bd8392369060248160040135910161038a565b906101027f0000000000000000000000000000000000000000000000000000000000000000303373ffffffffffffffffffffffffffffffffffffffff8316331461042c565b82602083519301915af11561011357005b3d61080081116101e0575b60c460405160208382010160405282815260208101925f843e7fffffffffffffffffffffffffffffffffffffffffffffffffffffffffffffffe0601f6040519485937f65c8fd4d0000000000000000000000000000000000000000000000000000000085525f6004860152606060248601528260648601527f4141313320454950373730322073656e64657220696e6974206661696c656400608486015260a060448601525180918160a48701528686015e5f85828601015201168101030190fd5b5061080061011e565b5f80fd5b346101e9575f7ffffffffffffffffffffffffffffffffffffffffffffffffffffffffffffffffc3601126101e957602060405173ffffffffffffffffffffffffffffffffffffffff7f0000000000000000000000000000000000000000000000000000000000000000168152f35b346101e95760207ffffffffffffffffffffffffffffffffffffffffffffffffffffffffffffffffc3601126101e95760043567ffffffffffffffff81116101e957366023820112156101e95780600401359067ffffffffffffffff82116101e95736602483830101116101e9575f9161030e7f0000000000000000000000000000000000000000000000000000000000000000303373ffffffffffffffffffffffffffffffffffffffff8316331461042c565b806014116101e95760209161034b5f927fffffffffffffffffffffffffffffffffffffffffffffffffffffffffffffffec3691016038840161038a565b90826024858451940192013560601c5af1610382575b60209073ffffffffffffffffffffffffffffffffffffffff60405191168152f35b505f51610361565b92919267ffffffffffffffff82116103ff57604051917fffffffffffffffffffffffffffffffffffffffffffffffffffffffffffffffe0603f81601f8401160116830183811067ffffffffffffffff8211176103ff576040528294818452818301116101e9578281602093845f960137010152565b7f4e487b71000000000000000000000000000000000000000000000000000000005f52604160045260245ffd5b1561043657505050565b73ffffffffffffffffffffffffffffffffffffffff92918380927ffe34a6d3000000000000000000000000000000000000000000000000000000005f5216600452166024521660445260645ffdfea2646970667358221220e1d84167821daba7b59fe2eab2e25bba6c7efd2e7b4d431ec1fce87b1086786564736f6c634300081c0033","linkReferences":{}},"methodIdentifiers":{"addStake(uint32)":"0396cb60","balanceOf(address)":"70a08231","delegateAndRevert(address,bytes)":"850aaf62","depositTo(address)":"b760faf9","getCurrentUserOpHash()":"b0a398d1","getDepositInfo(address)":"5287ce12","getDomainSeparatorV4()":"13c65a6e","getNonce(address,uint192)":"35567e1a","getPackedUserOpTypeHash()":"154e58dc","getSenderAddress(bytes)":"9b249f69","getUserOpHash((address,uint256,bytes,bytes,bytes32,uint256,bytes32,bytes,bytes))":"22cdde4c","handleAggregatedOps(((address,uint256,bytes,bytes,bytes32,uint256,bytes32,bytes,bytes)[],address,bytes)[],address)":"dbed18e0","handleOps((address,uint256,bytes,bytes,bytes32,uint256,bytes32,bytes,bytes)[],address)":"765e827f","incrementNonce(uint192)":"0bd28e3b","initDomainSeparator()":"d12e825d","innerHandleOp(bytes,((address,uint256,uint256,uint256,uint256,uint256,uint256,address,uint256,uint256),bytes32,uint256,uint256,uint256),bytes)":"0042dc53","nonceSequenceNumber(address,uint192)":"1b2e01b8","senderCreator()":"09ccb880","supportsInterface(bytes4)":"01ffc9a7","unlockStake()":"bb9fe6bf","withdrawStake(address)":"c23a5cea","withdrawTo(address,uint256)":"205c2878"},"id":30}