{"abi":[{"type":"constructor","inputs":[],"stateMutability":"nonpayable"},{"type":"function","name":"createSender","inputs":[{"name":"initCode","type":"bytes","internalType":"bytes"}],"outputs":[{"name":"sender","type":"address","internalType":"address"}],"stateMutability":"nonpayable"},{"type":"function","name":"entryPoint","inputs":[],"outputs":[{"name":"","type":"address","internalType":"address"}],"stateMutability":"view"},{"type":"function","name":"initEip7702Sender","inputs":[{"name":"sender","type":"address","internalType":"address"},{"name":"initCallData","type":"bytes","internalType":"bytes"}],"outputs":[],"stateMutability":"nonpayable"},{"type":"error","name":"FailedOpWithRevert","inputs":[{"name":"opIndex","type":"uint256","internalType":"uint256"},{"name":"reason","type":"string","internalType":"string"},{"name":"inner","type":"bytes","internalType":"bytes"}]},{"type":"error","name":"NotFromEntryPoint","inputs":[{"name":"msgSender","type":"address","internalType":"address"},{"name":"entity","type":"address","internalType":"address"},{"name":"entryPoint","type":"address","internalType":"address"}]}],"bytecode":{"object":"0x60a08060405234602f57336080526104ba9081610034823960805181818160c30152818161023701526102cf0152f35b5f80fdfe60806040526004361015610011575f80fd5b5f3560e01c8063570e1a361461025b578063b0d691fe146101ed5763c09ad0d91461003a575f80fd5b346101e95760407ffffffffffffffffffffffffffffffffffffffffffffffffffffffffffffffffc3601126101e95760043573ffffffffffffffffffffffffffffffffffffffff811681036101e95760243567ffffffffffffffff81116101e957366023820112156101e9575f916100bd8392369060248160040135910161038a565b906101027f0000000000000000000000000000000000000000000000000000000000000000303373ffffffffffffffffffffffffffffffffffffffff8316331461042c565b82602083519301915af11561011357005b3d61080081116101e0575b60c460405160208382010160405282815260208101925f843e7fffffffffffffffffffffffffffffffffffffffffffffffffffffffffffffffe0601f6040519485937f65c8fd4d0000000000000000000000000000000000000000000000000000000085525f6004860152606060248601528260648601527f4141313320454950373730322073656e64657220696e6974206661696c656400608486015260a060448601525180918160a48701528686015e5f85828601015201168101030190fd5b5061080061011e565b5f80fd5b346101e9575f7ffffffffffffffffffffffffffffffffffffffffffffffffffffffffffffffffc3601126101e957602060405173ffffffffffffffffffffffffffffffffffffffff7f0000000000000000000000000000000000000000000000000000000000000000168152f35b346101e95760207ffffffffffffffffffffffffffffffffffffffffffffffffffffffffffffffffc3601126101e95760043567ffffffffffffffff81116101e957366023820112156101e95780600401359067ffffffffffffffff82116101e95736602483830101116101e9575f9161030e7f0000000000000000000000000000000000000000000000000000000000000000303373ffffffffffffffffffffffffffffffffffffffff8316331461042c565b806014116101e95760209161034b5f927fffffffffffffffffffffffffffffffffffffffffffffffffffffffffffffffec3691016038840161038a565b90826024858451940192013560601c5af1610382575b60209073ffffffffffffffffffffffffffffffffffffffff60405191168152f35b505f51610361565b92919267ffffffffffffffff82116103ff57604051917fffffffffffffffffffffffffffffffffffffffffffffffffffffffffffffffe0603f81601f8401160116830183811067ffffffffffffffff8211176103ff576040528294818452818301116101e9578281602093845f960137010152565b7f4e487b71000000000000000000000000000000000000000000000000000000005f52604160045260245ffd5b1561043657505050565b73ffffffffffffffffffffffffffffffffffffffff92918380927ffe34a6d3000000000000000000000000000000000000000000000000000000005f5216600452166024521660445260645ffdfea2646970667358221220e1d84167821daba7b59fe2eab2e25bba6c7efd2e7b4d431ec1fce87b1086786564736f6c634300081c0033","linkReferences":{}},"methodIdentifiers":{"createSender(bytes)":"570e1a36","entryPoint()":"b0d691fe","initEip7702Sender(address,bytes)":"c09ad0d9"},"id":3}