{"abi":[{"type":"constructor","inputs":[],"stateMutability":"nonpayable"},{"type":"receive","stateMutability":"payable"},{"type":"function","name":"_paymasterValidation","inputs":[{"name":"opIndex","type":"uint256","internalType":"uint256"},{"name":"userOp","type":"tuple","internalType":"struct PackedUserOperation","components":[{"name":"sender","type":"address","internalType":"address"},{"name":"nonce","type":"uint256","internalType":"uint256"},{"name":"initCode","type":"bytes","internalType":"bytes"},{"name":"callData","type":"bytes","internalType":"bytes"},{"name":"accountGasLimits","type":"bytes32","internalType":"bytes32"},{"name":"preVerificationGas","type":"uint256","internalType":"uint256"},{"name":"gasFees","type":"bytes32","internalType":"bytes32"},{"name":"paymasterAndData","type":"bytes","internalType":"bytes"},{"name":"signature","type":"bytes","internalType":"bytes"}]},{"name":"outOpInfo","type":"tuple","internalType":"struct EntryPoint.UserOpInfo","components":[{"name":"mUserOp","type":"tuple","internalType":"struct EntryPoint.MemoryUserOp","components":[{"name":"sender","type":"address","internalType":"address"},{"name":"nonce","type":"uint256","internalType":"uint256"},{"name":"verificationGasLimit","type":"uint256","internalType":"uint256"},{"name":"callGasLimit","type":"uint256","internalType":"uint256"},{"name":"paymasterVerificationGasLimit","type":"uint256","internalType":"uint256"},{"name":"paymasterPostOpGasLimit","type":"uint256","internalType":"uint256"},{"name":"preVerificationGas","type":"uint256","internalType":"uint256"},{"name":"paymaster","type":"address","internalType":"address"},{"name":"maxFeePerGas","type":"uint256","internalType":"uint256"},{"name":"maxPriorityFeePerGas","type":"uint256","internalType":"uint256"}]},{"name":"userOpHash","type":"bytes32","internalType":"bytes32"},{"name":"prefund","type":"uint256","internalType":"uint256"},{"name":"contextOffset","type":"uint256","internalType":"uint256"},{"name":"preOpGas","type":"uint256","internalType":"uint256"}]}],"outputs":[{"name":"validationData","type":"uint256","internalType":"uint256"},{"name":"paymasterValidationData","type":"uint256","internalType":"uint256"},{"name":"paymasterVerificationGasLimit","type":"uint256","internalType":"uint256"}],"stateMutability":"nonpayable"},{"type":"function","name":"_validatePrepayment","inputs":[{"name":"opIndex","type":"uint256","internalType":"uint256"},{"name":"userOp","type":"tuple","internalType":"struct PackedUserOperation","components":[{"name":"sender","type":"address","internalType":"address"},{"name":"nonce","type":"uint256","internalType":"uint256"},{"name":"initCode","type":"bytes","internalType":"bytes"},{"name":"callData","type":"bytes","internalType":"bytes"},{"name":"accountGasLimits","type":"bytes32","internalType":"bytes32"},{"name":"preVerificationGas","type":"uint256","internalType":"uint256"},{"name":"gasFees","type":"bytes32","internalType":"bytes32"},{"name":"paymasterAndData","type":"bytes","internalType":"bytes"},{"name":"signature","type":"bytes","internalType":"bytes"}]},{"name":"outOpInfo","type":"tuple","internalType":"struct EntryPoint.UserOpInfo","components":[{"name":"mUserOp","type":"tuple","internalType":"struct EntryPoint.MemoryUserOp","components":[{"name":"sender","type":"address","internalType":"address"},{"name":"nonce","type":"uint256","internalType":"uint256"},{"name":"verificationGasLimit","type":"uint256","internalType":"uint256"},{"name":"callGasLimit","type":"uint256","internalType":"uint256"},{"name":"paymasterVerificationGasLimit","type":"uint256","internalType":"uint256"},{"name":"paymasterPostOpGasLimit","type":"uint256","internalType":"uint256"},{"name":"preVerificationGas","type":"uint256","internalType":"uint256"},{"name":"paymaster","type":"address","internalType":"address"},{"name":"maxFeePerGas","type":"uint256","internalType":"uint256"},{"name":"maxPriorityFeePerGas","type":"uint256","internalType":"uint256"}]},{"name":"userOpHash","type":"bytes32","internalType":"bytes32"},{"name":"prefund","type":"uint256","internalType":"uint256"},{"name":"contextOffset","type":"uint256","internalType":"uint256"},{"name":"preOpGas","type":"uint256","internalType":"uint256"}]},{"name":"validatePaymasterPrepayment","type":"bool","internalType":"bool"}],"outputs":[{"name":"validationData","type":"uint256","internalType":"uint256"},{"name":"paymasterValidationData","type":"uint256","internalType":"uint256"},{"name":"paymasterVerificationGasLimit","type":"uint256","internalType":"uint256"}],"stateMutability":"nonpayable"},{"type":"function","name":"addStake","inputs":[{"name":"unstakeDelaySec","type":"uint32","internalType":"uint32"}],"outputs":[],"stateMutability":"payable"},{"type":"function","name":"balanceOf","inputs":[{"name":"account","type":"address","internalType":"address"}],"outputs":[{"name":"","type":"uint256","internalType":"uint256"}],"stateMutability":"view"},{"type":"function","name":"delegateAndRevert","inputs":[{"name":"target","type":"address","internalType":"address"},{"name":"data","type":"bytes","internalType":"bytes"}],"outputs":[],"stateMutability":"nonpayable"},{"type":"function","name":"depositTo","inputs":[{"name":"account","type":"address","internalType":"address"}],"outputs":[],"stateMutability":"payable"},{"type":"function","name":"eip712Domain","inputs":[],"outputs":[{"name":"fields","type":"bytes1","internalType":"bytes1"},{"name":"name","type":"string","internalType":"string"},{"name":"version","type":"string","internalType":"string"},{"name":"chainId","type":"uint256","internalType":"uint256"},{"name":"verifyingContract","type":"address","internalType":"address"},{"name":"salt","type":"bytes32","internalType":"bytes32"},{"name":"extensions","type":"uint256[]","internalType":"uint256[]"}],"stateMutability":"view"},{"type":"function","name":"getCurrentUserOpHash","inputs":[],"outputs":[{"name":"","type":"bytes32","internalType":"bytes32"}],"stateMutability":"view"},{"type":"function","name":"getDepositInfo","inputs":[{"name":"account","type":"address","internalType":"address"}],"outputs":[{"name":"info","type":"tuple","internalType":"struct IStakeManager.DepositInfo","components":[{"name":"deposit","type":"uint256","internalType":"uint256"},{"name":"staked","type":"bool","internalType":"bool"},{"name":"stake","type":"uint112","internalType":"uint112"},{"name":"unstakeDelaySec","type":"uint32","internalType":"uint32"},{"name":"withdrawTime","type":"uint48","internalType":"uint48"}]}],"stateMutability":"view"},{"type":"function","name":"getDomainSeparatorV4","inputs":[],"outputs":[{"name":"","type":"bytes32","internalType":"bytes32"}],"stateMutability":"view"},{"type":"function","name":"getNonce","inputs":[{"name":"sender","type":"address","internalType":"address"},{"name":"key","type":"uint192","internalType":"uint192"}],"outputs":[{"name":"nonce","type":"uint256","internalType":"uint256"}],"stateMutability":"view"},{"type":"function","name":"getPackedUserOpTypeHash","inputs":[],"outputs":[{"name":"","type":"bytes32","internalType":"bytes32"}],"stateMutability":"pure"},{"type":"function","name":"getSenderAddress","inputs":[{"name":"initCode","type":"bytes","internalType":"bytes"}],"outputs":[],"stateMutability":"nonpayable"},{"type":"function","name":"getUserOpHash","inputs":[{"name":"userOp","type":"tuple","internalType":"struct PackedUserOperation","components":[{"name":"sender","type":"address","internalType":"address"},{"name":"nonce","type":"uint256","internalType":"uint256"},{"name":"initCode","type":"bytes","internalType":"bytes"},{"name":"callData","type":"bytes","internalType":"bytes"},{"name":"accountGasLimits","type":"bytes32","internalType":"bytes32"},{"name":"preVerificationGas","type":"uint256","internalType":"uint256"},{"name":"gasFees","type":"bytes32","internalType":"bytes32"},{"name":"paymasterAndData","type":"bytes","internalType":"bytes"},{"name":"signature","type":"bytes","internalType":"bytes"}]}],"outputs":[{"name":"","type":"bytes32","internalType":"bytes32"}],"stateMutability":"view"},{"type":"function","name":"handleAggregatedOps","inputs":[{"name":"opsPerAggregator","type":"tuple[]","internalType":"struct IEntryPoint.UserOpsPerAggregator[]","components":[{"name":"userOps","type":"tuple[]","internalType":"struct PackedUserOperation[]","components":[{"name":"sender","type":"address","internalType":"address"},{"name":"nonce","type":"uint256","internalType":"uint256"},{"name":"initCode","type":"bytes","internalType":"bytes"},{"name":"callData","type":"bytes","internalType":"bytes"},{"name":"accountGasLimits","type":"bytes32","internalType":"bytes32"},{"name":"preVerificationGas","type":"uint256","internalType":"uint256"},{"name":"gasFees","type":"bytes32","internalType":"bytes32"},{"name":"paymasterAndData","type":"bytes","internalType":"bytes"},{"name":"signature","type":"bytes","internalType":"bytes"}]},{"name":"aggregator","type":"address","internalType":"contract IAggregator"},{"name":"signature","type":"bytes","internalType":"bytes"}]},{"name":"beneficiary","type":"address","internalType":"address payable"}],"outputs":[],"stateMutability":"nonpayable"},{"type":"function","name":"handleOps","inputs":[{"name":"ops","type":"tuple[]","internalType":"struct PackedUserOperation[]","components":[{"name":"sender","type":"address","internalType":"address"},{"name":"nonce","type":"uint256","internalType":"uint256"},{"name":"initCode","type":"bytes","internalType":"bytes"},{"name":"callData","type":"bytes","internalType":"bytes"},{"name":"accountGasLimits","type":"bytes32","internalType":"bytes32"},{"name":"preVerificationGas","type":"uint256","internalType":"uint256"},{"name":"gasFees","type":"bytes32","internalType":"bytes32"},{"name":"paymasterAndData","type":"bytes","internalType":"bytes"},{"name":"signature","type":"bytes","internalType":"bytes"}]},{"name":"beneficiary","type":"address","internalType":"address payable"}],"outputs":[],"stateMutability":"nonpayable"},{"type":"function","name":"incrementNonce","inputs":[{"name":"key","type":"uint192","internalType":"uint192"}],"outputs":[],"stateMutability":"nonpayable"},{"type":"function","name":"innerHandleOp","inputs":[{"name":"callData","type":"bytes","internalType":"bytes"},{"name":"opInfo","type":"tuple","internalType":"struct EntryPoint.UserOpInfo","components":[{"name":"mUserOp","type":"tuple","internalType":"struct EntryPoint.MemoryUserOp","components":[{"name":"sender","type":"address","internalType":"address"},{"name":"nonce","type":"uint256","internalType":"uint256"},{"name":"verificationGasLimit","type":"uint256","internalType":"uint256"},{"name":"callGasLimit","type":"uint256","internalType":"uint256"},{"name":"paymasterVerificationGasLimit","type":"uint256","internalType":"uint256"},{"name":"paymasterPostOpGasLimit","type":"uint256","internalType":"uint256"},{"name":"preVerificationGas","type":"uint256","internalType":"uint256"},{"name":"paymaster","type":"address","internalType":"address"},{"name":"maxFeePerGas","type":"uint256","internalType":"uint256"},{"name":"maxPriorityFeePerGas","type":"uint256","internalType":"uint256"}]},{"name":"userOpHash","type":"bytes32","internalType":"bytes32"},{"name":"prefund","type":"uint256","internalType":"uint256"},{"name":"contextOffset","type":"uint256","internalType":"uint256"},{"name":"preOpGas","type":"uint256","internalType":"uint256"}]},{"name":"context","type":"bytes","internalType":"bytes"},{"name":"preGas","type":"uint256","internalType":"uint256"}],"outputs":[{"name":"actualGasCost","type":"uint256","internalType":"uint256"},{"name":"paymasterPostOpGasLimit","type":"uint256","internalType":"uint256"}],"stateMutability":"nonpayable"},{"type":"function","name":"nonceSequenceNumber","inputs":[{"name":"","type":"address","internalType":"address"},{"name":"","type":"uint192","internalType":"uint192"}],"outputs":[{"name":"","type":"uint256","internalType":"uint256"}],"stateMutability":"view"},{"type":"function","name":"senderCreator","inputs":[],"outputs":[{"name":"","type":"address","internalType":"contract ISenderCreator"}],"stateMutability":"view"},{"type":"function","name":"supportsInterface","inputs":[{"name":"interfaceId","type":"bytes4","internalType":"bytes4"}],"outputs":[{"name":"","type":"bool","internalType":"bool"}],"stateMutability":"view"},{"type":"function","name":"unlockStake","inputs":[],"outputs":[],"stateMutability":"nonpayable"},{"type":"function","name":"withdrawStake","inputs":[{"name":"withdrawAddress","type":"address","internalType":"address payable"}],"outputs":[],"stateMutability":"nonpayable"},{"type":"function","name":"withdrawTo","inputs":[{"name":"withdrawAddress","type":"address","internalType":"address payable"},{"name":"withdrawAmount","type":"uint256","internalType":"uint256"}],"outputs":[],"stateMutability":"nonpayable"},{"type":"event","name":"AccountDeployed","inputs":[{"name":"userOpHash","type":"bytes32","indexed":true,"internalType":"bytes32"},{"name":"sender","type":"address","indexed":true,"internalType":"address"},{"name":"factory","type":"address","indexed":false,"internalType":"address"},{"name":"paymaster","type":"address","indexed":false,"internalType":"address"}],"anonymous":false},{"type":"event","name":"BeforeExecution","inputs":[],"anonymous":false},{"type":"event","name":"Deposited","inputs":[{"name":"account","type":"address","indexed":true,"internalType":"address"},{"name":"totalDeposit","type":"uint256","indexed":false,"internalType":"uint256"}],"anonymous":false},{"type":"event","name":"EIP712DomainChanged","inputs":[],"anonymous":false},{"type":"event","name":"EIP7702AccountInitialized","inputs":[{"name":"userOpHash","type":"bytes32","indexed":true,"internalType":"bytes32"},{"name":"sender","type":"address","indexed":true,"internalType":"address"},{"name":"delegate","type":"address","indexed":true,"internalType":"address"}],"anonymous":false},{"type":"event","name":"IgnoredInitCode","inputs":[{"name":"userOpHash","type":"bytes32","indexed":true,"internalType":"bytes32"},{"name":"sender","type":"address","indexed":true,"internalType":"address"},{"name":"unusedFactory","type":"address","indexed":false,"internalType":"address"}],"anonymous":false},{"type":"event","name":"PostOpRevertReason","inputs":[{"name":"userOpHash","type":"bytes32","indexed":true,"internalType":"bytes32"},{"name":"sender","type":"address","indexed":true,"internalType":"address"},{"name":"nonce","type":"uint256","indexed":false,"internalType":"uint256"},{"name":"revertReason","type":"bytes","indexed":false,"internalType":"bytes"}],"anonymous":false},{"type":"event","name":"SignatureAggregatorChanged","inputs":[{"name":"aggregator","type":"address","indexed":true,"internalType":"address"}],"anonymous":false},{"type":"event","name":"StakeLocked","inputs":[{"name":"account","type":"address","indexed":true,"internalType":"address"},{"name":"totalStaked","type":"uint256","indexed":false,"internalType":"uint256"},{"name":"unstakeDelaySec","type":"uint256","indexed":false,"internalType":"uint256"}],"anonymous":false},{"type":"event","name":"StakeUnlocked","inputs":[{"name":"account","type":"address","indexed":true,"internalType":"address"},{"name":"withdrawTime","type":"uint256","indexed":false,"internalType":"uint256"}],"anonymous":false},{"type":"event","name":"StakeWithdrawn","inputs":[{"name":"account","type":"address","indexed":true,"internalType":"address"},{"name":"withdrawAddress","type":"address","indexed":false,"internalType":"address"},{"name":"amount","type":"uint256","indexed":false,"internalType":"uint256"}],"anonymous":false},{"type":"event","name":"UserOperationEvent","inputs":[{"name":"userOpHash","type":"bytes32","indexed":true,"internalType":"bytes32"},{"name":"sender","type":"address","indexed":true,"internalType":"address"},{"name":"paymaster","type":"address","indexed":true,"internalType":"address"},{"name":"nonce","type":"uint256","indexed":false,"internalType":"uint256"},{"name":"success","type":"bool","indexed":false,"internalType":"bool"},{"name":"actualGasCost","type":"uint256","indexed":false,"internalType":"uint256"},{"name":"actualGasUsed","type":"uint256","indexed":false,"internalType":"uint256"}],"anonymous":false},{"type":"event","name":"UserOperationPrefundTooLow","inputs":[{"name":"userOpHash","type":"bytes32","indexed":true,"internalType":"bytes32"},{"name":"sender","type":"address","indexed":true,"internalType":"address"},{"name":"nonce","type":"uint256","indexed":false,"internalType":"uint256"}],"anonymous":false},{"type":"event","name":"UserOperationRevertReason","inputs":[{"name":"userOpHash","type":"bytes32","indexed":true,"internalType":"bytes32"},{"name":"sender","type":"address","indexed":true,"internalType":"address"},{"name":"nonce","type":"uint256","indexed":false,"internalType":"uint256"},{"name":"revertReason","type":"bytes","indexed":false,"internalType":"bytes"}],"anonymous":false},{"type":"event","name":"Withdrawn","inputs":[{"name":"account","type":"address","indexed":true,"internalType":"address"},{"name":"withdrawAddress","type":"address","indexed":false,"internalType":"address"},{"name":"amount","type":"uint256","indexed":false,"internalType":"uint256"}],"anonymous":false},{"type":"error","name":"CallPhaseReverted","inputs":[{"name":"reason","type":"bytes","internalType":"bytes"}]},{"type":"error","name":"DelegateAndRevert","inputs":[{"name":"success","type":"bool","internalType":"bool"},{"name":"ret","type":"bytes","internalType":"bytes"}]},{"type":"error","name":"DepositWithdrawalFailed","inputs":[{"name":"account","type":"address","internalType":"address"},{"name":"withdrawAddress","type":"address","internalType":"address"},{"name":"amount","type":"uint256","internalType":"uint256"},{"name":"revertReason","type":"bytes","internalType":"bytes"}]},{"type":"error","name":"Eip7702SenderNotDelegate","inputs":[{"name":"sender","type":"address","internalType":"address"}]},{"type":"error","name":"Eip7702SenderWithoutCode","inputs":[{"name":"sender","type":"address","internalType":"address"}]},{"type":"error","name":"FailedOp","inputs":[{"name":"opIndex","type":"uint256","internalType":"uint256"},{"name":"reason","type":"string","internalType":"string"}]},{"type":"error","name":"FailedOpWithRevert","inputs":[{"name":"opIndex","type":"uint256","internalType":"uint256"},{"name":"reason","type":"string","internalType":"string"},{"name":"inner","type":"bytes","internalType":"bytes"}]},{"type":"error","name":"InsufficientDeposit","inputs":[{"name":"currentDeposit","type":"uint256","internalType":"uint256"},{"name":"withdrawAmount","type":"uint256","internalType":"uint256"}]},{"type":"error","name":"InvalidPaymaster","inputs":[{"name":"paymaster","type":"address","internalType":"address"}]},{"type":"error","name":"InvalidPaymasterData","inputs":[{"name":"paymasterAndDataLength","type":"uint256","internalType":"uint256"}]},{"type":"error","name":"InvalidPaymasterSignatureLength","inputs":[{"name":"dataLength","type":"uint256","internalType":"uint256"},{"name":"pmSignatureLength","type":"uint256","internalType":"uint256"}]},{"type":"error","name":"InvalidShortString","inputs":[]},{"type":"error","name":"InvalidStake","inputs":[{"name":"msgValue","type":"uint256","internalType":"uint256"},{"name":"currentStake","type":"uint256","internalType":"uint256"}]},{"type":"error","name":"InvalidUnstakeDelay","inputs":[{"name":"newUnstakeDelaySec","type":"uint256","internalType":"uint256"},{"name":"currentUnstakeDelaySec","type":"uint256","internalType":"uint256"}]},{"type":"error","name":"NotStaked","inputs":[{"name":"currentStake","type":"uint256","internalType":"uint256"},{"name":"unstakeDelaySec","type":"uint256","internalType":"uint256"},{"name":"staked","type":"bool","internalType":"bool"}]},{"type":"error","name":"PostOpReverted","inputs":[{"name":"returnData","type":"bytes","internalType":"bytes"}]},{"type":"error","name":"Reentrancy","inputs":[]},{"type":"error","name":"SenderAddressResult","inputs":[{"name":"sender","type":"address","internalType":"address"}]},{"type":"error","name":"SignatureValidationFailed","inputs":[{"name":"aggregator","type":"address","internalType":"address"}]},{"type":"error","name":"StakeNotUnlocked","inputs":[{"name":"withdrawTime","type":"uint256","internalType":"uint256"},{"name":"blockTimestamp","type":"uint256","internalType":"uint256"}]},{"type":"error","name":"StakeWithdrawalFailed","inputs":[{"name":"account","type":"address","internalType":"address"},{"name":"withdrawAddress","type":"address","internalType":"address"},{"name":"amount","type":"uint256","internalType":"uint256"},{"name":"revertReason","type":"bytes","internalType":"bytes"}]},{"type":"error","name":"StringTooLong","inputs":[{"name":"str","type":"string","internalType":"string"}]},{"type":"error","name":"WithdrawalNotDue","inputs":[{"name":"withdrawTime","type":"uint256","internalType":"uint256"},{"name":"blockTimestamp","type":"uint256","internalType":"uint256"}]}],"bytecode":{"object":"0x6101806040523461017d57604051610018604082610181565b600781526020810190664552433433333760c81b82526040519161003d604084610181565b600183526020830191603160f81b8352610056816101a4565b610120526100638461033f565b61014052519020918260e05251902080610100524660a0526040519060208201927f8b73c3c69bb8fe3d512ecc4cf759cc79239f7b179b0ffacaa9a75d522b39400f8452604083015260608201524660808201523060a082015260a081526100cc60c082610181565b5190206080523060c0526040516103ee8082016001600160401b038111838210176101695782916131f1833903905ff0801561015e5761016052604051612d799081610478823960805181611dd7015260a05181611e94015260c05181611da8015260e05181611e2601526101005181611e4c01526101205181610aa801526101405181610ad1015261016051815050f35b6040513d5f823e3d90fd5b634e487b7160e01b5f52604160045260245ffd5b5f80fd5b601f909101601f19168101906001600160401b0382119082101761016957604052565b908151602081105f1461021e575090601f8151116101de5760208151910151602082106101cf571790565b5f198260200360031b1b161790565b604460209160405192839163305a27a960e01b83528160048401528051918291826024860152018484015e5f828201840152601f01601f19168101030190fd5b6001600160401b03811161016957600254600181811c91168015610335575b602082101461032157601f81116102ee575b50602092601f821160011461028d57928192935f92610282575b50508160011b915f199060031b1c19161760025560ff90565b015190505f80610269565b601f1982169360025f52805f20915f5b8681106102d657508360019596106102be575b505050811b0160025560ff90565b01515f1960f88460031b161c191690555f80806102b0565b9192602060018192868501518155019401920161029d565b60025f52601f60205f20910160051c810190601f830160051c015b818110610316575061024f565b5f8155600101610309565b634e487b7160e01b5f52602260045260245ffd5b90607f169061023d565b908151602081105f1461036a575090601f8151116101de5760208151910151602082106101cf571790565b6001600160401b03811161016957600354600181811c9116801561046d575b602082101461032157601f811161043a575b50602092601f82116001146103d957928192935f926103ce575b50508160011b915f199060031b1c19161760035560ff90565b015190505f806103b5565b601f1982169360035f52805f20915f5b868110610422575083600195961061040a575b505050811b0160035560ff90565b01515f1960f88460031b161c191690555f80806103fc565b919260206001819286850151815501940192016103e9565b60035f52601f60205f20910160051c810190601f830160051c015b818110610462575061039b565b5f8155600101610455565b90607f169061038956fe60a0806040526004361015610025575b50361561001a575f80fd5b61002333611cf0565b005b5f6080525f3560e01c90816301ffc9a714611647575080630396cb601461148957806309ccb8801461145e5780630bd28e3b1461140d5780630da826611461101f57806313c65a6e14611003578063154e58dc14610fc75780631b2e01b814610f6f578063205c287814610e5f57806321e60b3714610d8357806322cdde4c14610d3b57806335567e1a14610cd55780635287ce1214610be957806370a0823114610bac578063765e827f1461013d57806384b0196e14610a8e578063850aaf6214610a4d5780639b249f6914610955578063b0a398d114610935578063b760faf914610913578063bb9fe6bf14610823578063c23a5cea14610684578063c579f76b146101575763dbed18e01461013d575f61000f565b346101515761014b36611877565b91611bec565b60805180fd5b34610151576102203660031901126101515760043560243567ffffffffffffffff8111610151578060040161012060031983360301126101515761019a366117ac565b906102043591821515830361015157608051905a928151906101bc8282611f01565b604051976101c982611ac0565b9860208501998a52806040526040840151906effffffffffffffffffffffffffffff8260c08701511760608701511760808701511760a08701511761010087015117610120870151171161063b575088809a61024686610100604082015160608301510160808301510160a08301510160c0830151019101510290565b90816040890152856001600160a01b0360e08a516102768c61026f6044868551169a0187611ece565b918c612840565b0151169160805190831561060c575b8a51516001600160a01b03169e8f9160805150604051948591519460208301957f19822f7c00000000000000000000000000000000000000000000000000000000875260248401926102d693612439565b03601f19810185526102e89085611712565b6080519083855191608051906084013560801c94602095f19d608051519e3d602003610603575b836040521561052757505050156104c6575b50506001600160a01b038451166020850151906080515260016020526040608051206001600160c01b038260401c165f5260205267ffffffffffffffff60405f209182549261036f84611a45565b9055160361047a575a87031161042e576060966001600160a01b0360e05a9501511615159081610426575b50610409575b50506103ad905a90611a53565b926073840293808504607314901517156103f15760609660a46080926064978a8601525a900391013501910152604051936080515084526020840152046040820152f35b634e487b7160e01b6080515260116004526024608051fd5b61041c9296506103ad9450908391612049565b92909490886103a0565b90508a61039a565b60849060405190631101335b60e11b8252600482015260406024820152601e60448201527f41413236206f76657220766572696669636174696f6e4761734c696d697400006064820152fd5b60848260405190631101335b60e11b8252600482015260406024820152601a60448201527f4141323520696e76616c6964206163636f756e74206e6f6e63650000000000006064820152fd5b6104cf916123e2565b156104db578a80610321565b60848260405190631101335b60e11b8252600482015260406024820152601760448201527f41413231206469646e2774207061792070726566756e640000000000000000006064820152fd5b8791903b61057b5760848260405190631101335b60e11b8252600482015260406024820152601960448201527f41413230206163636f756e74206e6f74206465706c6f796564000000000000006064820152fd5b3d9061080082116105f9575b602082850101604052818452608051903e6105f56040519283926365c8fd4d60e01b8452600484015260606024840152600d60648401527f4141323320726576657274656400000000000000000000000000000000000000608484015260a0604484015260a48301906118df565b0390fd5b6108009150610587565b5060805161030f565b6080805187905251602081905260409020549091508481111561063457506080515b90610285565b840361062e565b8083631101335b60e11b60849352600482015260406024820152601860448201527f41413934206761732076616c756573206f766572666c6f7700000000000000006064820152fd5b346101515760203660031901126101515761069d611796565b33608051526080516020526001604060805120019081549165ffffffffffff6dffffffffffffffffffffffffffff8460081c16936106eb60ff821663ffffffff8360781c1687801515611d49565b60981c1680156107f0574281116107bd575080547fffffffffffffff000000000000000000000000000000000000000000000000ff169055604080516001600160a01b03831681526020810184905233917fb7c918e0e249f999e965cafeb6c664271b3f4317d296461500e71da39f0cbda391a2608051808080856001600160a01b0386165af161077a611a60565b90156107865760805180f35b6105f5906040519384937f0dcf087c0000000000000000000000000000000000000000000000000000000085523360048601611a8f565b7f561d33120000000000000000000000000000000000000000000000000000000060805152600452426024526044608051fd5b7ffbd021d60000000000000000000000000000000000000000000000000000000060805152600452426024526044608051fd5b3461015157608051366003190112610151573360805152608051602052600160406080512001805461088763ffffffff8260781c16918260ff6dffffffffffffffffffffffffffff8360081c16921691610881838383811515611d49565b82611d49565b65ffffffffffff4216019065ffffffffffff82116103f15780547fffffffffffffff000000000000ffffffffffffffffffffffffffffffffffff001665ffffffffffff60981b609884901b1617905560405165ffffffffffff909116815233907ffa9b3c14cc825c412c9ed81b3ba365a5b459439403f18829e572ed53a4180f0a90602090a260805180f35b60203660031901126101515761092f61092a611796565b611cf0565b60805180f35b34610151576080513660031901126101515760206080515c604051908152f35b346101515760203660031901126101515760043567ffffffffffffffff811161015157602061098b6109c0923690600401611903565b6001600160a01b0361099b6119bb565b1690604051809581948293632b870d1b60e11b84528760048501526024840191611cd0565b0391608051905af18015610a40576001600160a01b039160805191610a11575b507f6ca7b8060000000000000000000000000000000000000000000000000000000060805152166004526024608051fd5b610a33915060203d602011610a39575b610a2b8183611712565b810190611cb1565b826109e0565b503d610a21565b6040513d608051823e3d90fd5b3461015157604036600319011261015157610a66611796565b5060243567ffffffffffffffff811161015157610a87903690600401611903565b5050611c2d565b346101515760805136600319011261015157610b4c610acc7f0000000000000000000000000000000000000000000000000000000000000000612631565b610af57f0000000000000000000000000000000000000000000000000000000000000000612770565b60405190602090610b5a90610b0a8385611712565b60805184525f3681376040519586957f0f00000000000000000000000000000000000000000000000000000000000000875260e08588015260e08701906118df565b9085820360408701526118df565b46606085015230608085015260805160a085015283810360c08501528180845192838152019301916080515b828110610b9557505050500390f35b835185528695509381019392810192600101610b86565b34610151576020366003190112610151576001600160a01b03610bcd611796565b1660805152608051602052602060406080512054604051908152f35b34610151576020366003190112610151576001600160a01b03610c0a611796565b604051610c16816116c5565b608051815260805160208201526080516040820152608051606082015260808051910152166080515260805160205260a060406080512065ffffffffffff604051610c60816116c5565b63ffffffff60018454948584520154916dffffffffffffffffffffffffffff6020820160ff8516151581526040830190828660081c1682528660806060860195878960781c168752019660981c1686526040519788525115156020880152511660408601525116606084015251166080820152f35b34610151576040366003190112610151576020610cf0611796565b6001600160a01b03610d006116af565b911660805152600182526040608051206001600160c01b0382165f52825260405f20546040519167ffffffffffffffff199060401b16178152f35b346101515760203660031901126101515760043567ffffffffffffffff811161015157610120600319823603011261015157610d7b602091600401611ac0565b604051908152f35b34610151576102003660031901126101515760243567ffffffffffffffff8111610151576101208160040191600319903603011261015157606090610dc7366117ac565b60805150608051916001600160a01b0360e08351610de58185611f01565b610dee84611ac0565b6020860152610e1e81610100604082015160608301510160808301510160a08301510160c0830151019101510290565b6040860152015116610e49575b50506040519060805150608051825260208201526080516040820152f35b610e569250600435612049565b90508280610e2b565b3461015157604036600319011261015157610e78611796565b602435903360805152608051602052604060805120828154808211610f3d5790610ea191611a53565b9055604080516001600160a01b03831681526020810184905233917fd1c19fbcd4551a5edfb66d43d2e337c04837afda3482b42bdf569a8fccdae5fb91a2608051808080856001600160a01b0386165af1610efa611a60565b9015610f065760805180f35b6105f5906040519384937f9f3d69330000000000000000000000000000000000000000000000000000000085523360048601611a8f565b7f25c3f46e00000000000000000000000000000000000000000000000000000000608051526004526024526044608051fd5b3461015157604036600319011261015157610f88611796565b6001600160a01b03610f986116af565b91166080515260016020526001600160c01b0360406080512091165f52602052602060405f2054604051908152f35b34610151576080513660031901126101515760206040517f29a0bca4af4be3421398da00295e58e6d7de38cb492214754cb6a47507dd6f8e8152f35b3461015157608051366003190112610151576020610d7b611d9e565b34611375576102203660031901126113755760043567ffffffffffffffff811161137557611051903690600401611750565b3660231901906101c082126113755761014060405192611070846116c5565b1261137557604051611081816116f5565b6024356001600160a01b038116810361137557815260443560208201526064356040820152608435606082015260a435608082015260c43560a082015260e43560c0820152610104356001600160a01b03811681036113755760e08201526101243561010082015261014435610120820152825261016435602083015260408201906101843582526101a435606084015260808301906101c43582526101e43567ffffffffffffffff81116113755761113e903690600401611750565b90845190606082015181519081611381575b505050505a61020435039151809201905f925a95516101008101516101208201514801808210156113795750935b61119d6001600160a01b0360e0840151169360608401519083036123c3565b01925f9280611225575050516001600160a01b0316955b5a900301010291518281105f146111f1577fdeadaa5100000000000000000000000000000000000000000000000000000000608051526020608051fd5b604093836112189203906001600160a01b03165f525f60205260405f209081540180915590565b5082519182526020820152f35b90979181988051611239575b5050506111b4565b9196509192505a9560a05a930191825190823b15611375575f9161129b91836040519586809581947f7c627b210000000000000000000000000000000000000000000000000000000083528460048401526080602484015260848301906118df565b8d8d0260448301528d60648301520393f19081611361575b50611345573d610800811161133c575b6105f59060405190602081830101604052808252608051602083013e6040519182916365c8fd4d60e01b8352608051600484015260606024840152601460648401527f4141353020706f73744f70207265766572746564000000000000000000000000608484015260a0604484015260a48301906118df565b506108006112c3565b611358915a9003955a90039051906123c3565b90878080611231565b5f61136b91611712565b5f608052896112b3565b5f80fd5b90509361117e565b5f80949360206001600160a01b0383965116910192f1156113a55784808080611150565b3d6108008111611404575b6105f590604051906020818301016040528082525f602083013e6040519182917f462c71b20000000000000000000000000000000000000000000000000000000083526020600484015260248301906118df565b506108006113b0565b34611375576020366003190112611375576004356001600160c01b038116810361137557335f5260016020526001600160c01b0360405f2091165f5260205260405f2061145a8154611a45565b9055005b34611375575f3660031901126113755760206114786119bb565b6001600160a01b0360405191168152f35b60203660031901126113755760043563ffffffff811680820361137557335f525f6020526dffffffffffffffffffffffffffff60405f20926114eb60018501549163ffffffff8360781c16906114e28282881515611931565b81861015611931565b60081c1634810192838211611633576115268261150e6116009434881515611972565b346dffffffffffffffffffffffffffff871115611972565b5460405190611534826116c5565b8152600160208083018281526dffffffffffffffffffffffffffff87166040808601918252606086018881525f6080880181815233825295819052919091209551865591519490930180549351915192517fffffffffffffff0000000000000000000000000000000000000000000000000090941660ff951515959095169490941760089190911b6effffffffffffffffffffffffffff00161760789190911b72ffffffff000000000000000000000000000000161760989190911b65ffffffffffff60981b16179055565b60405191825260208201527fa5ae833d0bb1dcd632d98a8b70973e8516812898e19bf27b70071ebc8dc52c0160403392a2005b634e487b7160e01b5f52601160045260245ffd5b3461137557602036600319011261137557600435907fffffffff000000000000000000000000000000000000000000000000000000008216809203611375577f01ffc9a700000000000000000000000000000000000000000000000000000000602092148152f35b602435906001600160c01b038216820361137557565b60a0810190811067ffffffffffffffff8211176116e157604052565b634e487b7160e01b5f52604160045260245ffd5b610140810190811067ffffffffffffffff8211176116e157604052565b90601f8019910116810190811067ffffffffffffffff8211176116e157604052565b67ffffffffffffffff81116116e157601f01601f191660200190565b81601f820112156113755780359061176782611734565b926117756040519485611712565b8284526020838301011161137557815f926020809301838601378301015290565b600435906001600160a01b038216820361137557565b60431901906101c08212611375576040516117c6816116c5565b610140819312611375576040516117dc816116f5565b6044356001600160a01b03811681036113755781526064356020820152608435604082015260a435606082015260c435608082015260e43560a08201526101043560c0820152610124356001600160a01b03811681036113755760e0820152610144356101008201526101643561012082015281526101843560208201526101a43560408201526101c435606082015260806101e435910152565b9060406003198301126113755760043567ffffffffffffffff81116113755760040182601f820112156113755780359267ffffffffffffffff8411611375576020808301928560051b0101116113755791906024356001600160a01b03811681036113755790565b805180835260209291819084018484015e5f828201840152601f01601f1916010190565b9181601f840112156113755782359167ffffffffffffffff8311611375576020838186019501011161137557565b1561193a575050565b9063ffffffff80927fe1823bce000000000000000000000000000000000000000000000000000000005f52166004521660245260445ffd5b1561197b575050565b6dffffffffffffffffffffffffffff92507f0e10009c000000000000000000000000000000000000000000000000000000005f526004521660245260445ffd5b6040517f09ccb880000000000000000000000000000000000000000000000000000000008152602081600481305afa908115611a3a575f916119fb575090565b90506020813d602011611a32575b81611a1660209383611712565b8101031261137557516001600160a01b03811681036113755790565b3d9150611a09565b6040513d5f823e3d90fd5b5f1981146116335760010190565b9190820391821161163357565b3d15611a8a573d90611a7182611734565b91611a7f6040519384611712565b82523d5f602084013e565b606090565b90926001600160a01b0360809381611abd9796168452166020830152604082015281606082015201906118df565b90565b604290611acc81612305565b611ad4611d9e565b91611ade81611eba565b918015611bcf57905b60c0611af66060830183611ece565b90816040519182372091611b16611b1060e0830183611ece565b90612bd4565b92604051946001600160a01b0360208701977f29a0bca4af4be3421398da00295e58e6d7de38cb492214754cb6a47507dd6f8e895216604087015260208301356060870152608086015260a085015260808101358285015260a081013560e085015201356101008301526101208201526101208152611b9761014082611712565b519020604051917f19010000000000000000000000000000000000000000000000000000000000008352600283015260228201522090565b50611bdd6040820182611ece565b90816040519182372090611ae7565b50505033321480611c24575b611c2d577fab143c06000000000000000000000000000000000000000000000000000000005f5260045ffd5b50333b15611bf8565b60846040517f08c379a000000000000000000000000000000000000000000000000000000000815260206004820152602760248201527f53484f554c44204e4f542042452043414c4c454420445552494e472053494d5560448201527f4c4154494f4e53000000000000000000000000000000000000000000000000006064820152fd5b9081602091031261137557516001600160a01b03811681036113755790565b908060209392818452848401375f828201840152601f01601f1916010190565b7f2da466a7b24304f47e87fa2e1e5a81b9831ce54fec19055ce277ca2f39ba42c460206001600160a01b03611d3d34856001600160a01b03165f525f60205260405f209081540180915590565b936040519485521692a2565b15611d5357505050565b906dffffffffffffffffffffffffffff63ffffffff927f8421e8e5000000000000000000000000000000000000000000000000000000005f521660045216602452151560445260645ffd5b6001600160a01b037f000000000000000000000000000000000000000000000000000000000000000016301480611e91575b15611df9577f000000000000000000000000000000000000000000000000000000000000000090565b60405160208101907f8b73c3c69bb8fe3d512ecc4cf759cc79239f7b179b0ffacaa9a75d522b39400f82527f000000000000000000000000000000000000000000000000000000000000000060408201527f000000000000000000000000000000000000000000000000000000000000000060608201524660808201523060a082015260a08152611e8b60c082611712565b51902090565b507f00000000000000000000000000000000000000000000000000000000000000004614611dd0565b356001600160a01b03811681036113755790565b903590601e1981360301821215611375570180359067ffffffffffffffff82116113755760200191813603831361137557565b611f85906001600160a01b03611f1682611eba565b1683526020810135602084015260808101356fffffffffffffffffffffffffffffffff8160801c91166060850152604084015260a081013560c084015260c08101356fffffffffffffffffffffffffffffffff8160801c911661010085015261012084015260e0810190611ece565b919082611f9157505050565b6034831061201d578260141161137557803560601c926024811061137557601482013590603411611375576fffffffffffffffffffffffffffffffff60248193013560801c1660a084015260801c1660808201528115611ff15760e00152565b507fd8ccb292000000000000000000000000000000000000000000000000000000005f5260045260245ffd5b827f120aaab5000000000000000000000000000000000000000000000000000000005f5260045260245ffd5b9192905a9284516001600160a01b0360e0820151169061206f60408801928351906123e2565b156122a1575f6120c396976120d160808394015194604051998a916020850151905190602084019a7f52b7512c000000000000000000000000000000000000000000000000000000008c5260248501612439565b03601f1981018a5289611712565b51858260806001600160a01b0360e085015116930151928a5193f1943d93845f833e51938151966040830197885191156122185760401490811591612203575b5061217a57601f801991011601928360405294955a900311612131575050565b60849250631101335b60e11b8252600482015260406024820152602060448201527f41413336206f76657220706d566572696669636174696f6e4761734c696d69746064820152fd5b3d8461080082116121f9575b604051916020818401016040528083525f602084013e6105f56040519283926365c8fd4d60e01b8452600484015260606024840152601d60648401527f41413335206d616c666f726d6564207061796d61737465722064617461000000608484015260a0604484015260a48301906118df565b6108009150612186565b9050601f80199101166060018114155f612111565b3d866108008211612297575b604051916020818401016040528083525f602084013e6105f56040519283926365c8fd4d60e01b8452600484015260606024840152600d60648401527f4141333320726576657274656400000000000000000000000000000000000000608484015260a0604484015260a48301906118df565b6108009150612224565b60848360405190631101335b60e11b8252600482015260406024820152601e60448201527f41413331207061796d6173746572206465706f73697420746f6f206c6f7700006064820152fd5b90939293848311611375578411611375578101920390565b6123126040820182611ece565b909161231e8284612525565b156123bc5761232f61233491611eba565b612567565b916014821161236b57505060405160208101916bffffffffffffffffffffffff199060601b16825260148152611e8b603482611712565b81601411611375576020611e8b91604051938491838301966bffffffffffffffffffffffff199060601b168752601460131983019101603484013781015f838201520301601f198101835282611712565b5050505f90565b90619c4082018111156123dc57606491600a9103020490565b50505f90565b6001600160a01b03165f525f60205260405f209081548181106123bc57039055600190565b9035601e198236030181121561137557016020813591019167ffffffffffffffff821161137557813603831361137557565b939291936060815281356001600160a01b0381168103611375576040926001600160a01b0361251b92166060840152602081013560808401526125086124fc6124bc61249d61248a88860186612407565b61012060a08a0152610180890191611cd0565b6124aa6060860186612407565b888303605f190160c08a015290611cd0565b608084013560e087015260a084013561010087015260c08401356101208701526124e960e0850185612407565b878303605f190161014089015290611cd0565b91610100810190612407565b848303605f190161016086015290611cd0565b9460208201520152565b9060021161256257356bffffffffffffffffffffffff19167f77020000000000000000000000000000000000000000000000000000000000001490565b505f90565b60175f80833c5f51907fef010000000000000000000000000000000000000000000000000000000000007fffffff00000000000000000000000000000000000000000000000000000000008316036125c9575060481c6001600160a01b031690565b806001600160a01b03913b15612605577f9f4e4cc9000000000000000000000000000000000000000000000000000000005f521660045260245ffd5b7fe5819b95000000000000000000000000000000000000000000000000000000005f521660045260245ffd5b60ff81146126905760ff811690601f82116126685760405191612655604084611712565b6020808452838101919036833783525290565b7fb3512b0c000000000000000000000000000000000000000000000000000000005f5260045ffd5b506040515f6002548060011c9160018216918215612766575b60208410831461275257838552849290811561273357506001146126d4575b611abd92500382611712565b5060025f90815290917f405787fa12a823e0f2b7631cc41b3ba8828b3321ca811111fa75cd3aa3bb5ace5b818310612717575050906020611abd928201016126c8565b60209193508060019154838588010152019101909183926126ff565b60209250611abd94915060ff191682840152151560051b8201016126c8565b634e487b7160e01b5f52602260045260245ffd5b92607f16926126a9565b60ff81146127945760ff811690601f82116126685760405191612655604084611712565b506040515f6003548060011c9160018216918215612836575b60208410831461275257838552849290811561273357506001146127d757611abd92500382611712565b5060035f90815290917fc2575a0e9e593c00f959f8c92f12db2869c3395a3b0502d05e2516446f71f85b5b81831061281a575050906020611abd928201016126c8565b6020919350806001915483858801015201910190918392612802565b92607f16926127ad565b929091925f82612852575b5050505050565b6001600160a01b0384515116946128698482612525565b612add5760148410612a915783601411612a8d57803560601c93863b612a57576128cd916020916001600160a01b036128a06119bb565b16908560408a51015192604051809781968295632b870d1b60e11b84528960048501526024840191611cd0565b0393f1918215612a4b5791612a2c575b506001600160a01b03811680156129e0578503612994573b15612948575060407fd51a9c61267aa6196961883ecf5ff2da6619c37dac0fa92122513fb32c032d2d916001600160a01b0360e06020860151955101511682519182526020820152a35f8080808061284b565b60849060405190631101335b60e11b8252600482015260406024820152602060448201527f4141313520696e6974436f6465206d757374206372656174652073656e6465726064820152fd5b60848260405190631101335b60e11b8252600482015260406024820152602060448201527f4141313420696e6974436f6465206d7573742072657475726e2073656e6465726064820152fd5b60848360405190631101335b60e11b8252600482015260406024820152601b60448201527f4141313320696e6974436f6465206661696c6564206f72204f4f4700000000006064820152fd5b612a45915060203d602011610a3957610a2b8183611712565b5f6128dd565b604051903d90823e3d90fd5b50505050906020807fa39bcda08ffd11bafb11c4f170ef24fc6dc1a9d1b0394d90dbd19e0b919050e992015192604051908152a3565b5080fd5b60848360405190631101335b60e11b8252600482015260406024820152601760448201527f4141393920696e6974436f646520746f6f20736d616c6c0000000000000000006064820152fd5b915093929160148111612af1575050505050565b6001600160a01b03612b016119bb565b16906040845101518160141161137557823b1561137557612b6a935f80946040518097819682957fc09ad0d90000000000000000000000000000000000000000000000000000000084528c60048501526040602485015260146044850192601319019101611cd0565b0393f18015611a3a57612bbf575b507f7c9f9ade6a03a0bba484e52df872467a270e798ffc1adab9dfaa8d0e627f05446001600160a01b036020612bad85612567565b93015192169380a45f8080808061284b565b612bcc9193505f90611712565b5f915f612b78565b612bde8282612c1a565b80612bef5750816040519182372090565b604051920390600919820190833767117192d14ba1cb2b60c11b828201600919015260011901902090565b603e82106123dc5767117192d14ba1cb2b60c11b7fffffffffffffffff000000000000000000000000000000000000000000000000612c5f84600719810181866122ed565b90358281169160088110612d2e575b505016036123dc5781612c8791816009198101916122ed565b90357fffff00000000000000000000000000000000000000000000000000000000000081169160028110612cf9575b505060f01c90603d1981018211612ccb575090565b7f07b9a191000000000000000000000000000000000000000000000000000000005f5260045260245260445ffd5b7fffff0000000000000000000000000000000000000000000000000000000000009250829060020360031b1b16165f80612cb6565b839250829060080360031b1b16165f80612c6e56fea2646970667358221220cdd377a4025b6bffab4f0b019ddf26401e379e1ecd0a597f54169dbe380bc53364736f6c634300081c003360a08060405234602f57336080526103ba908161003482396080518181816098015281816101b701526102310152f35b5f80fdfe60806040526004361015610011575f80fd5b5f3560e01c8063570e1a36146101db578063b0d691fe146101985763c09ad0d91461003a575f80fd5b34610194576040366003190112610194576004356001600160a01b03811681036101945760243567ffffffffffffffff81116101945736602382011215610194575f91610092839236906024816004013591016102b4565b906100ca7f000000000000000000000000000000000000000000000000000000000000000030336001600160a01b0383163314610339565b82602083519301915af1156100db57005b3d610800811161018b575b60c460405160208382010160405282815260208101925f843e6040519283917f65c8fd4d0000000000000000000000000000000000000000000000000000000083525f600484015260606024840152601f60648401527f4141313320454950373730322073656e64657220696e6974206661696c656400608484015260a060448401525180918160a48501528484015e5f828201840152601f01601f19168101030190fd5b506108006100e6565b5f80fd5b34610194575f3660031901126101945760206040516001600160a01b037f0000000000000000000000000000000000000000000000000000000000000000168152f35b346101945760203660031901126101945760043567ffffffffffffffff811161019457366023820112156101945780600401359067ffffffffffffffff8211610194573660248383010111610194575f916102637f000000000000000000000000000000000000000000000000000000000000000030336001600160a01b0383163314610339565b80601411610194576020916102825f92369060131901603884016102b4565b90826024858451940192013560601c5af16102ac575b6020906001600160a01b0360405191168152f35b505f51610298565b92919267ffffffffffffffff821161030c5760405191601f8101601f19908116603f0116830167ffffffffffffffff81118482101761030c57604052829481845281830111610194578281602093845f960137010152565b7f4e487b71000000000000000000000000000000000000000000000000000000005f52604160045260245ffd5b1561034357505050565b6001600160a01b0392918380927ffe34a6d3000000000000000000000000000000000000000000000000000000005f5216600452166024521660445260645ffdfea2646970667358221220609c245b7ad0600ab28ca9e5b576771821ccac7702741ae3a66a45a908201d0c64736f6c634300081c0033","linkReferences":{}},"methodIdentifiers":{"_paymasterValidation(uint256,(address,uint256,bytes,bytes,bytes32,uint256,bytes32,bytes,bytes),((address,uint256,uint256,uint256,uint256,uint256,uint256,address,uint256,uint256),bytes32,uint256,uint256,uint256))":"21e60b37","_validatePrepayment(uint256,(address,uint256,bytes,bytes,bytes32,uint256,bytes32,bytes,bytes),((address,uint256,uint256,uint256,uint256,uint256,uint256,address,uint256,uint256),bytes32,uint256,uint256,uint256),bool)":"c579f76b","addStake(uint32)":"0396cb60","balanceOf(address)":"70a08231","delegateAndRevert(address,bytes)":"850aaf62","depositTo(address)":"b760faf9","eip712Domain()":"84b0196e","getCurrentUserOpHash()":"b0a398d1","getDepositInfo(address)":"5287ce12","getDomainSeparatorV4()":"13c65a6e","getNonce(address,uint192)":"35567e1a","getPackedUserOpTypeHash()":"154e58dc","getSenderAddress(bytes)":"9b249f69","getUserOpHash((address,uint256,bytes,bytes,bytes32,uint256,bytes32,bytes,bytes))":"22cdde4c","handleAggregatedOps(((address,uint256,bytes,bytes,bytes32,uint256,bytes32,bytes,bytes)[],address,bytes)[],address)":"dbed18e0","handleOps((address,uint256,bytes,bytes,bytes32,uint256,bytes32,bytes,bytes)[],address)":"765e827f","incrementNonce(uint192)":"0bd28e3b","innerHandleOp(bytes,((address,uint256,uint256,uint256,uint256,uint256,uint256,address,uint256,uint256),bytes32,uint256,uint256,uint256),bytes,uint256)":"0da82661","nonceSequenceNumber(address,uint192)":"1b2e01b8","senderCreator()":"09ccb880","supportsInterface(bytes4)":"01ffc9a7","unlockStake()":"bb9fe6bf","withdrawStake(address)":"c23a5cea","withdrawTo(address,uint256)":"205c2878"},"id":30}