{"abi":[{"type":"constructor","inputs":[],"stateMutability":"nonpayable"},{"type":"function","name":"binarySearchCallGas","inputs":[{"name":"entryPointSimulation","type":"address","internalType":"address"},{"name":"entryPoint","type":"address","internalType":"address"},{"name":"queuedUserOps","type":"tuple[]","internalType":"struct PackedUserOperation[]","components":[{"name":"sender","type":"address","internalType":"address"},{"name":"nonce","type":"uint256","internalType":"uint256"},{"name":"initCode","type":"bytes","internalType":"bytes"},{"name":"callData","type":"bytes","internalType":"bytes"},{"name":"accountGasLimits","type":"bytes32","internalType":"bytes32"},{"name":"preVerificationGas","type":"uint256","internalType":"uint256"},{"name":"gasFees","type":"bytes32","internalType":"bytes32"},{"name":"paymasterAndData","type":"bytes","internalType":"bytes"},{"name":"signature","type":"bytes","internalType":"bytes"}]},{"name":"targetUserOp","type":"tuple","internalType":"struct PackedUserOperation","components":[{"name":"sender","type":"address","internalType":"address"},{"name":"nonce","type":"uint256","internalType":"uint256"},{"name":"initCode","type":"bytes","internalType":"bytes"},{"name":"callData","type":"bytes","internalType":"bytes"},{"name":"accountGasLimits","type":"bytes32","internalType":"bytes32"},{"name":"preVerificationGas","type":"uint256","internalType":"uint256"},{"name":"gasFees","type":"bytes32","internalType":"bytes32"},{"name":"paymasterAndData","type":"bytes","internalType":"bytes"},{"name":"signature","type":"bytes","internalType":"bytes"}]},{"name":"initialMinGas","type":"uint256","internalType":"uint256"},{"name":"toleranceDelta","type":"uint256","internalType":"uint256"},{"name":"gasAllowance","type":"uint256","internalType":"uint256"}],"outputs":[{"name":"","type":"tuple","internalType":"struct IEntryPointSimulations.BinarySearchResult","components":[{"name":"resultType","type":"uint8","internalType":"enum IEntryPointSimulations.BinarySearchResultType"},{"name":"successData","type":"tuple","internalType":"struct IEntryPointSimulations.BinarySearchSuccess","components":[{"name":"gasUsed","type":"uint256","internalType":"uint256"},{"name":"success","type":"bool","internalType":"bool"},{"name":"returnData","type":"bytes","internalType":"bytes"}]},{"name":"outOfGasData","type":"tuple","internalType":"struct IEntryPointSimulations.BinarySearchOutOfGas","components":[{"name":"optimalGas","type":"uint256","internalType":"uint256"},{"name":"minGas","type":"uint256","internalType":"uint256"},{"name":"maxGas","type":"uint256","internalType":"uint256"}]}]}],"stateMutability":"nonpayable"},{"type":"function","name":"binarySearchPaymasterVerificationGas","inputs":[{"name":"entryPointSimulation","type":"address","internalType":"address"},{"name":"entryPoint","type":"address","internalType":"address payable"},{"name":"queuedUserOps","type":"tuple[]","internalType":"struct PackedUserOperation[]","components":[{"name":"sender","type":"address","internalType":"address"},{"name":"nonce","type":"uint256","internalType":"uint256"},{"name":"initCode","type":"bytes","internalType":"bytes"},{"name":"callData","type":"bytes","internalType":"bytes"},{"name":"accountGasLimits","type":"bytes32","internalType":"bytes32"},{"name":"preVerificationGas","type":"uint256","internalType":"uint256"},{"name":"gasFees","type":"bytes32","internalType":"bytes32"},{"name":"paymasterAndData","type":"bytes","internalType":"bytes"},{"name":"signature","type":"bytes","internalType":"bytes"}]},{"name":"targetUserOp","type":"tuple","internalType":"struct PackedUserOperation","components":[{"name":"sender","type":"address","internalType":"address"},{"name":"nonce","type":"uint256","internalType":"uint256"},{"name":"initCode","type":"bytes","internalType":"bytes"},{"name":"callData","type":"bytes","internalType":"bytes"},{"name":"accountGasLimits","type":"bytes32","internalType":"bytes32"},{"name":"preVerificationGas","type":"uint256","internalType":"uint256"},{"name":"gasFees","type":"bytes32","internalType":"bytes32"},{"name":"paymasterAndData","type":"bytes","internalType":"bytes"},{"name":"signature","type":"bytes","internalType":"bytes"}]},{"name":"initialMinGas","type":"uint256","internalType":"uint256"},{"name":"toleranceDelta","type":"uint256","internalType":"uint256"},{"name":"gasAllowance","type":"uint256","internalType":"uint256"}],"outputs":[{"name":"","type":"tuple","internalType":"struct IEntryPointSimulations.BinarySearchResult","components":[{"name":"resultType","type":"uint8","internalType":"enum IEntryPointSimulations.BinarySearchResultType"},{"name":"successData","type":"tuple","internalType":"struct IEntryPointSimulations.BinarySearchSuccess","components":[{"name":"gasUsed","type":"uint256","internalType":"uint256"},{"name":"success","type":"bool","internalType":"bool"},{"name":"returnData","type":"bytes","internalType":"bytes"}]},{"name":"outOfGasData","type":"tuple","internalType":"struct IEntryPointSimulations.BinarySearchOutOfGas","components":[{"name":"optimalGas","type":"uint256","internalType":"uint256"},{"name":"minGas","type":"uint256","internalType":"uint256"},{"name":"maxGas","type":"uint256","internalType":"uint256"}]}]}],"stateMutability":"nonpayable"},{"type":"function","name":"binarySearchVerificationGas","inputs":[{"name":"entryPointSimulation","type":"address","internalType":"address"},{"name":"entryPoint","type":"address","internalType":"address payable"},{"name":"queuedUserOps","type":"tuple[]","internalType":"struct PackedUserOperation[]","components":[{"name":"sender","type":"address","internalType":"address"},{"name":"nonce","type":"uint256","internalType":"uint256"},{"name":"initCode","type":"bytes","internalType":"bytes"},{"name":"callData","type":"bytes","internalType":"bytes"},{"name":"accountGasLimits","type":"bytes32","internalType":"bytes32"},{"name":"preVerificationGas","type":"uint256","internalType":"uint256"},{"name":"gasFees","type":"bytes32","internalType":"bytes32"},{"name":"paymasterAndData","type":"bytes","internalType":"bytes"},{"name":"signature","type":"bytes","internalType":"bytes"}]},{"name":"targetUserOp","type":"tuple","internalType":"struct PackedUserOperation","components":[{"name":"sender","type":"address","internalType":"address"},{"name":"nonce","type":"uint256","internalType":"uint256"},{"name":"initCode","type":"bytes","internalType":"bytes"},{"name":"callData","type":"bytes","internalType":"bytes"},{"name":"accountGasLimits","type":"bytes32","internalType":"bytes32"},{"name":"preVerificationGas","type":"uint256","internalType":"uint256"},{"name":"gasFees","type":"bytes32","internalType":"bytes32"},{"name":"paymasterAndData","type":"bytes","internalType":"bytes"},{"name":"signature","type":"bytes","internalType":"bytes"}]},{"name":"initialMinGas","type":"uint256","internalType":"uint256"},{"name":"toleranceDelta","type":"uint256","internalType":"uint256"},{"name":"gasAllowance","type":"uint256","internalType":"uint256"}],"outputs":[{"name":"","type":"tuple","internalType":"struct IEntryPointSimulations.BinarySearchResult","components":[{"name":"resultType","type":"uint8","internalType":"enum IEntryPointSimulations.BinarySearchResultType"},{"name":"successData","type":"tuple","internalType":"struct IEntryPointSimulations.BinarySearchSuccess","components":[{"name":"gasUsed","type":"uint256","internalType":"uint256"},{"name":"success","type":"bool","internalType":"bool"},{"name":"returnData","type":"bytes","internalType":"bytes"}]},{"name":"outOfGasData","type":"tuple","internalType":"struct IEntryPointSimulations.BinarySearchOutOfGas","components":[{"name":"optimalGas","type":"uint256","internalType":"uint256"},{"name":"minGas","type":"uint256","internalType":"uint256"},{"name":"maxGas","type":"uint256","internalType":"uint256"}]}]}],"stateMutability":"nonpayable"},{"type":"function","name":"filterOps06","inputs":[{"name":"userOps","type":"tuple[]","internalType":"struct UserOperation[]","components":[{"name":"sender","type":"address","internalType":"address"},{"name":"nonce","type":"uint256","internalType":"uint256"},{"name":"initCode","type":"bytes","internalType":"bytes"},{"name":"callData","type":"bytes","internalType":"bytes"},{"name":"callGasLimit","type":"uint256","internalType":"uint256"},{"name":"verificationGasLimit","type":"uint256","internalType":"uint256"},{"name":"preVerificationGas","type":"uint256","internalType":"uint256"},{"name":"maxFeePerGas","type":"uint256","internalType":"uint256"},{"name":"maxPriorityFeePerGas","type":"uint256","internalType":"uint256"},{"name":"paymasterAndData","type":"bytes","internalType":"bytes"},{"name":"signature","type":"bytes","internalType":"bytes"}]},{"name":"beneficiary","type":"address","internalType":"address payable"},{"name":"entryPoint","type":"address","internalType":"contract IEntryPoint"}],"outputs":[{"name":"","type":"tuple","internalType":"struct PimlicoSimulations.FilterOpsResult","components":[{"name":"gasUsed","type":"uint256","internalType":"uint256"},{"name":"balanceChange","type":"uint256","internalType":"uint256"},{"name":"rejectedUserOps","type":"tuple[]","internalType":"struct PimlicoSimulations.RejectedUserOp[]","components":[{"name":"userOpHash","type":"bytes32","internalType":"bytes32"},{"name":"revertReason","type":"bytes","internalType":"bytes"}]}]}],"stateMutability":"nonpayable"},{"type":"function","name":"filterOps07","inputs":[{"name":"userOps","type":"tuple[]","internalType":"struct PackedUserOperation[]","components":[{"name":"sender","type":"address","internalType":"address"},{"name":"nonce","type":"uint256","internalType":"uint256"},{"name":"initCode","type":"bytes","internalType":"bytes"},{"name":"callData","type":"bytes","internalType":"bytes"},{"name":"accountGasLimits","type":"bytes32","internalType":"bytes32"},{"name":"preVerificationGas","type":"uint256","internalType":"uint256"},{"name":"gasFees","type":"bytes32","internalType":"bytes32"},{"name":"paymasterAndData","type":"bytes","internalType":"bytes"},{"name":"signature","type":"bytes","internalType":"bytes"}]},{"name":"beneficiary","type":"address","internalType":"address payable"},{"name":"entryPoint","type":"address","internalType":"contract IEntryPoint"}],"outputs":[{"name":"","type":"tuple","internalType":"struct PimlicoSimulations.FilterOpsResult","components":[{"name":"gasUsed","type":"uint256","internalType":"uint256"},{"name":"balanceChange","type":"uint256","internalType":"uint256"},{"name":"rejectedUserOps","type":"tuple[]","internalType":"struct PimlicoSimulations.RejectedUserOp[]","components":[{"name":"userOpHash","type":"bytes32","internalType":"bytes32"},{"name":"revertReason","type":"bytes","internalType":"bytes"}]}]}],"stateMutability":"nonpayable"},{"type":"function","name":"filterOps08","inputs":[{"name":"userOps","type":"tuple[]","internalType":"struct PackedUserOperation[]","components":[{"name":"sender","type":"address","internalType":"address"},{"name":"nonce","type":"uint256","internalType":"uint256"},{"name":"initCode","type":"bytes","internalType":"bytes"},{"name":"callData","type":"bytes","internalType":"bytes"},{"name":"accountGasLimits","type":"bytes32","internalType":"bytes32"},{"name":"preVerificationGas","type":"uint256","internalType":"uint256"},{"name":"gasFees","type":"bytes32","internalType":"bytes32"},{"name":"paymasterAndData","type":"bytes","internalType":"bytes"},{"name":"signature","type":"bytes","internalType":"bytes"}]},{"name":"beneficiary","type":"address","internalType":"address payable"},{"name":"entryPoint","type":"address","internalType":"contract IEntryPoint"}],"outputs":[{"name":"","type":"tuple","internalType":"struct PimlicoSimulations.FilterOpsResult","components":[{"name":"gasUsed","type":"uint256","internalType":"uint256"},{"name":"balanceChange","type":"uint256","internalType":"uint256"},{"name":"rejectedUserOps","type":"tuple[]","internalType":"struct PimlicoSimulations.RejectedUserOp[]","components":[{"name":"userOpHash","type":"bytes32","internalType":"bytes32"},{"name":"revertReason","type":"bytes","internalType":"bytes"}]}]}],"stateMutability":"nonpayable"},{"type":"function","name":"filterOps09","inputs":[{"name":"userOps","type":"tuple[]","internalType":"struct PackedUserOperation[]","components":[{"name":"sender","type":"address","internalType":"address"},{"name":"nonce","type":"uint256","internalType":"uint256"},{"name":"initCode","type":"bytes","internalType":"bytes"},{"name":"callData","type":"bytes","internalType":"bytes"},{"name":"accountGasLimits","type":"bytes32","internalType":"bytes32"},{"name":"preVerificationGas","type":"uint256","internalType":"uint256"},{"name":"gasFees","type":"bytes32","internalType":"bytes32"},{"name":"paymasterAndData","type":"bytes","internalType":"bytes"},{"name":"signature","type":"bytes","internalType":"bytes"}]},{"name":"beneficiary","type":"address","internalType":"address payable"},{"name":"entryPoint","type":"address","internalType":"contract IEntryPoint"}],"outputs":[{"name":"","type":"tuple","internalType":"struct PimlicoSimulations.FilterOpsResult","components":[{"name":"gasUsed","type":"uint256","internalType":"uint256"},{"name":"balanceChange","type":"uint256","internalType":"uint256"},{"name":"rejectedUserOps","type":"tuple[]","internalType":"struct PimlicoSimulations.RejectedUserOp[]","components":[{"name":"userOpHash","type":"bytes32","internalType":"bytes32"},{"name":"revertReason","type":"bytes","internalType":"bytes"}]}]}],"stateMutability":"nonpayable"},{"type":"function","name":"getBalances","inputs":[{"name":"addresses","type":"address[]","internalType":"address[]"},{"name":"tokens","type":"address[]","internalType":"address[]"}],"outputs":[{"name":"","type":"tuple[]","internalType":"struct PimlicoSimulations.AssetBalance[]","components":[{"name":"addr","type":"address","internalType":"address"},{"name":"token","type":"address","internalType":"address"},{"name":"amount","type":"uint256","internalType":"uint256"}]}],"stateMutability":"view"},{"type":"function","name":"simulateAndEstimateGas","inputs":[{"name":"entryPointSimulation","type":"address","internalType":"address"},{"name":"entryPoint","type":"address","internalType":"address payable"},{"name":"queuedUserOps","type":"tuple[]","internalType":"struct PackedUserOperation[]","components":[{"name":"sender","type":"address","internalType":"address"},{"name":"nonce","type":"uint256","internalType":"uint256"},{"name":"initCode","type":"bytes","internalType":"bytes"},{"name":"callData","type":"bytes","internalType":"bytes"},{"name":"accountGasLimits","type":"bytes32","internalType":"bytes32"},{"name":"preVerificationGas","type":"uint256","internalType":"uint256"},{"name":"gasFees","type":"bytes32","internalType":"bytes32"},{"name":"paymasterAndData","type":"bytes","internalType":"bytes"},{"name":"signature","type":"bytes","internalType":"bytes"}]},{"name":"targetUserOp","type":"tuple","internalType":"struct PackedUserOperation","components":[{"name":"sender","type":"address","internalType":"address"},{"name":"nonce","type":"uint256","internalType":"uint256"},{"name":"initCode","type":"bytes","internalType":"bytes"},{"name":"callData","type":"bytes","internalType":"bytes"},{"name":"accountGasLimits","type":"bytes32","internalType":"bytes32"},{"name":"preVerificationGas","type":"uint256","internalType":"uint256"},{"name":"gasFees","type":"bytes32","internalType":"bytes32"},{"name":"paymasterAndData","type":"bytes","internalType":"bytes"},{"name":"signature","type":"bytes","internalType":"bytes"}]},{"name":"initialMinGas","type":"uint256","internalType":"uint256"},{"name":"toleranceDelta","type":"uint256","internalType":"uint256"},{"name":"gasAllowance","type":"uint256","internalType":"uint256"}],"outputs":[{"name":"result","type":"tuple","internalType":"struct PimlicoSimulations.SimulateAndEstimateGasResult","components":[{"name":"simulationResult","type":"tuple","internalType":"struct IEntryPointSimulations.ExecutionResult","components":[{"name":"preOpGas","type":"uint256","internalType":"uint256"},{"name":"paid","type":"uint256","internalType":"uint256"},{"name":"accountValidationData","type":"uint256","internalType":"uint256"},{"name":"paymasterValidationData","type":"uint256","internalType":"uint256"},{"name":"paymasterVerificationGasLimit","type":"uint256","internalType":"uint256"},{"name":"paymasterPostOpGasLimit","type":"uint256","internalType":"uint256"},{"name":"targetSuccess","type":"bool","internalType":"bool"},{"name":"targetResult","type":"bytes","internalType":"bytes"}]},{"name":"verificationGasLimit","type":"tuple","internalType":"struct IEntryPointSimulations.BinarySearchResult","components":[{"name":"resultType","type":"uint8","internalType":"enum IEntryPointSimulations.BinarySearchResultType"},{"name":"successData","type":"tuple","internalType":"struct IEntryPointSimulations.BinarySearchSuccess","components":[{"name":"gasUsed","type":"uint256","internalType":"uint256"},{"name":"success","type":"bool","internalType":"bool"},{"name":"returnData","type":"bytes","internalType":"bytes"}]},{"name":"outOfGasData","type":"tuple","internalType":"struct IEntryPointSimulations.BinarySearchOutOfGas","components":[{"name":"optimalGas","type":"uint256","internalType":"uint256"},{"name":"minGas","type":"uint256","internalType":"uint256"},{"name":"maxGas","type":"uint256","internalType":"uint256"}]}]},{"name":"paymasterVerificationGasLimit","type":"tuple","internalType":"struct IEntryPointSimulations.BinarySearchResult","components":[{"name":"resultType","type":"uint8","internalType":"enum IEntryPointSimulations.BinarySearchResultType"},{"name":"successData","type":"tuple","internalType":"struct IEntryPointSimulations.BinarySearchSuccess","components":[{"name":"gasUsed","type":"uint256","internalType":"uint256"},{"name":"success","type":"bool","internalType":"bool"},{"name":"returnData","type":"bytes","internalType":"bytes"}]},{"name":"outOfGasData","type":"tuple","internalType":"struct IEntryPointSimulations.BinarySearchOutOfGas","components":[{"name":"optimalGas","type":"uint256","internalType":"uint256"},{"name":"minGas","type":"uint256","internalType":"uint256"},{"name":"maxGas","type":"uint256","internalType":"uint256"}]}]}]}],"stateMutability":"nonpayable"},{"type":"function","name":"simulateAssetChange06","inputs":[{"name":"userOp","type":"tuple","internalType":"struct UserOperation","components":[{"name":"sender","type":"address","internalType":"address"},{"name":"nonce","type":"uint256","internalType":"uint256"},{"name":"initCode","type":"bytes","internalType":"bytes"},{"name":"callData","type":"bytes","internalType":"bytes"},{"name":"callGasLimit","type":"uint256","internalType":"uint256"},{"name":"verificationGasLimit","type":"uint256","internalType":"uint256"},{"name":"preVerificationGas","type":"uint256","internalType":"uint256"},{"name":"maxFeePerGas","type":"uint256","internalType":"uint256"},{"name":"maxPriorityFeePerGas","type":"uint256","internalType":"uint256"},{"name":"paymasterAndData","type":"bytes","internalType":"bytes"},{"name":"signature","type":"bytes","internalType":"bytes"}]},{"name":"entryPoint","type":"address","internalType":"contract IEntryPoint"},{"name":"addresses","type":"address[]","internalType":"address[]"},{"name":"tokens","type":"address[]","internalType":"address[]"}],"outputs":[{"name":"","type":"tuple[]","internalType":"struct PimlicoSimulations.AssetChange[]","components":[{"name":"addr","type":"address","internalType":"address"},{"name":"token","type":"address","internalType":"address"},{"name":"balanceBefore","type":"uint256","internalType":"uint256"},{"name":"balanceAfter","type":"uint256","internalType":"uint256"}]}],"stateMutability":"nonpayable"},{"type":"function","name":"simulateAssetChange07","inputs":[{"name":"userOp","type":"tuple","internalType":"struct PackedUserOperation","components":[{"name":"sender","type":"address","internalType":"address"},{"name":"nonce","type":"uint256","internalType":"uint256"},{"name":"initCode","type":"bytes","internalType":"bytes"},{"name":"callData","type":"bytes","internalType":"bytes"},{"name":"accountGasLimits","type":"bytes32","internalType":"bytes32"},{"name":"preVerificationGas","type":"uint256","internalType":"uint256"},{"name":"gasFees","type":"bytes32","internalType":"bytes32"},{"name":"paymasterAndData","type":"bytes","internalType":"bytes"},{"name":"signature","type":"bytes","internalType":"bytes"}]},{"name":"entryPoint","type":"address","internalType":"contract IEntryPoint"},{"name":"entryPointSimulations","type":"address","internalType":"address"},{"name":"addresses","type":"address[]","internalType":"address[]"},{"name":"tokens","type":"address[]","internalType":"address[]"}],"outputs":[{"name":"","type":"tuple[]","internalType":"struct PimlicoSimulations.AssetChange[]","components":[{"name":"addr","type":"address","internalType":"address"},{"name":"token","type":"address","internalType":"address"},{"name":"balanceBefore","type":"uint256","internalType":"uint256"},{"name":"balanceAfter","type":"uint256","internalType":"uint256"}]}],"stateMutability":"nonpayable"},{"type":"function","name":"simulateAssetChange08","inputs":[{"name":"userOp","type":"tuple","internalType":"struct PackedUserOperation","components":[{"name":"sender","type":"address","internalType":"address"},{"name":"nonce","type":"uint256","internalType":"uint256"},{"name":"initCode","type":"bytes","internalType":"bytes"},{"name":"callData","type":"bytes","internalType":"bytes"},{"name":"accountGasLimits","type":"bytes32","internalType":"bytes32"},{"name":"preVerificationGas","type":"uint256","internalType":"uint256"},{"name":"gasFees","type":"bytes32","internalType":"bytes32"},{"name":"paymasterAndData","type":"bytes","internalType":"bytes"},{"name":"signature","type":"bytes","internalType":"bytes"}]},{"name":"entryPoint","type":"address","internalType":"contract IEntryPoint"},{"name":"entryPointSimulations","type":"address","internalType":"address"},{"name":"addresses","type":"address[]","internalType":"address[]"},{"name":"tokens","type":"address[]","internalType":"address[]"}],"outputs":[{"name":"","type":"tuple[]","internalType":"struct PimlicoSimulations.AssetChange[]","components":[{"name":"addr","type":"address","internalType":"address"},{"name":"token","type":"address","internalType":"address"},{"name":"balanceBefore","type":"uint256","internalType":"uint256"},{"name":"balanceAfter","type":"uint256","internalType":"uint256"}]}],"stateMutability":"nonpayable"},{"type":"function","name":"simulateEntryPointBulk","inputs":[{"name":"entryPointSimulation","type":"address","internalType":"address"},{"name":"entryPoint","type":"address","internalType":"address payable"},{"name":"data","type":"bytes[]","internalType":"bytes[]"}],"outputs":[{"name":"","type":"bytes[]","internalType":"bytes[]"}],"stateMutability":"nonpayable"},{"type":"function","name":"simulateHandleOp","inputs":[{"name":"entryPointSimulation","type":"address","internalType":"address"},{"name":"entryPoint","type":"address","internalType":"address payable"},{"name":"queuedUserOps","type":"tuple[]","internalType":"struct PackedUserOperation[]","components":[{"name":"sender","type":"address","internalType":"address"},{"name":"nonce","type":"uint256","internalType":"uint256"},{"name":"initCode","type":"bytes","internalType":"bytes"},{"name":"callData","type":"bytes","internalType":"bytes"},{"name":"accountGasLimits","type":"bytes32","internalType":"bytes32"},{"name":"preVerificationGas","type":"uint256","internalType":"uint256"},{"name":"gasFees","type":"bytes32","internalType":"bytes32"},{"name":"paymasterAndData","type":"bytes","internalType":"bytes"},{"name":"signature","type":"bytes","internalType":"bytes"}]},{"name":"targetUserOp","type":"tuple","internalType":"struct PackedUserOperation","components":[{"name":"sender","type":"address","internalType":"address"},{"name":"nonce","type":"uint256","internalType":"uint256"},{"name":"initCode","type":"bytes","internalType":"bytes"},{"name":"callData","type":"bytes","internalType":"bytes"},{"name":"accountGasLimits","type":"bytes32","internalType":"bytes32"},{"name":"preVerificationGas","type":"uint256","internalType":"uint256"},{"name":"gasFees","type":"bytes32","internalType":"bytes32"},{"name":"paymasterAndData","type":"bytes","internalType":"bytes"},{"name":"signature","type":"bytes","internalType":"bytes"}]}],"outputs":[{"name":"","type":"tuple","internalType":"struct IEntryPointSimulations.ExecutionResult","components":[{"name":"preOpGas","type":"uint256","internalType":"uint256"},{"name":"paid","type":"uint256","internalType":"uint256"},{"name":"accountValidationData","type":"uint256","internalType":"uint256"},{"name":"paymasterValidationData","type":"uint256","internalType":"uint256"},{"name":"paymasterVerificationGasLimit","type":"uint256","internalType":"uint256"},{"name":"paymasterPostOpGasLimit","type":"uint256","internalType":"uint256"},{"name":"targetSuccess","type":"bool","internalType":"bool"},{"name":"targetResult","type":"bytes","internalType":"bytes"}]}],"stateMutability":"nonpayable"},{"type":"function","name":"simulateValidation","inputs":[{"name":"entryPointSimulation","type":"address","internalType":"address"},{"name":"entryPoint","type":"address","internalType":"address payable"},{"name":"queuedUserOps","type":"tuple[]","internalType":"struct PackedUserOperation[]","components":[{"name":"sender","type":"address","internalType":"address"},{"name":"nonce","type":"uint256","internalType":"uint256"},{"name":"initCode","type":"bytes","internalType":"bytes"},{"name":"callData","type":"bytes","internalType":"bytes"},{"name":"accountGasLimits","type":"bytes32","internalType":"bytes32"},{"name":"preVerificationGas","type":"uint256","internalType":"uint256"},{"name":"gasFees","type":"bytes32","internalType":"bytes32"},{"name":"paymasterAndData","type":"bytes","internalType":"bytes"},{"name":"signature","type":"bytes","internalType":"bytes"}]},{"name":"targetUserOp","type":"tuple","internalType":"struct PackedUserOperation","components":[{"name":"sender","type":"address","internalType":"address"},{"name":"nonce","type":"uint256","internalType":"uint256"},{"name":"initCode","type":"bytes","internalType":"bytes"},{"name":"callData","type":"bytes","internalType":"bytes"},{"name":"accountGasLimits","type":"bytes32","internalType":"bytes32"},{"name":"preVerificationGas","type":"uint256","internalType":"uint256"},{"name":"gasFees","type":"bytes32","internalType":"bytes32"},{"name":"paymasterAndData","type":"bytes","internalType":"bytes"},{"name":"signature","type":"bytes","internalType":"bytes"}]}],"outputs":[{"name":"","type":"tuple","internalType":"struct IEntryPointSimulations.ValidationResult","components":[{"name":"returnInfo","type":"tuple","internalType":"struct IEntryPoint.ReturnInfo","components":[{"name":"preOpGas","type":"uint256","internalType":"uint256"},{"name":"prefund","type":"uint256","internalType":"uint256"},{"name":"accountValidationData","type":"uint256","internalType":"uint256"},{"name":"paymasterValidationData","type":"uint256","internalType":"uint256"},{"name":"paymasterContext","type":"bytes","internalType":"bytes"}]},{"name":"senderInfo","type":"tuple","internalType":"struct IStakeManager.StakeInfo","components":[{"name":"stake","type":"uint256","internalType":"uint256"},{"name":"unstakeDelaySec","type":"uint256","internalType":"uint256"}]},{"name":"factoryInfo","type":"tuple","internalType":"struct IStakeManager.StakeInfo","components":[{"name":"stake","type":"uint256","internalType":"uint256"},{"name":"unstakeDelaySec","type":"uint256","internalType":"uint256"}]},{"name":"paymasterInfo","type":"tuple","internalType":"struct IStakeManager.StakeInfo","components":[{"name":"stake","type":"uint256","internalType":"uint256"},{"name":"unstakeDelaySec","type":"uint256","internalType":"uint256"}]},{"name":"aggregatorInfo","type":"tuple","internalType":"struct IEntryPoint.AggregatorStakeInfo","components":[{"name":"aggregator","type":"address","internalType":"address"},{"name":"stakeInfo","type":"tuple","internalType":"struct IStakeManager.StakeInfo","components":[{"name":"stake","type":"uint256","internalType":"uint256"},{"name":"unstakeDelaySec","type":"uint256","internalType":"uint256"}]}]}]}],"stateMutability":"nonpayable"},{"type":"event","name":"PimlicoSimulationDeployed","inputs":[],"anonymous":false}],"bytecode":{"object":"0x60808060405234603a577f20d4cb4d83077ae7f93cbc84f032f6918d99772c5bb321c4333007d83641ab7e600080a16138e390816100408239f35b600080fdfe60a0604052600436101561001257600080fd5b60006080526080513560e01c8063141eb033146120e95780632e5a0a931461207a578063685f602614611c7a5780637134990314611b6e57806382e542ed14611b14578063861d9d5914611abb57806390d81dfb146118ab578063959c4cb7146112a45780639f2d378914611212578063a4968eab14610fee578063b21b38c814610d55578063de040de114610a41578063ef5bfc37146107a4578063f11430431461071c5763fccb5ff6146100c757600080fd5b34610491576060366003190112610491576004356001600160401b038111610491576100f79036906004016124fb565b90610100612303565b90610109612319565b9061011261285f565b5061011b6130be565b805190680100000000000000008211610704576080515482608051558083106105f4575b5060808051805251939493907f290decd9548b62a8d60345a988386fc84ba6bc95484008f6362f93160ef3e563906020015b8383106105d0575050505060805192608051916001600160a01b038060805195169216956040945b8181106101d3576101cf8787878151926101b2846123ab565b835260208301526101c1613310565b81830152519182918261269e565b0390f35b85516101df8782612419565b600181526080515b601f198801811061056257506101fe8284866135d1565b6101208136031261049157875190610215826123e1565b61021e8161232f565b825260208101356020830152888101356001600160401b03811161049157610249903690830161246c565b8983015260608101356001600160401b0381116104915761026d903690830161246c565b60608301526080810135608083015260a081013560a083015260c081013560c083015260e08101356001600160401b038111610491576102b0903690830161246c565b60e0830152610100810135906001600160401b038211610491576102d69136910161246c565b6101008201526102e582612808565b526102ef81612808565b5084315a918a3b15610491578851907f765e827f000000000000000000000000000000000000000000000000000000008252604482018a600484015281518091526064830190602060648260051b860101930191608051905b8282106104975750505050876024830152818c8180608051940391608051905af19081610478575b5061044a5750506103c8610382612dae565b602061038f8486886135d1565b8951809481927f22cdde4c000000000000000000000000000000000000000000000000000000008352846004840152602483019061291f565b03818d5afa91821561043e5760805192610404575b50600192916103fe918951916103f283612390565b825260208201526132b8565b01610199565b90915060203d8111610437575b61041b8183612419565b60208260009281010312610434575051906103fe6103dd565b80fd5b503d610411565b88513d608051823e3d90fd5b956104666001939761046c610472949b6104665a8b319e613288565b906132ab565b9a613288565b946103fe565b60805161048491612419565b6080516104915738610370565b60805180fd5b909192936020989e9798808f9e9c9f610548909c9e999c6001946063198b82030187526101006105366105066104f48d51956001600160a01b038751168652888701518987015261012081880151918701526101208601906124d6565b606086015185820360608701526124d6565b6080850151608085015260a085015160a085015260c085015160c085015260e085015184820360e08601526124d6565b920151906101008184039101526124d6565b9601920192019092919d97969d9c999b9c9a98959a610348565b60209088979598999293999694965161057a816123e1565b608051815260805183820152606089820152606080820152608051608082015260805160a082015260805160c0820152606060e082015260606101008201528282860101520197919097969395969492946101e7565b60026020826105e56001949a999a5186613157565b01920192019190959495610171565b6001600160ff1b03811681036106ec576001600160ff1b03831683036106ec576080516080515260011b7f290decd9548b62a8d60345a988386fc84ba6bc95484008f6362f93160ef3e563018260011b7f290decd9548b62a8d60345a988386fc84ba6bc95484008f6362f93160ef3e563015b818110610674575061013f565b6080518155600181018054600292919061068d90613106565b8061069b575b505001610667565b601f81116001146106b4575060805190555b3880610693565b6106d59082608051526001601f602060805120920160051c82019101613140565b6080805182905251602081209181905590556106ad565b634e487b7160e01b6080515260116004526024608051fd5b634e487b7160e01b6080515260416004526024608051fd5b34610491576101cf61079061078161077a61076c6001600160a01b036107413661278a565b61074f97939496919761342a565b5060405197889363af32494360e01b60208601526024850161346d565b03601f198101865285612419565b16906135f4565b60208082518301019101613493565b60405191829160208352602083019061272b565b34610491576040366003190112610491576004356001600160401b038111610491576107d49036906004016124fb565b906024356001600160401b038111610491576107f49036906004016124fb565b838102939192918015818604831417156106ec576108118561243a565b9461081f6040519687612419565b80865261082e601f199161243a565b016080515b818110610a2a57505060805190815b8181106108b957866040518091602082016020835281518091526020604084019201906080515b818110610877575050500390f35b9193509160206060600192604087516001600160a01b0381511683526001600160a01b0385820151168584015201516040820152019401910191849392610869565b6108cc6108c78284886135ad565b6135bd565b608051906001600160a01b038116915b8681106108ee57505050600101610842565b86898273eeeeeeeeeeeeeeeeeeeeeeeeeeeeeeeeeeeeeeee6001600160a01b0361091c6108c78487876135ad565b1603610988575050508131905b6109376108c7828a8d6135ad565b916001600160a01b036040519361094d856123ab565b86855216602084015260408301528660001981146106ec578760019361097a8e9a8661098195019b61282b565b528c61282b565b50016108dc565b6109a26108c76001600160a01b03926024956020956135ad565b16604051928380927f70a082310000000000000000000000000000000000000000000000000000000082528860048301525afa908115610a1d57608051916109ec575b5090610929565b90506020813d8211610a15575b81610a0660209383612419565b8101031261049157518b6109e5565b3d91506109f9565b6040513d608051823e3d90fd5b602090610a35612880565b82828a01015201610833565b3461049157610b5e61077a61076c6001600160a01b03610a603661278a565b604097939496919751610a72816123c6565b604051610a7e816123c6565b6080518152608051602082015260805160408201526080516060820152606060808201528152604051610ab081612390565b60008152600060208201526020820152604051610acc81612390565b60008152600060208201526040820152604051610ae881612390565b60008152600060208201526060820152608060405191610b0783612390565b81518352604051610b1781612390565b6000815260006020820152602084015201526040519788937faec321fb0000000000000000000000000000000000000000000000000000000060208601526024850161346d565b805181016020810191602081830312610491576020810151906001600160401b0382116104915701808203601f1981019290610140136104915760405190610ba5826123c6565b60208301516001600160401b038111610491578301602081019160a0919003126104915760405190610bd6826123c6565b805182526020810151602083015260408101516040830152606081015160608301526080810151906001600160401b03821161049157610c1891879101612a9a565b60808201528152610c2c8460408401613585565b9160208201928352610c418560808301613585565b90604083019182526060610c588760c08401613585565b8482019081529560bf19011261049157602080958180959481610cff60808298610ca46101409e6101206040519b610c8f8d612390565b610c9c6101008201612bc2565b8d5201613585565b848a01528181019889526040519d848f9e928f938452519201528c61016082519101528c610180858301519101528c6101a060408301519101528c6101c06060830151910152015160a06101e08d01526102008c01906124d6565b9851805160408c0152015160608a015251805160808a0152015160a088015251805160c0880152015160e0860152516001600160a01b038151166101008601520151805161012085015201516101408301520390f35b346104915760a0366003190112610491576004356001600160401b03811161049157610120600319823603011261049157610d8e612303565b610d96612319565b906064356001600160401b03811161049157610db69036906004016124fb565b6084949194356001600160401b03811161049157610dd89036906004016124fb565b6040969196519663ef5bfc3760e01b88526080518880610dfe8585898960048601612ccd565b0381305afa978815610a1d5760805198610f97575b50610ea29461076c610eba9895610e626001600160a01b0396610e546107819b9761077a9760405195869463ef5bfc3760e01b602087015260248601612ccd565b03601f198101835282612419565b6040519788937f7da0c46200000000000000000000000000000000000000000000000000000000602086015260606024860152608485019060040161291f565b306044850152838103602319016064850152906124d6565b60c081015115610f8b5760e0610edb91015160208082518301019101612bd6565b90610ee68151612e2b565b916080515b8251811015610f7d57806001600160a01b03610f096001938661282b565b5151166001600160a01b036020610f20848861282b565b510151166040610f30848861282b565b5101516040610f3f858861282b565b5101519160405193610f5085612343565b8452602084015260408301526060820152610f6b828761282b565b52610f76818661282b565b5001610eeb565b604051806101cf8682612630565b60e00151602081519101fd5b61077a9198509461076c610eba9895610e626001600160a01b0396610e546107819b97610fda610ea29c3d80608051833e610fd28183612419565b810190612bd6565b9e9750979b50509650509598505094610e13565b3461049157610ffc3661252b565b604097939592979691965196611011886123ab565b61101961342a565b8852602088019861102861289f565b8a52604089019761103761289f565b8952611074610781826110648b610e5460405193849263af32494360e01b60208501528d6024850161346d565b6001600160a01b0388168a6135f4565b8a52878787876110b98888888860405198899788977f2e5a0a930000000000000000000000000000000000000000000000000000000089526080519a60048a01613533565b0381608051305af1908115610a1d57608051916111f6575b508b5260e0810135601e19823603018112156104915781018035906001600160401b038211610491576020823603910113610491576014111561115d575b6111378a6101cf8b61114a8f604051958695602087525160606020880152608087019061272b565b9051858203601f190160408701526125b5565b9051838203601f190160608501526125b5565b9061119f939291604099989951998a9788977f9f2d37890000000000000000000000000000000000000000000000000000000089526080519a60048a01613533565b0381608051305af1918215610a1d57611137946101cf9361114a92608051916111d2575b5083529482938780808061110f565b6111f091503d80608051833e6111e88183612419565b810190612adc565b876111c3565b61120c91503d80608051833e6111e88183612419565b8c6110d1565b34610491576101cf61129061128161076c61077a6001600160a01b036112373661252b565b92958097999661124b9b959b93929361289f565b506040519b8c977fd72f25930000000000000000000000000000000000000000000000000000000060208a015260248901612a43565b60208082518301019101612adc565b6040519182916020835260208301906125b5565b34610491576060366003190112610491576004356001600160401b038111610491576112d49036906004016124fb565b906112dd612303565b906112e6612319565b906112ef61285f565b506112f86130be565b805190680100000000000000008211610704576080515482608051558083106117b3575b5060808051805251939493907f290decd9548b62a8d60345a988386fc84ba6bc95484008f6362f93160ef3e563906020015b83831061178f575050505060805192608051916001600160a01b038060805195169216956040945b81811061138f576101cf8787878151926101b2846123ab565b855161139b8782612419565b600181526080515b601f198801811061170f57506113ba828486613265565b61016081360312610491578751906113d182612374565b6113da8161232f565b825260208101356020830152888101356001600160401b03811161049157611405903690830161246c565b8983015260608101356001600160401b03811161049157611429903690830161246c565b60608301526080810135608083015260a081013560a083015260c081013560c083015260e081013560e08301526101008101356101008301526101208101356001600160401b03811161049157611483903690830161246c565b610120830152610140810135906001600160401b038211610491576114aa9136910161246c565b6101408201526114b982612808565b526114c381612808565b5084315a918a3b15610491578851907f1fad948c000000000000000000000000000000000000000000000000000000008252604482018a600484015281518091526064830190602060648260051b860101930191608051905b82821061163e5750505050876024830152818c8180608051940391608051905af19081611625575b5061160357505061159c611556612dae565b6020611563848688613265565b8951809481927fa61935310000000000000000000000000000000000000000000000000000000083528460048401526024830190612cf4565b03818d5afa91821561043e57608051926115cc575b50600192916115c6918951916103f283612390565b01611376565b90915060203d81116115fc575b6115e38183612419565b60208260009281010312610434575051906115c66115b1565b503d6115d9565b956104666001939761046c61161f949b6104665a8b319e613288565b946115c6565b60805161163191612419565b608051610491578b611544565b909192936020989e9798808f9e9c9f6116f5909c9e999c6001946063198b82030187526101406116e361169b6104f48d51956001600160a01b038751168652888701518987015261016081880151918701526101608601906124d6565b6080850151608085015260a085015160a085015260c085015160c085015260e085015160e08501526101008501516101008501526101208501518482036101208601526124d6565b920151906101408184039101526124d6565b9601920192019092919d97969d9c999b9c9a98959a61151c565b60209088979598999293999694965161172781612374565b608051815260805183820152606089820152606080820152608051608082015260805160a082015260805160c082015260805160e0820152608051610100820152606061012082015260606101408201528282860101520197919097969395969492946113a3565b60026020826117a46001949a999a5186613157565b0192019201919095949561134e565b6001600160ff1b03811681036106ec576001600160ff1b03831683036106ec576080516080515260011b7f290decd9548b62a8d60345a988386fc84ba6bc95484008f6362f93160ef3e563018260011b7f290decd9548b62a8d60345a988386fc84ba6bc95484008f6362f93160ef3e563015b818110611833575061131c565b6080518155600181018054600292919061184c90613106565b8061185a575b505001611826565b601f8111600114611873575060805190555b8980611852565b6118949082608051526001601f602060805120920160051c82019101613140565b60808051829052516020812091819055905561186c565b346104915760a0366003190112610491576004356001600160401b038111610491576101206003198236030112610491576118e4612303565b6118ec612319565b906064356001600160401b0381116104915761190c9036906004016124fb565b60843594916001600160401b038611610491576119a3611985946119b9936001600160a01b0398936119438a9536906004016124fb565b9590996040519b8c9a8b9a7fb21b38c8000000000000000000000000000000000000000000000000000000008c5260a060048d015260a48c019060040161291f565b951660248a0152166044880152868303600319016064880152612c8b565b9060031984830301608485015260805195612c8b565b0381608051305af18015610a1d57608051906119e0575b6101cf9060405191829182612630565b503d80608051833e6119f28183612419565b810190602081830312610491578051906001600160401b03821161049157019080601f8301121561049157815191611a298361243a565b91611a376040519384612419565b83835260208084019460071b8301019181831161049157602001935b828510611a67575050506101cf91506119d0565b608085830312610491576020608091604051611a8281612343565b611a8b88612bc2565b8152611a98838901612bc2565b838201526040880151604082015260608801516060820152815201940193611a53565b34610491576060366003190112610491576004356001600160401b03811161049157611b08611af16101cf9236906004016124fb565b611af9612303565b90611b02612319565b92612e97565b6040519182918261269e565b34610491576060366003190112610491576004356001600160401b03811161049157611b449036906004016124fb565b90611b4d612303565b604435906001600160a01b0382168203610491576101cf93611b0893612e97565b346104915760e036600319011261049157611b876122e8565b611b8f612303565b6044356001600160401b03811161049157611bae9036906004016124fb565b90606435926001600160401b038411610491576101206003198536030112610491576101cf94611c7561128194611c4061129097611bea61289f565b50611c2b6040519788947facbe911e00000000000000000000000000000000000000000000000000000000602087015260c0602487015260e48601916129dc565b8381036023190160448501529060040161291f565b6001600160a01b0385166064830152608435608483015260a43560a483015260c43560c483015203601f198101855284612419565b6135f4565b34610491576080366003190112610491576004356001600160401b03811161049157610160600319823603011261049157611cb3612303565b906044356001600160401b03811161049157611cd39036906004016124fb565b90926064356001600160401b03811161049157611cf49036906004016124fb565b6040959195519563ef5bfc3760e01b87526080518780611d1a85858a8960048601612ccd565b0381305afa968715610a1d5760805197612045575b5091611d62611d70926001600160a01b0395946080515060405197889463ef5bfc3760e01b602087015260248601612ccd565b03601f198101855284612419565b1691823b1561049157611ddc92611dc1916040518095819482937fd6383f94000000000000000000000000000000000000000000000000000000008452606060048501526064840190600401612cf4565b306024840152828103600319016044840152608051966124d6565b0391608051905af19081612033575b50611fef57611df8612dae565b600481511115611fab576001600160e01b0319611e1c611e17836137ff565b612dde565b167f220266b6000000000000000000000000000000000000000000000000000000008114611fa2577f462c71b200000000000000000000000000000000000000000000000000000000148015611f99575b611f91578051611e7c9161387c565b8051810160c08282031261049157611e9660608301612e18565b50611ea360808301612e18565b50611eb060a08301612a8d565b9160c0810151916001600160401b03831161049157611ed6926020809201920101612a9a565b9015611f915780602080611eef93518301019101612bd6565b90611efa8151612e2b565b916080515b8251811015610f7d57806001600160a01b03611f1d6001938661282b565b5151166001600160a01b036020611f34848861282b565b510151166040611f44848861282b565b5101516040611f53858861282b565b5101519160405193611f6485612343565b8452602084015260408301526060820152611f7f828761282b565b52611f8a818661282b565b5001611eff565b602081519101fd5b50608051611e6d565b50602081519101fd5b606460405162461bcd60e51b815260206004820152601d60248201527f556e657870656374656420726576657274206461746120666f726d61740000006044820152fd5b606460405162461bcd60e51b815260206004820152601c60248201527f73696d756c61746548616e646c654f70206d75737420726576657274000000006044820152fd5b60805161203f91612419565b82611deb565b6001600160a01b039493919750611d709261206e611d62923d80608051833e610fd28183612419565b98929495509250611d2f565b34610491576101cf61129061128161076c61077a6001600160a01b0361209f3661252b565b9295809799966120b39b959b93929361289f565b506040519b8c977f212eccc60000000000000000000000000000000000000000000000000000000060208a015260248901612a43565b34610491576060366003190112610491576121026122e8565b61210a612303565b6044356001600160401b03811161049157366023820112156104915780600401356121348161243a565b916121426040519384612419565b8183526024602084019260051b820101903682116104915760248101925b8284106122b957505050508051926121778461243a565b936121856040519586612419565b808552612194601f199161243a565b016080515b8181106122a85750506001600160a01b036080519316925b825181101561223f5760019060606121c9828661282b565b516040516121ed81610e54602082019463428557b160e11b8652896024840161283f565b5a608051926080519251918a60805191f115612220575b61220e828861282b565b52612219818761282b565b50016121b1565b503d60405190602081830101604052808252608051602083013e612204565b846040518091602082016020835281518091526040830190602060408260051b860101930191608051905b82821061227957505050500390f35b919360019193955060206122988192603f198a820301865288516124d6565b960192019201859493919261226a565b806060602080938901015201612199565b83356001600160401b038111610491576020916122dd83926024369187010161246c565b815201930192612160565b600435906001600160a01b03821682036122fe57565b600080fd5b602435906001600160a01b03821682036122fe57565b604435906001600160a01b03821682036122fe57565b35906001600160a01b03821682036122fe57565b608081019081106001600160401b0382111761235e57604052565b634e487b7160e01b600052604160045260246000fd5b61016081019081106001600160401b0382111761235e57604052565b604081019081106001600160401b0382111761235e57604052565b606081019081106001600160401b0382111761235e57604052565b60a081019081106001600160401b0382111761235e57604052565b61012081019081106001600160401b0382111761235e57604052565b61010081019081106001600160401b0382111761235e57604052565b90601f801991011681019081106001600160401b0382111761235e57604052565b6001600160401b03811161235e5760051b60200190565b6001600160401b03811161235e57601f01601f191660200190565b81601f820112156122fe5780359061248382612451565b926124916040519485612419565b828452602083830101116122fe57816000926020809301838601378301015290565b60005b8381106124c65750506000910152565b81810151838201526020016124b6565b906020916124ef815180928185528580860191016124b3565b601f01601f1916010190565b9181601f840112156122fe578235916001600160401b0383116122fe576020808501948460051b0101116122fe57565b60e06003198201126122fe576004356001600160a01b03811681036122fe57916024356001600160a01b03811681036122fe57916044356001600160401b0381116122fe578161257d916004016124fb565b92909291606435906001600160401b0382116122fe576101209082900360031901126122fe57600401906084359060a4359060c43590565b908151600281101561261a57815260806040806125ff81602087015160a06020880152805160a08801526020810151151560c08801520151606060e08701526101008601906124d6565b94015180518285015260208101516060850152015191015290565b634e487b7160e01b600052602160045260246000fd5b602060408183019282815284518094520192019060005b8181106126545750505090565b90919260206080600192606087516001600160a01b0381511683526001600160a01b0385820151168584015260408101516040840152015160608201520194019101919091612647565b602081526040608082019280516020840152602081015182840152015191606080830152825180915260a0820191602060a08360051b8301019401926000915b8383106126ed57505050505090565b909192939460208061271c600193609f198682030187526040838b5180518452015191818582015201906124d6565b970193019301919392906126de565b9061010060e061278793805184526020810151602085015260408101516040850152606081015160608501526080810151608085015260a081015160a085015260c0810151151560c08501520151918160e082015201906124d6565b90565b60806003198201126122fe576004356001600160a01b03811681036122fe57916024356001600160a01b03811681036122fe57916044356001600160401b0381116122fe57816127dc916004016124fb565b92909291606435906001600160401b0382116122fe576101209082900360031901126122fe5760040190565b8051156128155760200190565b634e487b7160e01b600052603260045260246000fd5b80518210156128155760209160051b010190565b6040906001600160a01b03612787949316815281602082015201906124d6565b6040519061286c826123ab565b606060408360008152600060208201520152565b6040519061288d826123ab565b60006040838281528260208201520152565b604051906128ac826123ab565b81600081526128b961285f565b602082015260406128c8612880565b910152565b9035601e19823603018112156122fe5701602081359101916001600160401b0382116122fe5781360383136122fe57565b908060209392818452848401376000828201840152601f01601f1916010190565b612787916001600160a01b036129348361232f565b168152602082013560208201526129cd6129c161298861296d61295a60408701876128cd565b61012060408801526101208701916128fe565b61297a60608701876128cd565b9086830360608801526128fe565b6080850135608085015260a085013560a085015260c085013560c08501526129b360e08601866128cd565b9085830360e08701526128fe565b926101008101906128cd565b916101008185039101526128fe565b90602083828152019060208160051b85010193836000915b838310612a045750505050505090565b909192939495601f19828203018652863561011e19843603018112156122fe576020612a356001938683940161291f565b9801960194930191906129f4565b9397969592612a7890612a6a6001600160a01b039360a0989560c0895260c08901916129dc565b90868203602088015261291f565b97166040840152606083015260808201520152565b519081151582036122fe57565b81601f820112156122fe578051612ab081612451565b92612abe6040519485612419565b818452602082840101116122fe5761278791602080850191016124b3565b6020818303126122fe578051906001600160401b0382116122fe57018082039160a083126122fe5760405192612b11846123ab565b825160028110156122fe57845260208301516001600160401b0381116122fe5783016060818403126122fe5760405190612b4a826123ab565b80518252612b5a60208201612a8d565b60208301526040810151936001600160401b0385116122fe57606094612b809201612a9a565b60408201526020850152603f1901126122fe57608060405191612ba2836123ab565b604081015183526060810151602084015201516040820152604082015290565b51906001600160a01b03821682036122fe57565b6020818303126122fe578051906001600160401b0382116122fe570181601f820112156122fe57805190612c098261243a565b92612c176040519485612419565b828452602060608186019402830101918183116122fe57602001925b828410612c41575050505090565b6060848303126122fe576020606091604051612c5c816123ab565b612c6587612bc2565b8152612c72838801612bc2565b8382015260408701516040820152815201930192612c33565b9160209082815201919060005b818110612ca55750505090565b9091926020806001926001600160a01b03612cbf8861232f565b168152019401929101612c98565b9290612ce6906127879593604086526040860191612c8b565b926020818503910152612c8b565b612787916001600160a01b03612d098361232f565b16815260208201356020820152612d9f612d93612d4261296d612d2f60408701876128cd565b61016060408801526101608701916128fe565b6080850135608085015260a085013560a085015260c085013560c085015260e085013560e0850152610100850135610100850152612d846101208601866128cd565b908583036101208701526128fe565b926101408101906128cd565b916101408185039101526128fe565b3d15612dd9573d90612dbf82612451565b91612dcd6040519384612419565b82523d6000602084013e565b606090565b90602082519201516001600160e01b031981169260048110612dfe575050565b6001600160e01b0319929350829060040360031b1b161690565b519065ffffffffffff821682036122fe57565b90612e358261243a565b612e426040519182612419565b8281528092612e53601f199161243a565b019060005b828110612e6457505050565b602090604051612e7381612343565b60008152600083820152600060408201526000606082015282828501015201612e58565b90926001600160a01b0390612eaa61285f565b501690813b156122fe57612f3793604051937fd12e825d000000000000000000000000000000000000000000000000000000008552600093848660048183855af16130a9575b8495506001600160a01b0360405197889586957ffccb5ff60000000000000000000000000000000000000000000000000000000087526060600488015260648701916129dc565b921660248401526044830152038183305af191821561309c578192612f5b57505090565b9091503d8083833e612f6d8183612419565b810190602081830312613090578051906001600160401b0382116130985701916060838303126104345760405192612fa4846123ab565b80518452602081015160208501526040810151906001600160401b038211613090570182601f8201121561309457805191612fde8361243a565b93612fec6040519586612419565b83855260208086019460051b840101928184116130905760208101945b84861061301e57505050505050604082015290565b85516001600160401b03811161308c5782016040818503601f19011261308c576040519061304b82612390565b602081015182526040810151906001600160401b038211613088579161307986602080969481960101612a9a565b83820152815201950194613009565b8680fd5b8480fd5b8280fd5b5080fd5b8380fd5b50604051903d90823e3d90fd5b939094816130b691612419565b928490612ef0565b604051906130cd602083612419565b600080835282815b8281106130e157505050565b6020906040516130f081612390565b60008152606083820152828285010152016130d5565b90600182811c92168015613136575b602083101461312057565b634e487b7160e01b600052602260045260246000fd5b91607f1691613115565b81811061314b575050565b60008155600101613140565b600160209193929384518155019201519182516001600160401b03811161235e576131828254613106565b601f8111613228575b506020601f82116001146131c657819293946000926131bb575b50508160011b916000199060031b1c1916179055565b0151905038806131a5565b601f1982169083600052806000209160005b818110613210575095836001959697106131f7575b505050811b019055565b015160001960f88460031b161c191690553880806131ed565b9192602060018192868b0151815501940192016131d8565b61325590836000526020600020601f840160051c8101916020851061325b575b601f0160051c0190613140565b3861318b565b9091508190613248565b91908110156128155760051b8101359061015e19813603018212156122fe570190565b9190820391821161329557565b634e487b7160e01b600052601160045260246000fd5b9190820180921161329557565b600054906801000000000000000082101561235e576001820180600055821015612815576000805261330e9160011b7f290decd9548b62a8d60345a988386fc84ba6bc95484008f6362f93160ef3e56301613157565b565b6000549061331d8261243a565b9161332b6040519384612419565b8083526000808052907f290decd9548b62a8d60345a988386fc84ba6bc95484008f6362f93160ef3e563602085015b8284106133675750505050565b60405161337381612390565b8254815260405160018401805460009161338c82613106565b808552916001811690811561340557506001146133cd575b505092600292826133bb6020946001970382612419565b8382015281520192019301929061335a565b6000908152602081209092505b8183106133ef575050810160200182826133a4565b60018160209254838688010152019201916133da565b60ff191660208087019190915292151560051b850190920192508491508390506133a4565b60405190613437826123fd565b606060e08360008152600060208201526000604082015260008382015260006080820152600060a0820152600060c08201520152565b916127879391613485916040855260408501916129dc565b91602081840391015261291f565b6020818303126122fe578051906001600160401b0382116122fe5701610100818303126122fe57604051916134c7836123fd565b815183526020820151602084015260408201516040840152606082015160608401526080820151608084015260a082015160a084015261350960c08301612a8d565b60c084015260e08201516001600160401b0381116122fe5761352b9201612a9a565b60e082015290565b94919260c096999897946001600160a01b0361357695816135689516895216602088015260e0604088015260e08701916129dc565b90848203606086015261291f565b95608083015260a08201520152565b91908260409103126122fe5760405161359d81612390565b6020808294805184520151910152565b91908110156128155760051b0190565b356001600160a01b03811681036122fe5790565b91908110156128155760051b8101359061011e19813603018212156122fe570190565b60405163428557b160e11b6020820190815260009485948594859261362291869161076c916024840161283f565b5a935193f1613795573d60405191602082840101604052818352602083013e600481511061372b5763428557b160e11b6001600160e01b0319613667611e17846137ff565b16146136c15780516136789161387c565b805181016040828203126122fe5761369260208301612a8d565b916040810151916001600160401b0383116122fe576136b8926020809201920101612a9a565b9015611f915790565b608460405162461bcd60e51b815260206004820152603d60248201527f44656c6567617465416e6452657665727420646964206e6f742072657665727460448201527f20776974682044656c6567617465416e64526576657274206572726f720000006064820152fd5b608460405162461bcd60e51b815260206004820152602a60248201527f44656c6567617465416e6452657665727420726576657274206461746120697360448201527f20746f6f2073686f7274000000000000000000000000000000000000000000006064820152fd5b608460405162461bcd60e51b815260206004820152602c60248201527f44656c6567617465416e6452657665727420646964206e6f742072657665727460448201527f20617320657870656374656400000000000000000000000000000000000000006064820152fd5b9060009160049060609381516004811115613874575b801561386c575b5082811061382957505050565b6040519450918290039101601f8201601f19165b8181015185820152601f1901908115613856579061383d565b5050604081840160006020820152016040528252565b90503861381c565b925082613815565b91906004926060938151838111156138a5575b600481111561386c575082811061382957505050565b92508261388f56fea264697066735822122071ced1903ff38b4a91a933cab9ad45345d238a5f16de092c27c281e92b4f753c64736f6c634300081c0033","linkReferences":{}},"methodIdentifiers":{"binarySearchCallGas(address,address,(address,uint256,bytes,bytes,bytes32,uint256,bytes32,bytes,bytes)[],(address,uint256,bytes,bytes,bytes32,uint256,bytes32,bytes,bytes),uint256,uint256,uint256)":"71349903","binarySearchPaymasterVerificationGas(address,address,(address,uint256,bytes,bytes,bytes32,uint256,bytes32,bytes,bytes)[],(address,uint256,bytes,bytes,bytes32,uint256,bytes32,bytes,bytes),uint256,uint256,uint256)":"9f2d3789","binarySearchVerificationGas(address,address,(address,uint256,bytes,bytes,bytes32,uint256,bytes32,bytes,bytes)[],(address,uint256,bytes,bytes,bytes32,uint256,bytes32,bytes,bytes),uint256,uint256,uint256)":"2e5a0a93","filterOps06((address,uint256,bytes,bytes,uint256,uint256,uint256,uint256,uint256,bytes,bytes)[],address,address)":"959c4cb7","filterOps07((address,uint256,bytes,bytes,bytes32,uint256,bytes32,bytes,bytes)[],address,address)":"fccb5ff6","filterOps08((address,uint256,bytes,bytes,bytes32,uint256,bytes32,bytes,bytes)[],address,address)":"861d9d59","filterOps09((address,uint256,bytes,bytes,bytes32,uint256,bytes32,bytes,bytes)[],address,address)":"82e542ed","getBalances(address[],address[])":"ef5bfc37","simulateAndEstimateGas(address,address,(address,uint256,bytes,bytes,bytes32,uint256,bytes32,bytes,bytes)[],(address,uint256,bytes,bytes,bytes32,uint256,bytes32,bytes,bytes),uint256,uint256,uint256)":"a4968eab","simulateAssetChange06((address,uint256,bytes,bytes,uint256,uint256,uint256,uint256,uint256,bytes,bytes),address,address[],address[])":"685f6026","simulateAssetChange07((address,uint256,bytes,bytes,bytes32,uint256,bytes32,bytes,bytes),address,address,address[],address[])":"b21b38c8","simulateAssetChange08((address,uint256,bytes,bytes,bytes32,uint256,bytes32,bytes,bytes),address,address,address[],address[])":"90d81dfb","simulateEntryPointBulk(address,address,bytes[])":"141eb033","simulateHandleOp(address,address,(address,uint256,bytes,bytes,bytes32,uint256,bytes32,bytes,bytes)[],(address,uint256,bytes,bytes,bytes32,uint256,bytes32,bytes,bytes))":"f1143043","simulateValidation(address,address,(address,uint256,bytes,bytes,bytes32,uint256,bytes32,bytes,bytes)[],(address,uint256,bytes,bytes,bytes32,uint256,bytes32,bytes,bytes))":"de040de1"},"id":37}