{"abi":[{"type":"constructor","inputs":[],"stateMutability":"nonpayable"},{"type":"function","name":"createSender","inputs":[{"name":"initCode","type":"bytes","internalType":"bytes"}],"outputs":[{"name":"sender","type":"address","internalType":"address"}],"stateMutability":"nonpayable"},{"type":"function","name":"entryPoint","inputs":[],"outputs":[{"name":"","type":"address","internalType":"address"}],"stateMutability":"view"},{"type":"function","name":"initEip7702Sender","inputs":[{"name":"sender","type":"address","internalType":"address"},{"name":"initCallData","type":"bytes","internalType":"bytes"}],"outputs":[],"stateMutability":"nonpayable"},{"type":"error","name":"FailedOpWithRevert","inputs":[{"name":"opIndex","type":"uint256","internalType":"uint256"},{"name":"reason","type":"string","internalType":"string"},{"name":"inner","type":"bytes","internalType":"bytes"}]}],"bytecode":{"object":"0x60a0806040523460225733608052610328908161002782396080518161019a0152f35b5f80fdfe60806040526004361015610011575f80fd5b5f3560e01c8063570e1a36146101be578063b0d691fe1461016e5763c09ad0d91461003a575f80fd5b3461016a57604036600319011261016a5760043573ffffffffffffffffffffffffffffffffffffffff8116810361016a5760243567ffffffffffffffff811161016a573660238201121561016a575f9161009f8392369060248160040135910161026d565b9082602083519301915af1156100b157005b3d6108008111610161575b60c460405160208382010160405282815260208101925f843e6040519283917f65c8fd4d0000000000000000000000000000000000000000000000000000000083525f600484015260606024840152601f60648401527f4141313320454950373730322073656e64657220696e6974206661696c656400608484015260a060448401525180918160a48501528484015e5f828201840152601f01601f19168101030190fd5b506108006100bc565b5f80fd5b3461016a575f36600319011261016a57602060405173ffffffffffffffffffffffffffffffffffffffff7f0000000000000000000000000000000000000000000000000000000000000000168152f35b3461016a57602036600319011261016a5760043567ffffffffffffffff811161016a573660238201121561016a5780600401359067ffffffffffffffff821161016a57366024838301011161016a575f918060141161016a5760209161022e5f923690601319016038840161026d565b90826024858451940192013560601c5af1610265575b60209073ffffffffffffffffffffffffffffffffffffffff60405191168152f35b505f51610244565b92919267ffffffffffffffff82116102c55760405191601f8101601f19908116603f0116830167ffffffffffffffff8111848210176102c55760405282948184528183011161016a578281602093845f960137010152565b7f4e487b71000000000000000000000000000000000000000000000000000000005f52604160045260245ffdfea264697066735822122046536aafbb0e1c0a52d20ade5adab2d87a9a1c5c1322b36b65a4bec76bb7914464736f6c634300081c0033","linkReferences":{}},"methodIdentifiers":{"createSender(bytes)":"570e1a36","entryPoint()":"b0d691fe","initEip7702Sender(address,bytes)":"c09ad0d9"},"id":30}